{
  "_format": "hh-sol-artifact-1",
  "contractName": "Course",
  "sourceName": "contracts/V1/Course.sol",
  "abi": [
    {
      "inputs": [],
      "stateMutability": "nonpayable",
      "type": "constructor"
    },
    {
      "inputs": [
        {
          "internalType": "address",
          "name": "target",
          "type": "address"
        }
      ],
      "name": "AddressEmptyCode",
      "type": "error"
    },
    {
      "inputs": [
        {
          "internalType": "address",
          "name": "sender",
          "type": "address"
        },
        {
          "internalType": "uint256",
          "name": "balance",
          "type": "uint256"
        },
        {
          "internalType": "uint256",
          "name": "needed",
          "type": "uint256"
        },
        {
          "internalType": "uint256",
          "name": "tokenId",
          "type": "uint256"
        }
      ],
      "name": "ERC1155InsufficientBalance",
      "type": "error"
    },
    {
      "inputs": [
        {
          "internalType": "address",
          "name": "approver",
          "type": "address"
        }
      ],
      "name": "ERC1155InvalidApprover",
      "type": "error"
    },
    {
      "inputs": [
        {
          "internalType": "uint256",
          "name": "idsLength",
          "type": "uint256"
        },
        {
          "internalType": "uint256",
          "name": "valuesLength",
          "type": "uint256"
        }
      ],
      "name": "ERC1155InvalidArrayLength",
      "type": "error"
    },
    {
      "inputs": [
        {
          "internalType": "address",
          "name": "operator",
          "type": "address"
        }
      ],
      "name": "ERC1155InvalidOperator",
      "type": "error"
    },
    {
      "inputs": [
        {
          "internalType": "address",
          "name": "receiver",
          "type": "address"
        }
      ],
      "name": "ERC1155InvalidReceiver",
      "type": "error"
    },
    {
      "inputs": [
        {
          "internalType": "address",
          "name": "sender",
          "type": "address"
        }
      ],
      "name": "ERC1155InvalidSender",
      "type": "error"
    },
    {
      "inputs": [
        {
          "internalType": "address",
          "name": "operator",
          "type": "address"
        },
        {
          "internalType": "address",
          "name": "owner",
          "type": "address"
        }
      ],
      "name": "ERC1155MissingApprovalForAll",
      "type": "error"
    },
    {
      "inputs": [
        {
          "internalType": "address",
          "name": "implementation",
          "type": "address"
        }
      ],
      "name": "ERC1967InvalidImplementation",
      "type": "error"
    },
    {
      "inputs": [],
      "name": "ERC1967NonPayable",
      "type": "error"
    },
    {
      "inputs": [],
      "name": "FailedInnerCall",
      "type": "error"
    },
    {
      "inputs": [],
      "name": "InvalidInitialization",
      "type": "error"
    },
    {
      "inputs": [],
      "name": "NotInitializing",
      "type": "error"
    },
    {
      "inputs": [
        {
          "internalType": "address",
          "name": "owner",
          "type": "address"
        }
      ],
      "name": "OwnableInvalidOwner",
      "type": "error"
    },
    {
      "inputs": [
        {
          "internalType": "address",
          "name": "account",
          "type": "address"
        }
      ],
      "name": "OwnableUnauthorizedAccount",
      "type": "error"
    },
    {
      "inputs": [],
      "name": "UUPSUnauthorizedCallContext",
      "type": "error"
    },
    {
      "inputs": [
        {
          "internalType": "bytes32",
          "name": "slot",
          "type": "bytes32"
        }
      ],
      "name": "UUPSUnsupportedProxiableUUID",
      "type": "error"
    },
    {
      "anonymous": false,
      "inputs": [
        {
          "indexed": true,
          "internalType": "address",
          "name": "account",
          "type": "address"
        },
        {
          "indexed": true,
          "internalType": "address",
          "name": "operator",
          "type": "address"
        },
        {
          "indexed": false,
          "internalType": "bool",
          "name": "approved",
          "type": "bool"
        }
      ],
      "name": "ApprovalForAll",
      "type": "event"
    },
    {
      "anonymous": false,
      "inputs": [
        {
          "indexed": false,
          "internalType": "uint64",
          "name": "version",
          "type": "uint64"
        }
      ],
      "name": "Initialized",
      "type": "event"
    },
    {
      "anonymous": false,
      "inputs": [
        {
          "indexed": true,
          "internalType": "address",
          "name": "previousOwner",
          "type": "address"
        },
        {
          "indexed": true,
          "internalType": "address",
          "name": "newOwner",
          "type": "address"
        }
      ],
      "name": "OwnershipTransferred",
      "type": "event"
    },
    {
      "anonymous": false,
      "inputs": [
        {
          "indexed": true,
          "internalType": "address",
          "name": "operator",
          "type": "address"
        },
        {
          "indexed": true,
          "internalType": "address",
          "name": "from",
          "type": "address"
        },
        {
          "indexed": true,
          "internalType": "address",
          "name": "to",
          "type": "address"
        },
        {
          "indexed": false,
          "internalType": "uint256[]",
          "name": "ids",
          "type": "uint256[]"
        },
        {
          "indexed": false,
          "internalType": "uint256[]",
          "name": "values",
          "type": "uint256[]"
        }
      ],
      "name": "TransferBatch",
      "type": "event"
    },
    {
      "anonymous": false,
      "inputs": [
        {
          "indexed": true,
          "internalType": "address",
          "name": "operator",
          "type": "address"
        },
        {
          "indexed": true,
          "internalType": "address",
          "name": "from",
          "type": "address"
        },
        {
          "indexed": true,
          "internalType": "address",
          "name": "to",
          "type": "address"
        },
        {
          "indexed": false,
          "internalType": "uint256",
          "name": "id",
          "type": "uint256"
        },
        {
          "indexed": false,
          "internalType": "uint256",
          "name": "value",
          "type": "uint256"
        }
      ],
      "name": "TransferSingle",
      "type": "event"
    },
    {
      "anonymous": false,
      "inputs": [
        {
          "indexed": false,
          "internalType": "string",
          "name": "value",
          "type": "string"
        },
        {
          "indexed": true,
          "internalType": "uint256",
          "name": "id",
          "type": "uint256"
        }
      ],
      "name": "URI",
      "type": "event"
    },
    {
      "anonymous": false,
      "inputs": [
        {
          "indexed": true,
          "internalType": "address",
          "name": "implementation",
          "type": "address"
        }
      ],
      "name": "Upgraded",
      "type": "event"
    },
    {
      "inputs": [],
      "name": "Marketplace",
      "outputs": [
        {
          "internalType": "contract Market",
          "name": "",
          "type": "address"
        }
      ],
      "stateMutability": "view",
      "type": "function"
    },
    {
      "inputs": [],
      "name": "UPGRADE_INTERFACE_VERSION",
      "outputs": [
        {
          "internalType": "string",
          "name": "",
          "type": "string"
        }
      ],
      "stateMutability": "view",
      "type": "function"
    },
    {
      "inputs": [
        {
          "internalType": "address",
          "name": "_user",
          "type": "address"
        },
        {
          "internalType": "bytes",
          "name": "_courses",
          "type": "bytes"
        }
      ],
      "name": "addUserCourse",
      "outputs": [],
      "stateMutability": "nonpayable",
      "type": "function"
    },
    {
      "inputs": [
        {
          "internalType": "uint256",
          "name": "",
          "type": "uint256"
        }
      ],
      "name": "allowNftTransfer",
      "outputs": [
        {
          "internalType": "bool",
          "name": "",
          "type": "bool"
        }
      ],
      "stateMutability": "view",
      "type": "function"
    },
    {
      "inputs": [
        {
          "internalType": "address",
          "name": "account",
          "type": "address"
        },
        {
          "internalType": "uint256",
          "name": "id",
          "type": "uint256"
        }
      ],
      "name": "balanceOf",
      "outputs": [
        {
          "internalType": "uint256",
          "name": "",
          "type": "uint256"
        }
      ],
      "stateMutability": "view",
      "type": "function"
    },
    {
      "inputs": [
        {
          "internalType": "address[]",
          "name": "accounts",
          "type": "address[]"
        },
        {
          "internalType": "uint256[]",
          "name": "ids",
          "type": "uint256[]"
        }
      ],
      "name": "balanceOfBatch",
      "outputs": [
        {
          "internalType": "uint256[]",
          "name": "",
          "type": "uint256[]"
        }
      ],
      "stateMutability": "view",
      "type": "function"
    },
    {
      "inputs": [
        {
          "internalType": "bytes",
          "name": "",
          "type": "bytes"
        }
      ],
      "name": "courses",
      "outputs": [
        {
          "internalType": "bytes",
          "name": "courseId",
          "type": "bytes"
        },
        {
          "internalType": "uint256",
          "name": "id",
          "type": "uint256"
        },
        {
          "internalType": "uint256",
          "name": "courseNumber",
          "type": "uint256"
        },
        {
          "internalType": "uint256",
          "name": "price",
          "type": "uint256"
        },
        {
          "internalType": "uint256",
          "name": "duration",
          "type": "uint256"
        },
        {
          "internalType": "uint256",
          "name": "recommendedDuration",
          "type": "uint256"
        },
        {
          "internalType": "uint256",
          "name": "startTime",
          "type": "uint256"
        },
        {
          "internalType": "uint256",
          "name": "pausedTime",
          "type": "uint256"
        },
        {
          "internalType": "bool",
          "name": "isListed",
          "type": "bool"
        },
        {
          "internalType": "address",
          "name": "holder",
          "type": "address"
        },
        {
          "internalType": "address",
          "name": "secondHolder",
          "type": "address"
        }
      ],
      "stateMutability": "view",
      "type": "function"
    },
    {
      "inputs": [
        {
          "internalType": "uint256",
          "name": "id",
          "type": "uint256"
        }
      ],
      "name": "exists",
      "outputs": [
        {
          "internalType": "bool",
          "name": "",
          "type": "bool"
        }
      ],
      "stateMutability": "view",
      "type": "function"
    },
    {
      "inputs": [
        {
          "internalType": "bytes",
          "name": "_id",
          "type": "bytes"
        }
      ],
      "name": "getCourseDetails",
      "outputs": [
        {
          "components": [
            {
              "internalType": "bytes",
              "name": "courseId",
              "type": "bytes"
            },
            {
              "internalType": "uint256",
              "name": "id",
              "type": "uint256"
            },
            {
              "internalType": "uint256",
              "name": "courseNumber",
              "type": "uint256"
            },
            {
              "internalType": "uint256",
              "name": "price",
              "type": "uint256"
            },
            {
              "internalType": "uint256",
              "name": "duration",
              "type": "uint256"
            },
            {
              "internalType": "uint256",
              "name": "recommendedDuration",
              "type": "uint256"
            },
            {
              "internalType": "uint256",
              "name": "startTime",
              "type": "uint256"
            },
            {
              "internalType": "uint256",
              "name": "pausedTime",
              "type": "uint256"
            },
            {
              "internalType": "bool",
              "name": "isListed",
              "type": "bool"
            },
            {
              "internalType": "address",
              "name": "holder",
              "type": "address"
            },
            {
              "internalType": "address",
              "name": "secondHolder",
              "type": "address"
            }
          ],
          "internalType": "struct ICourse.Course",
          "name": "",
          "type": "tuple"
        }
      ],
      "stateMutability": "view",
      "type": "function"
    },
    {
      "inputs": [],
      "name": "getListOfCourses",
      "outputs": [
        {
          "internalType": "bytes[]",
          "name": "",
          "type": "bytes[]"
        }
      ],
      "stateMutability": "view",
      "type": "function"
    },
    {
      "inputs": [
        {
          "internalType": "address",
          "name": "_user",
          "type": "address"
        }
      ],
      "name": "getUserCourse",
      "outputs": [
        {
          "internalType": "bytes[]",
          "name": "",
          "type": "bytes[]"
        }
      ],
      "stateMutability": "view",
      "type": "function"
    },
    {
      "inputs": [
        {
          "internalType": "address",
          "name": "initialOwner",
          "type": "address"
        },
        {
          "internalType": "string",
          "name": "_baseURI",
          "type": "string"
        }
      ],
      "name": "initialize",
      "outputs": [],
      "stateMutability": "nonpayable",
      "type": "function"
    },
    {
      "inputs": [
        {
          "internalType": "address",
          "name": "account",
          "type": "address"
        },
        {
          "internalType": "address",
          "name": "operator",
          "type": "address"
        }
      ],
      "name": "isApprovedForAll",
      "outputs": [
        {
          "internalType": "bool",
          "name": "",
          "type": "bool"
        }
      ],
      "stateMutability": "view",
      "type": "function"
    },
    {
      "inputs": [
        {
          "internalType": "uint256",
          "name": "",
          "type": "uint256"
        }
      ],
      "name": "listOfCourses",
      "outputs": [
        {
          "internalType": "bytes",
          "name": "",
          "type": "bytes"
        }
      ],
      "stateMutability": "view",
      "type": "function"
    },
    {
      "inputs": [
        {
          "internalType": "address",
          "name": "to",
          "type": "address"
        },
        {
          "internalType": "uint256",
          "name": "id",
          "type": "uint256"
        },
        {
          "internalType": "uint256",
          "name": "value",
          "type": "uint256"
        },
        {
          "internalType": "bytes",
          "name": "data",
          "type": "bytes"
        }
      ],
      "name": "mintFromMarket",
      "outputs": [],
      "stateMutability": "nonpayable",
      "type": "function"
    },
    {
      "inputs": [],
      "name": "owner",
      "outputs": [
        {
          "internalType": "address",
          "name": "",
          "type": "address"
        }
      ],
      "stateMutability": "view",
      "type": "function"
    },
    {
      "inputs": [],
      "name": "proxiableUUID",
      "outputs": [
        {
          "internalType": "bytes32",
          "name": "",
          "type": "bytes32"
        }
      ],
      "stateMutability": "view",
      "type": "function"
    },
    {
      "inputs": [],
      "name": "renounceOwnership",
      "outputs": [],
      "stateMutability": "nonpayable",
      "type": "function"
    },
    {
      "inputs": [
        {
          "internalType": "address",
          "name": "from",
          "type": "address"
        },
        {
          "internalType": "address",
          "name": "to",
          "type": "address"
        },
        {
          "internalType": "uint256[]",
          "name": "ids",
          "type": "uint256[]"
        },
        {
          "internalType": "uint256[]",
          "name": "values",
          "type": "uint256[]"
        },
        {
          "internalType": "bytes",
          "name": "data",
          "type": "bytes"
        }
      ],
      "name": "safeBatchTransferFrom",
      "outputs": [],
      "stateMutability": "nonpayable",
      "type": "function"
    },
    {
      "inputs": [
        {
          "internalType": "address",
          "name": "from",
          "type": "address"
        },
        {
          "internalType": "address",
          "name": "to",
          "type": "address"
        },
        {
          "internalType": "uint256",
          "name": "id",
          "type": "uint256"
        },
        {
          "internalType": "uint256",
          "name": "value",
          "type": "uint256"
        },
        {
          "internalType": "bytes",
          "name": "data",
          "type": "bytes"
        }
      ],
      "name": "safeTransferFrom",
      "outputs": [],
      "stateMutability": "nonpayable",
      "type": "function"
    },
    {
      "inputs": [
        {
          "internalType": "uint256",
          "name": "id",
          "type": "uint256"
        }
      ],
      "name": "setAllowTransfer",
      "outputs": [],
      "stateMutability": "nonpayable",
      "type": "function"
    },
    {
      "inputs": [
        {
          "internalType": "address",
          "name": "operator",
          "type": "address"
        },
        {
          "internalType": "bool",
          "name": "approved",
          "type": "bool"
        }
      ],
      "name": "setApprovalForAll",
      "outputs": [],
      "stateMutability": "nonpayable",
      "type": "function"
    },
    {
      "inputs": [
        {
          "internalType": "bytes",
          "name": "_id",
          "type": "bytes"
        },
        {
          "components": [
            {
              "internalType": "bytes",
              "name": "courseId",
              "type": "bytes"
            },
            {
              "internalType": "uint256",
              "name": "id",
              "type": "uint256"
            },
            {
              "internalType": "uint256",
              "name": "courseNumber",
              "type": "uint256"
            },
            {
              "internalType": "uint256",
              "name": "price",
              "type": "uint256"
            },
            {
              "internalType": "uint256",
              "name": "duration",
              "type": "uint256"
            },
            {
              "internalType": "uint256",
              "name": "recommendedDuration",
              "type": "uint256"
            },
            {
              "internalType": "uint256",
              "name": "startTime",
              "type": "uint256"
            },
            {
              "internalType": "uint256",
              "name": "pausedTime",
              "type": "uint256"
            },
            {
              "internalType": "bool",
              "name": "isListed",
              "type": "bool"
            },
            {
              "internalType": "address",
              "name": "holder",
              "type": "address"
            },
            {
              "internalType": "address",
              "name": "secondHolder",
              "type": "address"
            }
          ],
          "internalType": "struct ICourse.Course",
          "name": "course",
          "type": "tuple"
        }
      ],
      "name": "setCourseDetails",
      "outputs": [],
      "stateMutability": "nonpayable",
      "type": "function"
    },
    {
      "inputs": [
        {
          "internalType": "bytes",
          "name": "_courseId",
          "type": "bytes"
        }
      ],
      "name": "setListOfCourses",
      "outputs": [],
      "stateMutability": "nonpayable",
      "type": "function"
    },
    {
      "inputs": [
        {
          "internalType": "address",
          "name": "contractAddress",
          "type": "address"
        }
      ],
      "name": "setMarketplaceContract",
      "outputs": [],
      "stateMutability": "nonpayable",
      "type": "function"
    },
    {
      "inputs": [
        {
          "internalType": "string",
          "name": "newuri",
          "type": "string"
        }
      ],
      "name": "setURI",
      "outputs": [],
      "stateMutability": "nonpayable",
      "type": "function"
    },
    {
      "inputs": [
        {
          "internalType": "bytes4",
          "name": "interfaceId",
          "type": "bytes4"
        }
      ],
      "name": "supportsInterface",
      "outputs": [
        {
          "internalType": "bool",
          "name": "",
          "type": "bool"
        }
      ],
      "stateMutability": "view",
      "type": "function"
    },
    {
      "inputs": [],
      "name": "totalSupply",
      "outputs": [
        {
          "internalType": "uint256",
          "name": "",
          "type": "uint256"
        }
      ],
      "stateMutability": "view",
      "type": "function"
    },
    {
      "inputs": [
        {
          "internalType": "uint256",
          "name": "id",
          "type": "uint256"
        }
      ],
      "name": "totalSupply",
      "outputs": [
        {
          "internalType": "uint256",
          "name": "",
          "type": "uint256"
        }
      ],
      "stateMutability": "view",
      "type": "function"
    },
    {
      "inputs": [
        {
          "internalType": "address",
          "name": "newOwner",
          "type": "address"
        }
      ],
      "name": "transferOwnership",
      "outputs": [],
      "stateMutability": "nonpayable",
      "type": "function"
    },
    {
      "inputs": [
        {
          "internalType": "address",
          "name": "from",
          "type": "address"
        },
        {
          "internalType": "address",
          "name": "to",
          "type": "address"
        },
        {
          "internalType": "uint256[]",
          "name": "ids",
          "type": "uint256[]"
        },
        {
          "internalType": "uint256[]",
          "name": "values",
          "type": "uint256[]"
        }
      ],
      "name": "updateFromMarket",
      "outputs": [],
      "stateMutability": "nonpayable",
      "type": "function"
    },
    {
      "inputs": [
        {
          "internalType": "address",
          "name": "newImplementation",
          "type": "address"
        },
        {
          "internalType": "bytes",
          "name": "data",
          "type": "bytes"
        }
      ],
      "name": "upgradeToAndCall",
      "outputs": [],
      "stateMutability": "payable",
      "type": "function"
    },
    {
      "inputs": [
        {
          "internalType": "uint256",
          "name": "id",
          "type": "uint256"
        }
      ],
      "name": "uri",
      "outputs": [
        {
          "internalType": "string",
          "name": "tokenUri",
          "type": "string"
        }
      ],
      "stateMutability": "view",
      "type": "function"
    },
    {
      "inputs": [
        {
          "internalType": "address",
          "name": "",
          "type": "address"
        },
        {
          "internalType": "uint256",
          "name": "",
          "type": "uint256"
        }
      ],
      "name": "userCourses",
      "outputs": [
        {
          "internalType": "bytes",
          "name": "",
          "type": "bytes"
        }
      ],
      "stateMutability": "view",
      "type": "function"
    }
  ],
  "bytecode": "0x60a06040523073ffffffffffffffffffffffffffffffffffffffff1660809073ffffffffffffffffffffffffffffffffffffffff1681525034801561004357600080fd5b5061005261005760201b60201c565b6101c1565b600061006761015b60201b60201c565b90508060000160089054906101000a900460ff16156100b2576040517ff92ee8a900000000000000000000000000000000000000000000000000000000815260040160405180910390fd5b67ffffffffffffffff80168160000160009054906101000a900467ffffffffffffffff1667ffffffffffffffff16146101585767ffffffffffffffff8160000160006101000a81548167ffffffffffffffff021916908367ffffffffffffffff1602179055507fc7f505b2f371ae2175ee4913f4499e1f2633a7b5936321eed1cdaeb6115181d267ffffffffffffffff60405161014f91906101a6565b60405180910390a15b50565b60007ff0c57e16840df040f15088dc2f81fe391c3923bec73e23a9662efc9c229c6a00905090565b600067ffffffffffffffff82169050919050565b6101a081610183565b82525050565b60006020820190506101bb6000830184610197565b92915050565b6080516154df6101ea6000396000818161208c015281816120e1015261229c01526154df6000f3fe6080604052600436106101f85760003560e01c806393a05c201161010d578063dddb8556116100a0578063f2af91af1161006f578063f2af91af14610789578063f2fde38b146107b2578063f399e22e146107db578063f4a4513a14610804578063fb9812fc14610841576101f8565b8063dddb8556146106cf578063e985e9c5146106fa578063f178778214610737578063f242432a14610760576101f8565b8063b199fa71116100dc578063b199fa71146105ef578063bd85b0391461062c578063c58962aa14610669578063d1ead4da14610692576101f8565b806393a05c20146105355780639ecfc1b614610572578063a22cb4651461059b578063ad3cb1cc146105c4576101f8565b80634e1273f4116101905780636e4651021161015f5780636e465102146104445780636fdb67f71461046f578063715018a6146104ac5780638573f501146104c35780638da5cb5b1461050a576101f8565b80634e1273f4146103835780634f1ef286146103c05780634f558e79146103dc57806352d1902d14610419576101f8565b80630e89341c116101cc5780630e89341c146102c95780631102610e1461030657806318160ddd1461032f5780632eb2c2d61461035a576101f8565b8062fdd58e146101fd57806301ffc9a71461023a57806302fe530514610277578063087e349d146102a0575b600080fd5b34801561020957600080fd5b50610224600480360381019061021f91906138b9565b61086a565b6040516102319190613908565b60405180910390f35b34801561024657600080fd5b50610261600480360381019061025c919061397b565b6108d3565b60405161026e91906139c3565b60405180910390f35b34801561028357600080fd5b5061029e60048036038101906102999190613b24565b6109b5565b005b3480156102ac57600080fd5b506102c760048036038101906102c29190613b6d565b6109c9565b005b3480156102d557600080fd5b506102f060048036038101906102eb9190613b6d565b610a44565b6040516102fd9190613c19565b60405180910390f35b34801561031257600080fd5b5061032d60048036038101906103289190613c3b565b610a5c565b005b34801561033b57600080fd5b50610344610aa8565b6040516103519190613908565b60405180910390f35b34801561036657600080fd5b50610381600480360381019061037c9190613dd1565b610ac0565b005b34801561038f57600080fd5b506103aa60048036038101906103a59190613f63565b610b68565b6040516103b79190614099565b60405180910390f35b6103da60048036038101906103d591906140bb565b610c71565b005b3480156103e857600080fd5b5061040360048036038101906103fe9190613b6d565b610c90565b60405161041091906139c3565b60405180910390f35b34801561042557600080fd5b5061042e610ca4565b60405161043b9190614130565b60405180910390f35b34801561045057600080fd5b50610459610cd7565b6040516104669190614262565b60405180910390f35b34801561047b57600080fd5b5061049660048036038101906104919190613b6d565b610db0565b6040516104a391906142ce565b60405180910390f35b3480156104b857600080fd5b506104c1610e5c565b005b3480156104cf57600080fd5b506104ea60048036038101906104e591906142f0565b610e70565b6040516105019b9a99989796959493929190614348565b60405180910390f35b34801561051657600080fd5b5061051f610fb5565b60405161052c91906143fa565b60405180910390f35b34801561054157600080fd5b5061055c600480360381019061055791906138b9565b610fed565b60405161056991906142ce565b60405180910390f35b34801561057e57600080fd5b5061059960048036038101906105949190614415565b6110a6565b005b3480156105a757600080fd5b506105c260048036038101906105bd91906144e0565b611148565b005b3480156105d057600080fd5b506105d961115e565b6040516105e69190613c19565b60405180910390f35b3480156105fb57600080fd5b50610616600480360381019061061191906142f0565b611197565b604051610623919061462d565b60405180910390f35b34801561063857600080fd5b50610653600480360381019061064e9190613b6d565b611375565b6040516106609190613908565b60405180910390f35b34801561067557600080fd5b50610690600480360381019061068b9190614781565b6113a0565b005b34801561069e57600080fd5b506106b960048036038101906106b49190613b6d565b6115b0565b6040516106c691906139c3565b60405180910390f35b3480156106db57600080fd5b506106e46115d0565b6040516106f19190614858565b60405180910390f35b34801561070657600080fd5b50610721600480360381019061071c9190614873565b6115f6565b60405161072e91906139c3565b60405180910390f35b34801561074357600080fd5b5061075e600480360381019061075991906140bb565b611698565b005b34801561076c57600080fd5b50610787600480360381019061078291906148b3565b61179e565b005b34801561079557600080fd5b506107b060048036038101906107ab91906142f0565b611840565b005b3480156107be57600080fd5b506107d960048036038101906107d49190613c3b565b611908565b005b3480156107e757600080fd5b5061080260048036038101906107fd919061494a565b61198e565b005b34801561081057600080fd5b5061082b60048036038101906108269190613c3b565b611b4f565b6040516108389190614262565b60405180910390f35b34801561084d57600080fd5b50610868600480360381019061086391906149a6565b611c67565b005b600080610875611d09565b905080600001600084815260200190815260200160002060008573ffffffffffffffffffffffffffffffffffffffff1673ffffffffffffffffffffffffffffffffffffffff1681526020019081526020016000205491505092915050565b60007fd9b67a26000000000000000000000000000000000000000000000000000000007bffffffffffffffffffffffffffffffffffffffffffffffffffffffff1916827bffffffffffffffffffffffffffffffffffffffffffffffffffffffff1916148061099e57507f0e89341c000000000000000000000000000000000000000000000000000000007bffffffffffffffffffffffffffffffffffffffffffffffffffffffff1916827bffffffffffffffffffffffffffffffffffffffffffffffffffffffff1916145b806109ae57506109ad82611d31565b5b9050919050565b6109bd611d9b565b6109c681611e22565b50565b60006109d5338361086a565b11610a15576040517f08c379a0000000000000000000000000000000000000000000000000000000008152600401610a0c90614a75565b60405180910390fd5b60016005600083815260200190815260200160002060006101000a81548160ff02191690831515021790555050565b60606000610a5183611e44565b905080915050919050565b610a64611d9b565b80600160006101000a81548173ffffffffffffffffffffffffffffffffffffffff021916908373ffffffffffffffffffffffffffffffffffffffff16021790555050565b600080610ab3611f3a565b9050806001015491505090565b6000610aca611f62565b90508073ffffffffffffffffffffffffffffffffffffffff168673ffffffffffffffffffffffffffffffffffffffff1614158015610b0f5750610b0d86826115f6565b155b15610b535780866040517fe237d922000000000000000000000000000000000000000000000000000000008152600401610b4a929190614a95565b60405180910390fd5b610b608686868686611f6a565b505050505050565b60608151835114610bb457815183516040517f5b059991000000000000000000000000000000000000000000000000000000008152600401610bab929190614abe565b60405180910390fd5b6000835167ffffffffffffffff811115610bd157610bd06139f9565b5b604051908082528060200260200182016040528015610bff5781602001602082028036833780820191505090505b50905060005b8451811015610c6657610c3c610c24828761206290919063ffffffff16565b610c37838761207690919063ffffffff16565b61086a565b828281518110610c4f57610c4e614ae7565b5b602002602001018181525050806001019050610c05565b508091505092915050565b610c7961208a565b610c8282612170565b610c8c828261217b565b5050565b600080610c9c83611375565b119050919050565b6000610cae61229a565b7f360894a13ba1a3210667c828492db98dca3e2076cc3735a920a3ca505d382bbc60001b905090565b60606002805480602002602001604051908101604052809291908181526020016000905b82821015610da7578382906000526020600020018054610d1a90614b45565b80601f0160208091040260200160405190810160405280929190818152602001828054610d4690614b45565b8015610d935780601f10610d6857610100808354040283529160200191610d93565b820191906000526020600020905b815481529060010190602001808311610d7657829003601f168201915b505050505081526020019060010190610cfb565b50505050905090565b60028181548110610dc057600080fd5b906000526020600020016000915090508054610ddb90614b45565b80601f0160208091040260200160405190810160405280929190818152602001828054610e0790614b45565b8015610e545780601f10610e2957610100808354040283529160200191610e54565b820191906000526020600020905b815481529060010190602001808311610e3757829003601f168201915b505050505081565b610e64611d9b565b610e6e6000612321565b565b600381805160208101820180518482526020830160208501208183528095505050505050600091509050806000018054610ea990614b45565b80601f0160208091040260200160405190810160405280929190818152602001828054610ed590614b45565b8015610f225780601f10610ef757610100808354040283529160200191610f22565b820191906000526020600020905b815481529060010190602001808311610f0557829003601f168201915b5050505050908060010154908060020154908060030154908060040154908060050154908060060154908060070154908060080160009054906101000a900460ff16908060080160019054906101000a900473ffffffffffffffffffffffffffffffffffffffff16908060090160009054906101000a900473ffffffffffffffffffffffffffffffffffffffff1690508b565b600080610fc06123f8565b90508060000160009054906101000a900473ffffffffffffffffffffffffffffffffffffffff1691505090565b6004602052816000526040600020818154811061100957600080fd5b9060005260206000200160009150915050805461102590614b45565b80601f016020809104026020016040519081016040528092919081815260200182805461105190614b45565b801561109e5780601f106110735761010080835404028352916020019161109e565b820191906000526020600020905b81548152906001019060200180831161108157829003601f168201915b505050505081565b600160009054906101000a900473ffffffffffffffffffffffffffffffffffffffff1673ffffffffffffffffffffffffffffffffffffffff163373ffffffffffffffffffffffffffffffffffffffff1614611136576040517f08c379a000000000000000000000000000000000000000000000000000000000815260040161112d90614be8565b60405180910390fd5b61114284848484612420565b50505050565b61115a611153611f62565b8383612432565b5050565b6040518060400160405280600581526020017f352e302e3000000000000000000000000000000000000000000000000000000081525081565b61119f613789565b60006003836040516111b19190614c44565b9081526020016040518091039020604051806101600160405290816000820180546111db90614b45565b80601f016020809104026020016040519081016040528092919081815260200182805461120790614b45565b80156112545780601f1061122957610100808354040283529160200191611254565b820191906000526020600020905b81548152906001019060200180831161123757829003601f168201915b50505050508152602001600182015481526020016002820154815260200160038201548152602001600482015481526020016005820154815260200160068201548152602001600782015481526020016008820160009054906101000a900460ff161515151581526020016008820160019054906101000a900473ffffffffffffffffffffffffffffffffffffffff1673ffffffffffffffffffffffffffffffffffffffff1673ffffffffffffffffffffffffffffffffffffffff1681526020016009820160009054906101000a900473ffffffffffffffffffffffffffffffffffffffff1673ffffffffffffffffffffffffffffffffffffffff1673ffffffffffffffffffffffffffffffffffffffff1681525050905080915050919050565b600080611380611f3a565b905080600001600084815260200190815260200160002054915050919050565b600160009054906101000a900473ffffffffffffffffffffffffffffffffffffffff1673ffffffffffffffffffffffffffffffffffffffff163373ffffffffffffffffffffffffffffffffffffffff1614611430576040517f08c379a000000000000000000000000000000000000000000000000000000000815260040161142790614be8565b60405180910390fd5b61143e8282600001516125b1565b61147d576040517f08c379a000000000000000000000000000000000000000000000000000000000815260040161147490614ccd565b60405180910390fd5b8060038360405161148e9190614c44565b908152602001604051809103902060008201518160000190816114b19190614e8f565b506020820151816001015560408201518160020155606082015181600301556080820151816004015560a0820151816005015560c0820151816006015560e082015181600701556101008201518160080160006101000a81548160ff0219169083151502179055506101208201518160080160016101000a81548173ffffffffffffffffffffffffffffffffffffffff021916908373ffffffffffffffffffffffffffffffffffffffff1602179055506101408201518160090160006101000a81548173ffffffffffffffffffffffffffffffffffffffff021916908373ffffffffffffffffffffffffffffffffffffffff1602179055509050505050565b60056020528060005260406000206000915054906101000a900460ff1681565b600160009054906101000a900473ffffffffffffffffffffffffffffffffffffffff1681565b600080611601611d09565b90508060010160008573ffffffffffffffffffffffffffffffffffffffff1673ffffffffffffffffffffffffffffffffffffffff16815260200190815260200160002060008473ffffffffffffffffffffffffffffffffffffffff1673ffffffffffffffffffffffffffffffffffffffff16815260200190815260200160002060009054906101000a900460ff1691505092915050565b600160009054906101000a900473ffffffffffffffffffffffffffffffffffffffff1673ffffffffffffffffffffffffffffffffffffffff163373ffffffffffffffffffffffffffffffffffffffff1614611728576040517f08c379a000000000000000000000000000000000000000000000000000000000815260040161171f90614be8565b60405180910390fd5b600460008373ffffffffffffffffffffffffffffffffffffffff1673ffffffffffffffffffffffffffffffffffffffff168152602001908152602001600020819080600181540180825580915050600190039060005260206000200160009091909190915090816117999190614e8f565b505050565b826005600082815260200190815260200160002060009054906101000a900460ff166117ff576040517f08c379a00000000000000000000000000000000000000000000000000000000081526004016117f690614fd3565b60405180910390fd5b61180c86868686866125cc565b60006005600086815260200190815260200160002060006101000a81548160ff021916908315150217905550505050505050565b600160009054906101000a900473ffffffffffffffffffffffffffffffffffffffff1673ffffffffffffffffffffffffffffffffffffffff163373ffffffffffffffffffffffffffffffffffffffff16146118d0576040517f08c379a00000000000000000000000000000000000000000000000000000000081526004016118c790614be8565b60405180910390fd5b6002819080600181540180825580915050600190039060005260206000200160009091909190915090816119049190614e8f565b5050565b611910611d9b565b600073ffffffffffffffffffffffffffffffffffffffff168173ffffffffffffffffffffffffffffffffffffffff16036119825760006040517f1e4fbdf700000000000000000000000000000000000000000000000000000000815260040161197991906143fa565b60405180910390fd5b61198b81612321565b50565b6000611998612674565b905060008160000160089054906101000a900460ff1615905060008260000160009054906101000a900467ffffffffffffffff1690506000808267ffffffffffffffff161480156119e65750825b9050600060018367ffffffffffffffff16148015611a1b575060003073ffffffffffffffffffffffffffffffffffffffff163b145b905081158015611a29575080155b15611a60576040517ff92ee8a900000000000000000000000000000000000000000000000000000000815260040160405180910390fd5b60018560000160006101000a81548167ffffffffffffffff021916908367ffffffffffffffff1602179055508315611ab05760018560000160086101000a81548160ff0219169083151502179055505b611ab98661269c565b611ac16126b0565b611aca876126c2565b611ad26126d6565b611ada6126e0565b8560009081611ae9919061504e565b508315611b465760008560000160086101000a81548160ff0219169083151502179055507fc7f505b2f371ae2175ee4913f4499e1f2633a7b5936321eed1cdaeb6115181d26001604051611b3d919061516f565b60405180910390a15b50505050505050565b6060600460008373ffffffffffffffffffffffffffffffffffffffff1673ffffffffffffffffffffffffffffffffffffffff168152602001908152602001600020805480602002602001604051908101604052809291908181526020016000905b82821015611c5c578382906000526020600020018054611bcf90614b45565b80601f0160208091040260200160405190810160405280929190818152602001828054611bfb90614b45565b8015611c485780601f10611c1d57610100808354040283529160200191611c48565b820191906000526020600020905b815481529060010190602001808311611c2b57829003601f168201915b505050505081526020019060010190611bb0565b505050509050919050565b600160009054906101000a900473ffffffffffffffffffffffffffffffffffffffff1673ffffffffffffffffffffffffffffffffffffffff163373ffffffffffffffffffffffffffffffffffffffff1614611cf7576040517f08c379a0000000000000000000000000000000000000000000000000000000008152600401611cee90614be8565b60405180910390fd5b611d03848484846126ea565b50505050565b60007f88be536d5240c274a3b1d3a1be54482fd9caa294f08c62a7cde569f49a3c4500905090565b60007f01ffc9a7000000000000000000000000000000000000000000000000000000007bffffffffffffffffffffffffffffffffffffffffffffffffffffffff1916827bffffffffffffffffffffffffffffffffffffffffffffffffffffffff1916149050919050565b611da3611f62565b73ffffffffffffffffffffffffffffffffffffffff16611dc1610fb5565b73ffffffffffffffffffffffffffffffffffffffff1614611e2057611de4611f62565b6040517f118cdaa7000000000000000000000000000000000000000000000000000000008152600401611e1791906143fa565b60405180910390fd5b565b6000611e2c611d09565b905081816002019081611e3f919061504e565b505050565b60606000611e50612783565b905060008160010160008581526020019081526020016000208054611e7490614b45565b80601f0160208091040260200160405190810160405280929190818152602001828054611ea090614b45565b8015611eed5780601f10611ec257610100808354040283529160200191611eed565b820191906000526020600020905b815481529060010190602001808311611ed057829003601f168201915b505050505090506000815111611f0b57611f06846127ab565b611f31565b8160000181604051602001611f21929190615249565b6040516020818303038152906040525b92505050919050565b60007f4a593662ee04d27b6a00ebb31be7fe0c102c2ade82a7c5d764f2df05dc4e2800905090565b600033905090565b600073ffffffffffffffffffffffffffffffffffffffff168473ffffffffffffffffffffffffffffffffffffffff1603611fdc5760006040517f57f447ce000000000000000000000000000000000000000000000000000000008152600401611fd391906143fa565b60405180910390fd5b600073ffffffffffffffffffffffffffffffffffffffff168573ffffffffffffffffffffffffffffffffffffffff160361204e5760006040517f01a8351400000000000000000000000000000000000000000000000000000000815260040161204591906143fa565b60405180910390fd5b61205b858585858561284e565b5050505050565b600060208202602084010151905092915050565b600060208202602084010151905092915050565b7f000000000000000000000000000000000000000000000000000000000000000073ffffffffffffffffffffffffffffffffffffffff163073ffffffffffffffffffffffffffffffffffffffff16148061213757507f000000000000000000000000000000000000000000000000000000000000000073ffffffffffffffffffffffffffffffffffffffff1661211e612900565b73ffffffffffffffffffffffffffffffffffffffff1614155b1561216e576040517fe07c8dba00000000000000000000000000000000000000000000000000000000815260040160405180910390fd5b565b612178611d9b565b50565b8173ffffffffffffffffffffffffffffffffffffffff166352d1902d6040518163ffffffff1660e01b8152600401602060405180830381865afa9250505080156121e357506040513d601f19601f820116820180604052508101906121e09190615299565b60015b61222457816040517f4c9c8ce300000000000000000000000000000000000000000000000000000000815260040161221b91906143fa565b60405180910390fd5b7f360894a13ba1a3210667c828492db98dca3e2076cc3735a920a3ca505d382bbc60001b811461228b57806040517faa1d49a40000000000000000000000000000000000000000000000000000000081526004016122829190614130565b60405180910390fd5b6122958383612957565b505050565b7f000000000000000000000000000000000000000000000000000000000000000073ffffffffffffffffffffffffffffffffffffffff163073ffffffffffffffffffffffffffffffffffffffff161461231f576040517fe07c8dba00000000000000000000000000000000000000000000000000000000815260040160405180910390fd5b565b600061232b6123f8565b905060008160000160009054906101000a900473ffffffffffffffffffffffffffffffffffffffff169050828260000160006101000a81548173ffffffffffffffffffffffffffffffffffffffff021916908373ffffffffffffffffffffffffffffffffffffffff1602179055508273ffffffffffffffffffffffffffffffffffffffff168173ffffffffffffffffffffffffffffffffffffffff167f8be0079c531659141344cd1fd0a4f28419497f9722a3daafe3b4186f6b6457e060405160405180910390a3505050565b60007f9016d09d72d40fdae2fd8ceac6b6234c7706214fd39c1cd1e609a0528c199300905090565b61242c848484846129ca565b50505050565b600061243c611d09565b9050600073ffffffffffffffffffffffffffffffffffffffff168373ffffffffffffffffffffffffffffffffffffffff16036124b05760006040517fced3e1000000000000000000000000000000000000000000000000000000000081526004016124a791906143fa565b60405180910390fd5b818160010160008673ffffffffffffffffffffffffffffffffffffffff1673ffffffffffffffffffffffffffffffffffffffff16815260200190815260200160002060008573ffffffffffffffffffffffffffffffffffffffff1673ffffffffffffffffffffffffffffffffffffffff16815260200190815260200160002060006101000a81548160ff0219169083151502179055508273ffffffffffffffffffffffffffffffffffffffff168473ffffffffffffffffffffffffffffffffffffffff167f17307eab39ab6107e8899845ad3d59bd9653f200f220920489ca2b5937696c31846040516125a391906139c3565b60405180910390a350505050565b60008180519060200120838051906020012014905092915050565b60006125d6611f62565b90508073ffffffffffffffffffffffffffffffffffffffff168673ffffffffffffffffffffffffffffffffffffffff161415801561261b575061261986826115f6565b155b1561265f5780866040517fe237d922000000000000000000000000000000000000000000000000000000008152600401612656929190614a95565b60405180910390fd5b61266c8686868686612b8a565b505050505050565b60007ff0c57e16840df040f15088dc2f81fe391c3923bec73e23a9662efc9c229c6a00905090565b6126a4612c95565b6126ad81612cd5565b50565b6126b8612c95565b6126c0612ce9565b565b6126ca612c95565b6126d381612d21565b50565b6126de612c95565b565b6126e8612c95565b565b600073ffffffffffffffffffffffffffffffffffffffff168473ffffffffffffffffffffffffffffffffffffffff160361275c5760006040517f57f447ce00000000000000000000000000000000000000000000000000000000815260040161275391906143fa565b60405180910390fd5b6000806127698585612da7565b9150915061277b60008784848761284e565b505050505050565b60007f89fc852226e759c7c636cf34d732f0198fc56a54876b2374a52beb7b0c558600905090565b606060006127b7611d09565b90508060020180546127c890614b45565b80601f01602080910402602001604051908101604052809291908181526020018280546127f490614b45565b80156128415780601f1061281657610100808354040283529160200191612841565b820191906000526020600020905b81548152906001019060200180831161282457829003601f168201915b5050505050915050919050565b61285a85858585612420565b600073ffffffffffffffffffffffffffffffffffffffff168473ffffffffffffffffffffffffffffffffffffffff16146128f9576000612898611f62565b905060018451036128e85760006128b960008661207690919063ffffffff16565b905060006128d160008661207690919063ffffffff16565b90506128e1838989858589612dd7565b50506128f7565b6128f6818787878787612f8b565b5b505b5050505050565b600061292e7f360894a13ba1a3210667c828492db98dca3e2076cc3735a920a3ca505d382bbc60001b61313f565b60000160009054906101000a900473ffffffffffffffffffffffffffffffffffffffff16905090565b61296082613149565b8173ffffffffffffffffffffffffffffffffffffffff167fbc7cd75a20ee27fd9adebab32041f755214dbc6bffa90cc0225b39da2e5c2d3b60405160405180910390a26000815111156129bd576129b78282613216565b506129c6565b6129c561329a565b5b5050565b60006129d4611f3a565b90506129e2858585856132d7565b600073ffffffffffffffffffffffffffffffffffffffff168573ffffffffffffffffffffffffffffffffffffffff1603612ac0576000805b8451811015612aa2576000848281518110612a3857612a37614ae7565b5b6020026020010151905080846000016000888581518110612a5c57612a5b614ae7565b5b602002602001015181526020019081526020016000206000828254612a8191906152f5565b925050819055508083612a9491906152f5565b925050806001019050612a1a565b5080826001016000828254612ab791906152f5565b92505081905550505b600073ffffffffffffffffffffffffffffffffffffffff168473ffffffffffffffffffffffffffffffffffffffff1603612b83576000805b8451811015612b6e576000848281518110612b1657612b15614ae7565b5b6020026020010151905080846000016000888581518110612b3a57612b39614ae7565b5b6020026020010151815260200190815260200160002060008282540392505081905550808301925050806001019050612af8565b50808260010160008282540392505081905550505b5050505050565b600073ffffffffffffffffffffffffffffffffffffffff168473ffffffffffffffffffffffffffffffffffffffff1603612bfc5760006040517f57f447ce000000000000000000000000000000000000000000000000000000008152600401612bf391906143fa565b60405180910390fd5b600073ffffffffffffffffffffffffffffffffffffffff168573ffffffffffffffffffffffffffffffffffffffff1603612c6e5760006040517f01a83514000000000000000000000000000000000000000000000000000000008152600401612c6591906143fa565b60405180910390fd5b600080612c7b8585612da7565b91509150612c8c878784848761284e565b50505050505050565b612c9d613695565b612cd3576040517fd7e6bcf800000000000000000000000000000000000000000000000000000000815260040160405180910390fd5b565b612cdd612c95565b612ce681611e22565b50565b612cf1612c95565b6000612cfb612783565b905060405180602001604052806000815250816000019081612d1d919061504e565b5050565b612d29612c95565b600073ffffffffffffffffffffffffffffffffffffffff168173ffffffffffffffffffffffffffffffffffffffff1603612d9b5760006040517f1e4fbdf7000000000000000000000000000000000000000000000000000000008152600401612d9291906143fa565b60405180910390fd5b612da481612321565b50565b60608060405191506001825283602083015260408201905060018152826020820152604081016040529250929050565b60008473ffffffffffffffffffffffffffffffffffffffff163b1115612f83578373ffffffffffffffffffffffffffffffffffffffff1663f23a6e6187878686866040518663ffffffff1660e01b8152600401612e38959493929190615329565b6020604051808303816000875af1925050508015612e7457506040513d601f19601f82011682018060405250810190612e719190615398565b60015b612ef8573d8060008114612ea4576040519150601f19603f3d011682016040523d82523d6000602084013e612ea9565b606091505b506000815103612ef057846040517f57f447ce000000000000000000000000000000000000000000000000000000008152600401612ee791906143fa565b60405180910390fd5b805181602001fd5b63f23a6e6160e01b7bffffffffffffffffffffffffffffffffffffffffffffffffffffffff1916817bffffffffffffffffffffffffffffffffffffffffffffffffffffffff191614612f8157846040517f57f447ce000000000000000000000000000000000000000000000000000000008152600401612f7891906143fa565b60405180910390fd5b505b505050505050565b60008473ffffffffffffffffffffffffffffffffffffffff163b1115613137578373ffffffffffffffffffffffffffffffffffffffff1663bc197c8187878686866040518663ffffffff1660e01b8152600401612fec9594939291906153c5565b6020604051808303816000875af192505050801561302857506040513d601f19601f820116820180604052508101906130259190615398565b60015b6130ac573d8060008114613058576040519150601f19603f3d011682016040523d82523d6000602084013e61305d565b606091505b5060008151036130a457846040517f57f447ce00000000000000000000000000000000000000000000000000000000815260040161309b91906143fa565b60405180910390fd5b805181602001fd5b63bc197c8160e01b7bffffffffffffffffffffffffffffffffffffffffffffffffffffffff1916817bffffffffffffffffffffffffffffffffffffffffffffffffffffffff19161461313557846040517f57f447ce00000000000000000000000000000000000000000000000000000000815260040161312c91906143fa565b60405180910390fd5b505b505050505050565b6000819050919050565b60008173ffffffffffffffffffffffffffffffffffffffff163b036131a557806040517f4c9c8ce300000000000000000000000000000000000000000000000000000000815260040161319c91906143fa565b60405180910390fd5b806131d27f360894a13ba1a3210667c828492db98dca3e2076cc3735a920a3ca505d382bbc60001b61313f565b60000160006101000a81548173ffffffffffffffffffffffffffffffffffffffff021916908373ffffffffffffffffffffffffffffffffffffffff16021790555050565b60606000808473ffffffffffffffffffffffffffffffffffffffff16846040516132409190614c44565b600060405180830381855af49150503d806000811461327b576040519150601f19603f3d011682016040523d82523d6000602084013e613280565b606091505b50915091506132908583836136b5565b9250505092915050565b60003411156132d5576040517fb398979f00000000000000000000000000000000000000000000000000000000815260040160405180910390fd5b565b60006132e1611d09565b9050815183511461332d57825182516040517f5b059991000000000000000000000000000000000000000000000000000000008152600401613324929190614abe565b60405180910390fd5b6000613337611f62565b905060005b845181101561354f57600061335a828761207690919063ffffffff16565b90506000613371838761207690919063ffffffff16565b9050600073ffffffffffffffffffffffffffffffffffffffff168973ffffffffffffffffffffffffffffffffffffffff16146134a457600085600001600084815260200190815260200160002060008b73ffffffffffffffffffffffffffffffffffffffff1673ffffffffffffffffffffffffffffffffffffffff1681526020019081526020016000205490508181101561344957898183856040517f03dee4c5000000000000000000000000000000000000000000000000000000008152600401613440949392919061542d565b60405180910390fd5b81810386600001600085815260200190815260200160002060008c73ffffffffffffffffffffffffffffffffffffffff1673ffffffffffffffffffffffffffffffffffffffff16815260200190815260200160002081905550505b600073ffffffffffffffffffffffffffffffffffffffff168873ffffffffffffffffffffffffffffffffffffffff1614613542578085600001600084815260200190815260200160002060008a73ffffffffffffffffffffffffffffffffffffffff1673ffffffffffffffffffffffffffffffffffffffff168152602001908152602001600020600082825461353a91906152f5565b925050819055505b505080600101905061333c565b50600184510361360e57600061356f60008661207690919063ffffffff16565b9050600061358760008661207690919063ffffffff16565b90508673ffffffffffffffffffffffffffffffffffffffff168873ffffffffffffffffffffffffffffffffffffffff168473ffffffffffffffffffffffffffffffffffffffff167fc3d58168c5ae7397731d063d5bbf3d657854427343f4c083240f7aacaa2d0f6285856040516135ff929190614abe565b60405180910390a4505061368d565b8473ffffffffffffffffffffffffffffffffffffffff168673ffffffffffffffffffffffffffffffffffffffff168273ffffffffffffffffffffffffffffffffffffffff167f4a39dc06d4c0dbc64b70af90fd698a233a518aa5d07e595d983b8c0526c8f7fb8787604051613684929190615472565b60405180910390a45b505050505050565b600061369f612674565b60000160089054906101000a900460ff16905090565b6060826136ca576136c582613744565b61373c565b600082511480156136f2575060008473ffffffffffffffffffffffffffffffffffffffff163b145b1561373457836040517f9996b31500000000000000000000000000000000000000000000000000000000815260040161372b91906143fa565b60405180910390fd5b81905061373d565b5b9392505050565b6000815111156137575780518082602001fd5b6040517f1425ea4200000000000000000000000000000000000000000000000000000000815260040160405180910390fd5b6040518061016001604052806060815260200160008152602001600081526020016000815260200160008152602001600081526020016000815260200160008152602001600015158152602001600073ffffffffffffffffffffffffffffffffffffffff168152602001600073ffffffffffffffffffffffffffffffffffffffff1681525090565b6000604051905090565b600080fd5b600080fd5b600073ffffffffffffffffffffffffffffffffffffffff82169050919050565b600061385082613825565b9050919050565b61386081613845565b811461386b57600080fd5b50565b60008135905061387d81613857565b92915050565b6000819050919050565b61389681613883565b81146138a157600080fd5b50565b6000813590506138b38161388d565b92915050565b600080604083850312156138d0576138cf61381b565b5b60006138de8582860161386e565b92505060206138ef858286016138a4565b9150509250929050565b61390281613883565b82525050565b600060208201905061391d60008301846138f9565b92915050565b60007fffffffff0000000000000000000000000000000000000000000000000000000082169050919050565b61395881613923565b811461396357600080fd5b50565b6000813590506139758161394f565b92915050565b6000602082840312156139915761399061381b565b5b600061399f84828501613966565b91505092915050565b60008115159050919050565b6139bd816139a8565b82525050565b60006020820190506139d860008301846139b4565b92915050565b600080fd5b600080fd5b6000601f19601f8301169050919050565b7f4e487b7100000000000000000000000000000000000000000000000000000000600052604160045260246000fd5b613a31826139e8565b810181811067ffffffffffffffff82111715613a5057613a4f6139f9565b5b80604052505050565b6000613a63613811565b9050613a6f8282613a28565b919050565b600067ffffffffffffffff821115613a8f57613a8e6139f9565b5b613a98826139e8565b9050602081019050919050565b82818337600083830152505050565b6000613ac7613ac284613a74565b613a59565b905082815260208101848484011115613ae357613ae26139e3565b5b613aee848285613aa5565b509392505050565b600082601f830112613b0b57613b0a6139de565b5b8135613b1b848260208601613ab4565b91505092915050565b600060208284031215613b3a57613b3961381b565b5b600082013567ffffffffffffffff811115613b5857613b57613820565b5b613b6484828501613af6565b91505092915050565b600060208284031215613b8357613b8261381b565b5b6000613b91848285016138a4565b91505092915050565b600081519050919050565b600082825260208201905092915050565b60005b83811015613bd4578082015181840152602081019050613bb9565b60008484015250505050565b6000613beb82613b9a565b613bf58185613ba5565b9350613c05818560208601613bb6565b613c0e816139e8565b840191505092915050565b60006020820190508181036000830152613c338184613be0565b905092915050565b600060208284031215613c5157613c5061381b565b5b6000613c5f8482850161386e565b91505092915050565b600067ffffffffffffffff821115613c8357613c826139f9565b5b602082029050602081019050919050565b600080fd5b6000613cac613ca784613c68565b613a59565b90508083825260208201905060208402830185811115613ccf57613cce613c94565b5b835b81811015613cf85780613ce488826138a4565b845260208401935050602081019050613cd1565b5050509392505050565b600082601f830112613d1757613d166139de565b5b8135613d27848260208601613c99565b91505092915050565b600067ffffffffffffffff821115613d4b57613d4a6139f9565b5b613d54826139e8565b9050602081019050919050565b6000613d74613d6f84613d30565b613a59565b905082815260208101848484011115613d9057613d8f6139e3565b5b613d9b848285613aa5565b509392505050565b600082601f830112613db857613db76139de565b5b8135613dc8848260208601613d61565b91505092915050565b600080600080600060a08688031215613ded57613dec61381b565b5b6000613dfb8882890161386e565b9550506020613e0c8882890161386e565b945050604086013567ffffffffffffffff811115613e2d57613e2c613820565b5b613e3988828901613d02565b935050606086013567ffffffffffffffff811115613e5a57613e59613820565b5b613e6688828901613d02565b925050608086013567ffffffffffffffff811115613e8757613e86613820565b5b613e9388828901613da3565b9150509295509295909350565b600067ffffffffffffffff821115613ebb57613eba6139f9565b5b602082029050602081019050919050565b6000613edf613eda84613ea0565b613a59565b90508083825260208201905060208402830185811115613f0257613f01613c94565b5b835b81811015613f2b5780613f17888261386e565b845260208401935050602081019050613f04565b5050509392505050565b600082601f830112613f4a57613f496139de565b5b8135613f5a848260208601613ecc565b91505092915050565b60008060408385031215613f7a57613f7961381b565b5b600083013567ffffffffffffffff811115613f9857613f97613820565b5b613fa485828601613f35565b925050602083013567ffffffffffffffff811115613fc557613fc4613820565b5b613fd185828601613d02565b9150509250929050565b600081519050919050565b600082825260208201905092915050565b6000819050602082019050919050565b61401081613883565b82525050565b60006140228383614007565b60208301905092915050565b6000602082019050919050565b600061404682613fdb565b6140508185613fe6565b935061405b83613ff7565b8060005b8381101561408c5781516140738882614016565b975061407e8361402e565b92505060018101905061405f565b5085935050505092915050565b600060208201905081810360008301526140b3818461403b565b905092915050565b600080604083850312156140d2576140d161381b565b5b60006140e08582860161386e565b925050602083013567ffffffffffffffff81111561410157614100613820565b5b61410d85828601613da3565b9150509250929050565b6000819050919050565b61412a81614117565b82525050565b60006020820190506141456000830184614121565b92915050565b600081519050919050565b600082825260208201905092915050565b6000819050602082019050919050565b600081519050919050565b600082825260208201905092915050565b600061419e82614177565b6141a88185614182565b93506141b8818560208601613bb6565b6141c1816139e8565b840191505092915050565b60006141d88383614193565b905092915050565b6000602082019050919050565b60006141f88261414b565b6142028185614156565b93508360208202850161421485614167565b8060005b85811015614250578484038952815161423185826141cc565b945061423c836141e0565b925060208a01995050600181019050614218565b50829750879550505050505092915050565b6000602082019050818103600083015261427c81846141ed565b905092915050565b600082825260208201905092915050565b60006142a082614177565b6142aa8185614284565b93506142ba818560208601613bb6565b6142c3816139e8565b840191505092915050565b600060208201905081810360008301526142e88184614295565b905092915050565b6000602082840312156143065761430561381b565b5b600082013567ffffffffffffffff81111561432457614323613820565b5b61433084828501613da3565b91505092915050565b61434281613845565b82525050565b6000610160820190508181036000830152614363818e614295565b9050614372602083018d6138f9565b61437f604083018c6138f9565b61438c606083018b6138f9565b614399608083018a6138f9565b6143a660a08301896138f9565b6143b360c08301886138f9565b6143c060e08301876138f9565b6143ce6101008301866139b4565b6143dc610120830185614339565b6143ea610140830184614339565b9c9b505050505050505050505050565b600060208201905061440f6000830184614339565b92915050565b6000806000806080858703121561442f5761442e61381b565b5b600061443d8782880161386e565b945050602061444e8782880161386e565b935050604085013567ffffffffffffffff81111561446f5761446e613820565b5b61447b87828801613d02565b925050606085013567ffffffffffffffff81111561449c5761449b613820565b5b6144a887828801613d02565b91505092959194509250565b6144bd816139a8565b81146144c857600080fd5b50565b6000813590506144da816144b4565b92915050565b600080604083850312156144f7576144f661381b565b5b60006145058582860161386e565b9250506020614516858286016144cb565b9150509250929050565b614529816139a8565b82525050565b61453881613845565b82525050565b600061016083016000830151848203600086015261455c8282614193565b91505060208301516145716020860182614007565b5060408301516145846040860182614007565b5060608301516145976060860182614007565b5060808301516145aa6080860182614007565b5060a08301516145bd60a0860182614007565b5060c08301516145d060c0860182614007565b5060e08301516145e360e0860182614007565b506101008301516145f8610100860182614520565b5061012083015161460d61012086018261452f565b5061014083015161462261014086018261452f565b508091505092915050565b60006020820190508181036000830152614647818461453e565b905092915050565b600080fd5b600080fd5b600061016082840312156146705761466f61464f565b5b61467b610160613a59565b9050600082013567ffffffffffffffff81111561469b5761469a614654565b5b6146a784828501613da3565b60008301525060206146bb848285016138a4565b60208301525060406146cf848285016138a4565b60408301525060606146e3848285016138a4565b60608301525060806146f7848285016138a4565b60808301525060a061470b848285016138a4565b60a08301525060c061471f848285016138a4565b60c08301525060e0614733848285016138a4565b60e083015250610100614748848285016144cb565b6101008301525061012061475e8482850161386e565b610120830152506101406147748482850161386e565b6101408301525092915050565b600080604083850312156147985761479761381b565b5b600083013567ffffffffffffffff8111156147b6576147b5613820565b5b6147c285828601613da3565b925050602083013567ffffffffffffffff8111156147e3576147e2613820565b5b6147ef85828601614659565b9150509250929050565b6000819050919050565b600061481e61481961481484613825565b6147f9565b613825565b9050919050565b600061483082614803565b9050919050565b600061484282614825565b9050919050565b61485281614837565b82525050565b600060208201905061486d6000830184614849565b92915050565b6000806040838503121561488a5761488961381b565b5b60006148988582860161386e565b92505060206148a98582860161386e565b9150509250929050565b600080600080600060a086880312156148cf576148ce61381b565b5b60006148dd8882890161386e565b95505060206148ee8882890161386e565b94505060406148ff888289016138a4565b9350506060614910888289016138a4565b925050608086013567ffffffffffffffff81111561493157614930613820565b5b61493d88828901613da3565b9150509295509295909350565b600080604083850312156149615761496061381b565b5b600061496f8582860161386e565b925050602083013567ffffffffffffffff8111156149905761498f613820565b5b61499c85828601613af6565b9150509250929050565b600080600080608085870312156149c0576149bf61381b565b5b60006149ce8782880161386e565b94505060206149df878288016138a4565b93505060406149f0878288016138a4565b925050606085013567ffffffffffffffff811115614a1157614a10613820565b5b614a1d87828801613da3565b91505092959194509250565b7f596f7520646f6e2774206f776e2074686973204e465400000000000000000000600082015250565b6000614a5f601683613ba5565b9150614a6a82614a29565b602082019050919050565b60006020820190508181036000830152614a8e81614a52565b9050919050565b6000604082019050614aaa6000830185614339565b614ab76020830184614339565b9392505050565b6000604082019050614ad360008301856138f9565b614ae060208301846138f9565b9392505050565b7f4e487b7100000000000000000000000000000000000000000000000000000000600052603260045260246000fd5b7f4e487b7100000000000000000000000000000000000000000000000000000000600052602260045260246000fd5b60006002820490506001821680614b5d57607f821691505b602082108103614b7057614b6f614b16565b5b50919050565b7f596f7520617265206e6f7420617574686f72697a656420746f2075706461746560008201527f204e465400000000000000000000000000000000000000000000000000000000602082015250565b6000614bd2602483613ba5565b9150614bdd82614b76565b604082019050919050565b60006020820190508181036000830152614c0181614bc5565b9050919050565b600081905092915050565b6000614c1e82614177565b614c288185614c08565b9350614c38818560208601613bb6565b80840191505092915050565b6000614c508284614c13565b915081905092915050565b7f43616e6e6f74206368616e67652074686520636f6d706c65746520636f75727360008201527f6500000000000000000000000000000000000000000000000000000000000000602082015250565b6000614cb7602183613ba5565b9150614cc282614c5b565b604082019050919050565b60006020820190508181036000830152614ce681614caa565b9050919050565b60008190508160005260206000209050919050565b60006020601f8301049050919050565b600082821b905092915050565b600060088302614d4f7fffffffffffffffffffffffffffffffffffffffffffffffffffffffffffffffff82614d12565b614d598683614d12565b95508019841693508086168417925050509392505050565b6000614d8c614d87614d8284613883565b6147f9565b613883565b9050919050565b6000819050919050565b614da683614d71565b614dba614db282614d93565b848454614d1f565b825550505050565b600090565b614dcf614dc2565b614dda818484614d9d565b505050565b5b81811015614dfe57614df3600082614dc7565b600181019050614de0565b5050565b601f821115614e4357614e1481614ced565b614e1d84614d02565b81016020851015614e2c578190505b614e40614e3885614d02565b830182614ddf565b50505b505050565b600082821c905092915050565b6000614e6660001984600802614e48565b1980831691505092915050565b6000614e7f8383614e55565b9150826002028217905092915050565b614e9882614177565b67ffffffffffffffff811115614eb157614eb06139f9565b5b614ebb8254614b45565b614ec6828285614e02565b600060209050601f831160018114614ef95760008415614ee7578287015190505b614ef18582614e73565b865550614f59565b601f198416614f0786614ced565b60005b82811015614f2f57848901518255600182019150602085019450602081019050614f0a565b86831015614f4c5784890151614f48601f891682614e55565b8355505b6001600288020188555050505b505050505050565b7f436f75727365206f776e657273686970207472616e73666572206973206e6f7460008201527f20616c6c6f776564000000000000000000000000000000000000000000000000602082015250565b6000614fbd602883613ba5565b9150614fc882614f61565b604082019050919050565b60006020820190508181036000830152614fec81614fb0565b9050919050565b60008190508160005260206000209050919050565b601f8211156150495761501a81614ff3565b61502384614d02565b81016020851015615032578190505b61504661503e85614d02565b830182614ddf565b50505b505050565b61505782613b9a565b67ffffffffffffffff8111156150705761506f6139f9565b5b61507a8254614b45565b615085828285615008565b600060209050601f8311600181146150b857600084156150a6578287015190505b6150b08582614e73565b865550615118565b601f1984166150c686614ff3565b60005b828110156150ee578489015182556001820191506020850194506020810190506150c9565b8683101561510b5784890151615107601f891682614e55565b8355505b6001600288020188555050505b505050505050565b6000819050919050565b600067ffffffffffffffff82169050919050565b600061515961515461514f84615120565b6147f9565b61512a565b9050919050565b6151698161513e565b82525050565b60006020820190506151846000830184615160565b92915050565b600081905092915050565b600081546151a281614b45565b6151ac818661518a565b945060018216600081146151c757600181146151dc5761520f565b60ff198316865281151582028601935061520f565b6151e585614ff3565b60005b83811015615207578154818901526001820191506020810190506151e8565b838801955050505b50505092915050565b600061522382613b9a565b61522d818561518a565b935061523d818560208601613bb6565b80840191505092915050565b60006152558285615195565b91506152618284615218565b91508190509392505050565b61527681614117565b811461528157600080fd5b50565b6000815190506152938161526d565b92915050565b6000602082840312156152af576152ae61381b565b5b60006152bd84828501615284565b91505092915050565b7f4e487b7100000000000000000000000000000000000000000000000000000000600052601160045260246000fd5b600061530082613883565b915061530b83613883565b9250828201905080821115615323576153226152c6565b5b92915050565b600060a08201905061533e6000830188614339565b61534b6020830187614339565b61535860408301866138f9565b61536560608301856138f9565b81810360808301526153778184614295565b90509695505050505050565b6000815190506153928161394f565b92915050565b6000602082840312156153ae576153ad61381b565b5b60006153bc84828501615383565b91505092915050565b600060a0820190506153da6000830188614339565b6153e76020830187614339565b81810360408301526153f9818661403b565b9050818103606083015261540d818561403b565b905081810360808301526154218184614295565b90509695505050505050565b60006080820190506154426000830187614339565b61544f60208301866138f9565b61545c60408301856138f9565b61546960608301846138f9565b95945050505050565b6000604082019050818103600083015261548c818561403b565b905081810360208301526154a0818461403b565b9050939250505056fea2646970667358221220d3355aed966fc099e677f4266206303b03f77ab7be092fa84a323cce3d88e50464736f6c63430008190033",
  "linkReferences": {},
  "deployedLinkReferences": {}
}