{
  "_format": "hh-sol-artifact-1",
  "contractName": "Course",
  "sourceName": "contracts/V1/Course.sol",
  "abi": [
    {
      "inputs": [],
      "stateMutability": "nonpayable",
      "type": "constructor"
    },
    {
      "inputs": [
        {
          "internalType": "address",
          "name": "target",
          "type": "address"
        }
      ],
      "name": "AddressEmptyCode",
      "type": "error"
    },
    {
      "inputs": [
        {
          "internalType": "address",
          "name": "sender",
          "type": "address"
        },
        {
          "internalType": "uint256",
          "name": "balance",
          "type": "uint256"
        },
        {
          "internalType": "uint256",
          "name": "needed",
          "type": "uint256"
        },
        {
          "internalType": "uint256",
          "name": "tokenId",
          "type": "uint256"
        }
      ],
      "name": "ERC1155InsufficientBalance",
      "type": "error"
    },
    {
      "inputs": [
        {
          "internalType": "address",
          "name": "approver",
          "type": "address"
        }
      ],
      "name": "ERC1155InvalidApprover",
      "type": "error"
    },
    {
      "inputs": [
        {
          "internalType": "uint256",
          "name": "idsLength",
          "type": "uint256"
        },
        {
          "internalType": "uint256",
          "name": "valuesLength",
          "type": "uint256"
        }
      ],
      "name": "ERC1155InvalidArrayLength",
      "type": "error"
    },
    {
      "inputs": [
        {
          "internalType": "address",
          "name": "operator",
          "type": "address"
        }
      ],
      "name": "ERC1155InvalidOperator",
      "type": "error"
    },
    {
      "inputs": [
        {
          "internalType": "address",
          "name": "receiver",
          "type": "address"
        }
      ],
      "name": "ERC1155InvalidReceiver",
      "type": "error"
    },
    {
      "inputs": [
        {
          "internalType": "address",
          "name": "sender",
          "type": "address"
        }
      ],
      "name": "ERC1155InvalidSender",
      "type": "error"
    },
    {
      "inputs": [
        {
          "internalType": "address",
          "name": "operator",
          "type": "address"
        },
        {
          "internalType": "address",
          "name": "owner",
          "type": "address"
        }
      ],
      "name": "ERC1155MissingApprovalForAll",
      "type": "error"
    },
    {
      "inputs": [
        {
          "internalType": "address",
          "name": "implementation",
          "type": "address"
        }
      ],
      "name": "ERC1967InvalidImplementation",
      "type": "error"
    },
    {
      "inputs": [],
      "name": "ERC1967NonPayable",
      "type": "error"
    },
    {
      "inputs": [],
      "name": "FailedInnerCall",
      "type": "error"
    },
    {
      "inputs": [],
      "name": "InvalidInitialization",
      "type": "error"
    },
    {
      "inputs": [],
      "name": "NotInitializing",
      "type": "error"
    },
    {
      "inputs": [
        {
          "internalType": "address",
          "name": "owner",
          "type": "address"
        }
      ],
      "name": "OwnableInvalidOwner",
      "type": "error"
    },
    {
      "inputs": [
        {
          "internalType": "address",
          "name": "account",
          "type": "address"
        }
      ],
      "name": "OwnableUnauthorizedAccount",
      "type": "error"
    },
    {
      "inputs": [],
      "name": "UUPSUnauthorizedCallContext",
      "type": "error"
    },
    {
      "inputs": [
        {
          "internalType": "bytes32",
          "name": "slot",
          "type": "bytes32"
        }
      ],
      "name": "UUPSUnsupportedProxiableUUID",
      "type": "error"
    },
    {
      "anonymous": false,
      "inputs": [
        {
          "indexed": true,
          "internalType": "address",
          "name": "account",
          "type": "address"
        },
        {
          "indexed": true,
          "internalType": "address",
          "name": "operator",
          "type": "address"
        },
        {
          "indexed": false,
          "internalType": "bool",
          "name": "approved",
          "type": "bool"
        }
      ],
      "name": "ApprovalForAll",
      "type": "event"
    },
    {
      "anonymous": false,
      "inputs": [
        {
          "indexed": false,
          "internalType": "uint64",
          "name": "version",
          "type": "uint64"
        }
      ],
      "name": "Initialized",
      "type": "event"
    },
    {
      "anonymous": false,
      "inputs": [
        {
          "indexed": true,
          "internalType": "address",
          "name": "previousOwner",
          "type": "address"
        },
        {
          "indexed": true,
          "internalType": "address",
          "name": "newOwner",
          "type": "address"
        }
      ],
      "name": "OwnershipTransferred",
      "type": "event"
    },
    {
      "anonymous": false,
      "inputs": [
        {
          "indexed": true,
          "internalType": "address",
          "name": "operator",
          "type": "address"
        },
        {
          "indexed": true,
          "internalType": "address",
          "name": "from",
          "type": "address"
        },
        {
          "indexed": true,
          "internalType": "address",
          "name": "to",
          "type": "address"
        },
        {
          "indexed": false,
          "internalType": "uint256[]",
          "name": "ids",
          "type": "uint256[]"
        },
        {
          "indexed": false,
          "internalType": "uint256[]",
          "name": "values",
          "type": "uint256[]"
        }
      ],
      "name": "TransferBatch",
      "type": "event"
    },
    {
      "anonymous": false,
      "inputs": [
        {
          "indexed": true,
          "internalType": "address",
          "name": "operator",
          "type": "address"
        },
        {
          "indexed": true,
          "internalType": "address",
          "name": "from",
          "type": "address"
        },
        {
          "indexed": true,
          "internalType": "address",
          "name": "to",
          "type": "address"
        },
        {
          "indexed": false,
          "internalType": "uint256",
          "name": "id",
          "type": "uint256"
        },
        {
          "indexed": false,
          "internalType": "uint256",
          "name": "value",
          "type": "uint256"
        }
      ],
      "name": "TransferSingle",
      "type": "event"
    },
    {
      "anonymous": false,
      "inputs": [
        {
          "indexed": false,
          "internalType": "string",
          "name": "value",
          "type": "string"
        },
        {
          "indexed": true,
          "internalType": "uint256",
          "name": "id",
          "type": "uint256"
        }
      ],
      "name": "URI",
      "type": "event"
    },
    {
      "anonymous": false,
      "inputs": [
        {
          "indexed": true,
          "internalType": "address",
          "name": "implementation",
          "type": "address"
        }
      ],
      "name": "Upgraded",
      "type": "event"
    },
    {
      "inputs": [],
      "name": "Marketplace",
      "outputs": [
        {
          "internalType": "contract Market",
          "name": "",
          "type": "address"
        }
      ],
      "stateMutability": "view",
      "type": "function"
    },
    {
      "inputs": [],
      "name": "UPGRADE_INTERFACE_VERSION",
      "outputs": [
        {
          "internalType": "string",
          "name": "",
          "type": "string"
        }
      ],
      "stateMutability": "view",
      "type": "function"
    },
    {
      "inputs": [
        {
          "internalType": "address",
          "name": "_user",
          "type": "address"
        },
        {
          "internalType": "bytes",
          "name": "_courses",
          "type": "bytes"
        }
      ],
      "name": "addUserCourse",
      "outputs": [],
      "stateMutability": "nonpayable",
      "type": "function"
    },
    {
      "inputs": [
        {
          "internalType": "uint256",
          "name": "",
          "type": "uint256"
        }
      ],
      "name": "allowNftTransfer",
      "outputs": [
        {
          "internalType": "bool",
          "name": "",
          "type": "bool"
        }
      ],
      "stateMutability": "view",
      "type": "function"
    },
    {
      "inputs": [
        {
          "internalType": "address",
          "name": "account",
          "type": "address"
        },
        {
          "internalType": "uint256",
          "name": "id",
          "type": "uint256"
        }
      ],
      "name": "balanceOf",
      "outputs": [
        {
          "internalType": "uint256",
          "name": "",
          "type": "uint256"
        }
      ],
      "stateMutability": "view",
      "type": "function"
    },
    {
      "inputs": [
        {
          "internalType": "address[]",
          "name": "accounts",
          "type": "address[]"
        },
        {
          "internalType": "uint256[]",
          "name": "ids",
          "type": "uint256[]"
        }
      ],
      "name": "balanceOfBatch",
      "outputs": [
        {
          "internalType": "uint256[]",
          "name": "",
          "type": "uint256[]"
        }
      ],
      "stateMutability": "view",
      "type": "function"
    },
    {
      "inputs": [
        {
          "internalType": "bytes",
          "name": "",
          "type": "bytes"
        }
      ],
      "name": "courses",
      "outputs": [
        {
          "internalType": "bytes",
          "name": "courseId",
          "type": "bytes"
        },
        {
          "internalType": "uint256",
          "name": "id",
          "type": "uint256"
        },
        {
          "internalType": "string",
          "name": "dbId",
          "type": "string"
        },
        {
          "internalType": "uint256",
          "name": "courseNumber",
          "type": "uint256"
        },
        {
          "internalType": "uint256",
          "name": "price",
          "type": "uint256"
        },
        {
          "internalType": "uint256",
          "name": "duration",
          "type": "uint256"
        },
        {
          "internalType": "uint256",
          "name": "recommendedDuration",
          "type": "uint256"
        },
        {
          "internalType": "uint256",
          "name": "startTime",
          "type": "uint256"
        },
        {
          "internalType": "uint256",
          "name": "pausedTime",
          "type": "uint256"
        },
        {
          "internalType": "bool",
          "name": "isListed",
          "type": "bool"
        },
        {
          "internalType": "address",
          "name": "holder",
          "type": "address"
        },
        {
          "internalType": "address",
          "name": "secondHolder",
          "type": "address"
        }
      ],
      "stateMutability": "view",
      "type": "function"
    },
    {
      "inputs": [
        {
          "internalType": "uint256",
          "name": "id",
          "type": "uint256"
        }
      ],
      "name": "exists",
      "outputs": [
        {
          "internalType": "bool",
          "name": "",
          "type": "bool"
        }
      ],
      "stateMutability": "view",
      "type": "function"
    },
    {
      "inputs": [
        {
          "internalType": "bytes",
          "name": "_id",
          "type": "bytes"
        }
      ],
      "name": "getCourseDetails",
      "outputs": [
        {
          "components": [
            {
              "internalType": "bytes",
              "name": "courseId",
              "type": "bytes"
            },
            {
              "internalType": "uint256",
              "name": "id",
              "type": "uint256"
            },
            {
              "internalType": "string",
              "name": "dbId",
              "type": "string"
            },
            {
              "internalType": "uint256",
              "name": "courseNumber",
              "type": "uint256"
            },
            {
              "internalType": "uint256",
              "name": "price",
              "type": "uint256"
            },
            {
              "internalType": "uint256",
              "name": "duration",
              "type": "uint256"
            },
            {
              "internalType": "uint256",
              "name": "recommendedDuration",
              "type": "uint256"
            },
            {
              "internalType": "uint256",
              "name": "startTime",
              "type": "uint256"
            },
            {
              "internalType": "uint256",
              "name": "pausedTime",
              "type": "uint256"
            },
            {
              "internalType": "bool",
              "name": "isListed",
              "type": "bool"
            },
            {
              "internalType": "address",
              "name": "holder",
              "type": "address"
            },
            {
              "internalType": "address",
              "name": "secondHolder",
              "type": "address"
            }
          ],
          "internalType": "struct ICourse.Course",
          "name": "",
          "type": "tuple"
        }
      ],
      "stateMutability": "view",
      "type": "function"
    },
    {
      "inputs": [],
      "name": "getListOfCourses",
      "outputs": [
        {
          "internalType": "bytes[]",
          "name": "",
          "type": "bytes[]"
        }
      ],
      "stateMutability": "view",
      "type": "function"
    },
    {
      "inputs": [
        {
          "internalType": "address",
          "name": "_user",
          "type": "address"
        }
      ],
      "name": "getUserCourse",
      "outputs": [
        {
          "internalType": "bytes[]",
          "name": "",
          "type": "bytes[]"
        }
      ],
      "stateMutability": "view",
      "type": "function"
    },
    {
      "inputs": [
        {
          "internalType": "address",
          "name": "initialOwner",
          "type": "address"
        },
        {
          "internalType": "string",
          "name": "_baseURI",
          "type": "string"
        }
      ],
      "name": "initialize",
      "outputs": [],
      "stateMutability": "nonpayable",
      "type": "function"
    },
    {
      "inputs": [
        {
          "internalType": "address",
          "name": "account",
          "type": "address"
        },
        {
          "internalType": "address",
          "name": "operator",
          "type": "address"
        }
      ],
      "name": "isApprovedForAll",
      "outputs": [
        {
          "internalType": "bool",
          "name": "",
          "type": "bool"
        }
      ],
      "stateMutability": "view",
      "type": "function"
    },
    {
      "inputs": [
        {
          "internalType": "uint256",
          "name": "",
          "type": "uint256"
        }
      ],
      "name": "listOfCourses",
      "outputs": [
        {
          "internalType": "bytes",
          "name": "",
          "type": "bytes"
        }
      ],
      "stateMutability": "view",
      "type": "function"
    },
    {
      "inputs": [
        {
          "internalType": "address",
          "name": "to",
          "type": "address"
        },
        {
          "internalType": "uint256",
          "name": "id",
          "type": "uint256"
        },
        {
          "internalType": "uint256",
          "name": "value",
          "type": "uint256"
        },
        {
          "internalType": "bytes",
          "name": "data",
          "type": "bytes"
        }
      ],
      "name": "mintFromMarket",
      "outputs": [],
      "stateMutability": "nonpayable",
      "type": "function"
    },
    {
      "inputs": [],
      "name": "owner",
      "outputs": [
        {
          "internalType": "address",
          "name": "",
          "type": "address"
        }
      ],
      "stateMutability": "view",
      "type": "function"
    },
    {
      "inputs": [],
      "name": "proxiableUUID",
      "outputs": [
        {
          "internalType": "bytes32",
          "name": "",
          "type": "bytes32"
        }
      ],
      "stateMutability": "view",
      "type": "function"
    },
    {
      "inputs": [],
      "name": "renounceOwnership",
      "outputs": [],
      "stateMutability": "nonpayable",
      "type": "function"
    },
    {
      "inputs": [
        {
          "internalType": "address",
          "name": "from",
          "type": "address"
        },
        {
          "internalType": "address",
          "name": "to",
          "type": "address"
        },
        {
          "internalType": "uint256[]",
          "name": "ids",
          "type": "uint256[]"
        },
        {
          "internalType": "uint256[]",
          "name": "values",
          "type": "uint256[]"
        },
        {
          "internalType": "bytes",
          "name": "data",
          "type": "bytes"
        }
      ],
      "name": "safeBatchTransferFrom",
      "outputs": [],
      "stateMutability": "nonpayable",
      "type": "function"
    },
    {
      "inputs": [
        {
          "internalType": "address",
          "name": "from",
          "type": "address"
        },
        {
          "internalType": "address",
          "name": "to",
          "type": "address"
        },
        {
          "internalType": "uint256",
          "name": "id",
          "type": "uint256"
        },
        {
          "internalType": "uint256",
          "name": "value",
          "type": "uint256"
        },
        {
          "internalType": "bytes",
          "name": "data",
          "type": "bytes"
        }
      ],
      "name": "safeTransferFrom",
      "outputs": [],
      "stateMutability": "nonpayable",
      "type": "function"
    },
    {
      "inputs": [
        {
          "internalType": "uint256",
          "name": "id",
          "type": "uint256"
        }
      ],
      "name": "setAllowTransfer",
      "outputs": [],
      "stateMutability": "nonpayable",
      "type": "function"
    },
    {
      "inputs": [
        {
          "internalType": "address",
          "name": "operator",
          "type": "address"
        },
        {
          "internalType": "bool",
          "name": "approved",
          "type": "bool"
        }
      ],
      "name": "setApprovalForAll",
      "outputs": [],
      "stateMutability": "nonpayable",
      "type": "function"
    },
    {
      "inputs": [
        {
          "internalType": "bytes",
          "name": "_id",
          "type": "bytes"
        },
        {
          "components": [
            {
              "internalType": "bytes",
              "name": "courseId",
              "type": "bytes"
            },
            {
              "internalType": "uint256",
              "name": "id",
              "type": "uint256"
            },
            {
              "internalType": "string",
              "name": "dbId",
              "type": "string"
            },
            {
              "internalType": "uint256",
              "name": "courseNumber",
              "type": "uint256"
            },
            {
              "internalType": "uint256",
              "name": "price",
              "type": "uint256"
            },
            {
              "internalType": "uint256",
              "name": "duration",
              "type": "uint256"
            },
            {
              "internalType": "uint256",
              "name": "recommendedDuration",
              "type": "uint256"
            },
            {
              "internalType": "uint256",
              "name": "startTime",
              "type": "uint256"
            },
            {
              "internalType": "uint256",
              "name": "pausedTime",
              "type": "uint256"
            },
            {
              "internalType": "bool",
              "name": "isListed",
              "type": "bool"
            },
            {
              "internalType": "address",
              "name": "holder",
              "type": "address"
            },
            {
              "internalType": "address",
              "name": "secondHolder",
              "type": "address"
            }
          ],
          "internalType": "struct ICourse.Course",
          "name": "course",
          "type": "tuple"
        }
      ],
      "name": "setCourseDetails",
      "outputs": [],
      "stateMutability": "nonpayable",
      "type": "function"
    },
    {
      "inputs": [
        {
          "internalType": "bytes",
          "name": "_courseId",
          "type": "bytes"
        }
      ],
      "name": "setListOfCourses",
      "outputs": [],
      "stateMutability": "nonpayable",
      "type": "function"
    },
    {
      "inputs": [
        {
          "internalType": "address",
          "name": "contractAddress",
          "type": "address"
        }
      ],
      "name": "setMarketplaceContract",
      "outputs": [],
      "stateMutability": "nonpayable",
      "type": "function"
    },
    {
      "inputs": [
        {
          "internalType": "string",
          "name": "newuri",
          "type": "string"
        }
      ],
      "name": "setURI",
      "outputs": [],
      "stateMutability": "nonpayable",
      "type": "function"
    },
    {
      "inputs": [
        {
          "internalType": "bytes4",
          "name": "interfaceId",
          "type": "bytes4"
        }
      ],
      "name": "supportsInterface",
      "outputs": [
        {
          "internalType": "bool",
          "name": "",
          "type": "bool"
        }
      ],
      "stateMutability": "view",
      "type": "function"
    },
    {
      "inputs": [],
      "name": "totalSupply",
      "outputs": [
        {
          "internalType": "uint256",
          "name": "",
          "type": "uint256"
        }
      ],
      "stateMutability": "view",
      "type": "function"
    },
    {
      "inputs": [
        {
          "internalType": "uint256",
          "name": "id",
          "type": "uint256"
        }
      ],
      "name": "totalSupply",
      "outputs": [
        {
          "internalType": "uint256",
          "name": "",
          "type": "uint256"
        }
      ],
      "stateMutability": "view",
      "type": "function"
    },
    {
      "inputs": [
        {
          "internalType": "address",
          "name": "newOwner",
          "type": "address"
        }
      ],
      "name": "transferOwnership",
      "outputs": [],
      "stateMutability": "nonpayable",
      "type": "function"
    },
    {
      "inputs": [
        {
          "internalType": "address",
          "name": "from",
          "type": "address"
        },
        {
          "internalType": "address",
          "name": "to",
          "type": "address"
        },
        {
          "internalType": "uint256[]",
          "name": "ids",
          "type": "uint256[]"
        },
        {
          "internalType": "uint256[]",
          "name": "values",
          "type": "uint256[]"
        }
      ],
      "name": "updateFromMarket",
      "outputs": [],
      "stateMutability": "nonpayable",
      "type": "function"
    },
    {
      "inputs": [
        {
          "internalType": "address",
          "name": "newImplementation",
          "type": "address"
        },
        {
          "internalType": "bytes",
          "name": "data",
          "type": "bytes"
        }
      ],
      "name": "upgradeToAndCall",
      "outputs": [],
      "stateMutability": "payable",
      "type": "function"
    },
    {
      "inputs": [
        {
          "internalType": "uint256",
          "name": "id",
          "type": "uint256"
        }
      ],
      "name": "uri",
      "outputs": [
        {
          "internalType": "string",
          "name": "tokenUri",
          "type": "string"
        }
      ],
      "stateMutability": "view",
      "type": "function"
    },
    {
      "inputs": [
        {
          "internalType": "address",
          "name": "",
          "type": "address"
        },
        {
          "internalType": "uint256",
          "name": "",
          "type": "uint256"
        }
      ],
      "name": "userCourses",
      "outputs": [
        {
          "internalType": "bytes",
          "name": "",
          "type": "bytes"
        }
      ],
      "stateMutability": "view",
      "type": "function"
    }
  ],
  "bytecode": "0x60a06040523073ffffffffffffffffffffffffffffffffffffffff1660809073ffffffffffffffffffffffffffffffffffffffff1681525034801561004357600080fd5b5061005261005760201b60201c565b6101c1565b600061006761015b60201b60201c565b90508060000160089054906101000a900460ff16156100b2576040517ff92ee8a900000000000000000000000000000000000000000000000000000000815260040160405180910390fd5b67ffffffffffffffff80168160000160009054906101000a900467ffffffffffffffff1667ffffffffffffffff16146101585767ffffffffffffffff8160000160006101000a81548167ffffffffffffffff021916908367ffffffffffffffff1602179055507fc7f505b2f371ae2175ee4913f4499e1f2633a7b5936321eed1cdaeb6115181d267ffffffffffffffff60405161014f91906101a6565b60405180910390a15b50565b60007ff0c57e16840df040f15088dc2f81fe391c3923bec73e23a9662efc9c229c6a00905090565b600067ffffffffffffffff82169050919050565b6101a081610183565b82525050565b60006020820190506101bb6000830184610197565b92915050565b6080516156cc6101ea600039600081816121c40152818161221901526123d401526156cc6000f3fe6080604052600436106101f85760003560e01c806393a05c201161010d578063e985e9c5116100a0578063f2fde38b1161006f578063f2fde38b1461078a578063f399e22e146107b3578063f4a4513a146107dc578063fb9812fc14610819578063fe87cd8114610842576101f8565b8063e985e9c5146106d2578063f17877821461070f578063f242432a14610738578063f2af91af14610761576101f8565b8063b199fa71116100dc578063b199fa71146105f0578063bd85b0391461062d578063d1ead4da1461066a578063dddb8556146106a7576101f8565b806393a05c20146105365780639ecfc1b614610573578063a22cb4651461059c578063ad3cb1cc146105c5576101f8565b80634e1273f4116101905780636e4651021161015f5780636e465102146104445780636fdb67f71461046f578063715018a6146104ac5780638573f501146104c35780638da5cb5b1461050b576101f8565b80634e1273f4146103835780634f1ef286146103c05780634f558e79146103dc57806352d1902d14610419576101f8565b80630e89341c116101cc5780630e89341c146102c95780631102610e1461030657806318160ddd1461032f5780632eb2c2d61461035a576101f8565b8062fdd58e146101fd57806301ffc9a71461023a57806302fe530514610277578063087e349d146102a0575b600080fd5b34801561020957600080fd5b50610224600480360381019061021f91906139f8565b61086b565b6040516102319190613a47565b60405180910390f35b34801561024657600080fd5b50610261600480360381019061025c9190613aba565b6108d4565b60405161026e9190613b02565b60405180910390f35b34801561028357600080fd5b5061029e60048036038101906102999190613c63565b6109b6565b005b3480156102ac57600080fd5b506102c760048036038101906102c29190613cac565b6109ca565b005b3480156102d557600080fd5b506102f060048036038101906102eb9190613cac565b610a45565b6040516102fd9190613d58565b60405180910390f35b34801561031257600080fd5b5061032d60048036038101906103289190613d7a565b610a5d565b005b34801561033b57600080fd5b50610344610aa9565b6040516103519190613a47565b60405180910390f35b34801561036657600080fd5b50610381600480360381019061037c9190613f10565b610ac1565b005b34801561038f57600080fd5b506103aa60048036038101906103a591906140a2565b610b69565b6040516103b791906141d8565b60405180910390f35b6103da60048036038101906103d591906141fa565b610c72565b005b3480156103e857600080fd5b5061040360048036038101906103fe9190613cac565b610c91565b6040516104109190613b02565b60405180910390f35b34801561042557600080fd5b5061042e610ca5565b60405161043b919061426f565b60405180910390f35b34801561045057600080fd5b50610459610cd8565b60405161046691906143a1565b60405180910390f35b34801561047b57600080fd5b5061049660048036038101906104919190613cac565b610db1565b6040516104a3919061440d565b60405180910390f35b3480156104b857600080fd5b506104c1610e5d565b005b3480156104cf57600080fd5b506104ea60048036038101906104e5919061442f565b610e71565b6040516105029c9b9a99989796959493929190614487565b60405180910390f35b34801561051757600080fd5b50610520611044565b60405161052d919061454f565b60405180910390f35b34801561054257600080fd5b5061055d600480360381019061055891906139f8565b61107c565b60405161056a919061440d565b60405180910390f35b34801561057f57600080fd5b5061059a6004803603810190610595919061456a565b611135565b005b3480156105a857600080fd5b506105c360048036038101906105be9190614635565b6111d7565b005b3480156105d157600080fd5b506105da6111ed565b6040516105e79190613d58565b60405180910390f35b3480156105fc57600080fd5b506106176004803603810190610612919061442f565b611226565b60405161062491906147e8565b60405180910390f35b34801561063957600080fd5b50610654600480360381019061064f9190613cac565b611496565b6040516106619190613a47565b60405180910390f35b34801561067657600080fd5b50610691600480360381019061068c9190613cac565b6114c1565b60405161069e9190613b02565b60405180910390f35b3480156106b357600080fd5b506106bc6114e1565b6040516106c99190614869565b60405180910390f35b3480156106de57600080fd5b506106f960048036038101906106f49190614884565b611507565b6040516107069190613b02565b60405180910390f35b34801561071b57600080fd5b50610736600480360381019061073191906141fa565b6115a9565b005b34801561074457600080fd5b5061075f600480360381019061075a91906148c4565b6116af565b005b34801561076d57600080fd5b506107886004803603810190610783919061442f565b611751565b005b34801561079657600080fd5b506107b160048036038101906107ac9190613d7a565b611819565b005b3480156107bf57600080fd5b506107da60048036038101906107d5919061495b565b61189f565b005b3480156107e857600080fd5b5061080360048036038101906107fe9190613d7a565b611a60565b60405161081091906143a1565b60405180910390f35b34801561082557600080fd5b50610840600480360381019061083b91906149b7565b611b78565b005b34801561084e57600080fd5b5061086960048036038101906108649190614b9e565b611c1a565b005b600080610876611e41565b905080600001600084815260200190815260200160002060008573ffffffffffffffffffffffffffffffffffffffff1673ffffffffffffffffffffffffffffffffffffffff1681526020019081526020016000205491505092915050565b60007fd9b67a26000000000000000000000000000000000000000000000000000000007bffffffffffffffffffffffffffffffffffffffffffffffffffffffff1916827bffffffffffffffffffffffffffffffffffffffffffffffffffffffff1916148061099f57507f0e89341c000000000000000000000000000000000000000000000000000000007bffffffffffffffffffffffffffffffffffffffffffffffffffffffff1916827bffffffffffffffffffffffffffffffffffffffffffffffffffffffff1916145b806109af57506109ae82611e69565b5b9050919050565b6109be611ed3565b6109c781611f5a565b50565b60006109d6338361086b565b11610a16576040517f08c379a0000000000000000000000000000000000000000000000000000000008152600401610a0d90614c62565b60405180910390fd5b60016005600083815260200190815260200160002060006101000a81548160ff02191690831515021790555050565b60606000610a5283611f7c565b905080915050919050565b610a65611ed3565b80600160006101000a81548173ffffffffffffffffffffffffffffffffffffffff021916908373ffffffffffffffffffffffffffffffffffffffff16021790555050565b600080610ab4612072565b9050806001015491505090565b6000610acb61209a565b90508073ffffffffffffffffffffffffffffffffffffffff168673ffffffffffffffffffffffffffffffffffffffff1614158015610b105750610b0e8682611507565b155b15610b545780866040517fe237d922000000000000000000000000000000000000000000000000000000008152600401610b4b929190614c82565b60405180910390fd5b610b6186868686866120a2565b505050505050565b60608151835114610bb557815183516040517f5b059991000000000000000000000000000000000000000000000000000000008152600401610bac929190614cab565b60405180910390fd5b6000835167ffffffffffffffff811115610bd257610bd1613b38565b5b604051908082528060200260200182016040528015610c005781602001602082028036833780820191505090505b50905060005b8451811015610c6757610c3d610c25828761219a90919063ffffffff16565b610c3883876121ae90919063ffffffff16565b61086b565b828281518110610c5057610c4f614cd4565b5b602002602001018181525050806001019050610c06565b508091505092915050565b610c7a6121c2565b610c83826122a8565b610c8d82826122b3565b5050565b600080610c9d83611496565b119050919050565b6000610caf6123d2565b7f360894a13ba1a3210667c828492db98dca3e2076cc3735a920a3ca505d382bbc60001b905090565b60606002805480602002602001604051908101604052809291908181526020016000905b82821015610da8578382906000526020600020018054610d1b90614d32565b80601f0160208091040260200160405190810160405280929190818152602001828054610d4790614d32565b8015610d945780601f10610d6957610100808354040283529160200191610d94565b820191906000526020600020905b815481529060010190602001808311610d7757829003601f168201915b505050505081526020019060010190610cfc565b50505050905090565b60028181548110610dc157600080fd5b906000526020600020016000915090508054610ddc90614d32565b80601f0160208091040260200160405190810160405280929190818152602001828054610e0890614d32565b8015610e555780601f10610e2a57610100808354040283529160200191610e55565b820191906000526020600020905b815481529060010190602001808311610e3857829003601f168201915b505050505081565b610e65611ed3565b610e6f6000612459565b565b600381805160208101820180518482526020830160208501208183528095505050505050600091509050806000018054610eaa90614d32565b80601f0160208091040260200160405190810160405280929190818152602001828054610ed690614d32565b8015610f235780601f10610ef857610100808354040283529160200191610f23565b820191906000526020600020905b815481529060010190602001808311610f0657829003601f168201915b505050505090806001015490806002018054610f3e90614d32565b80601f0160208091040260200160405190810160405280929190818152602001828054610f6a90614d32565b8015610fb75780601f10610f8c57610100808354040283529160200191610fb7565b820191906000526020600020905b815481529060010190602001808311610f9a57829003601f168201915b5050505050908060030154908060040154908060050154908060060154908060070154908060080154908060090160009054906101000a900460ff16908060090160019054906101000a900473ffffffffffffffffffffffffffffffffffffffff169080600a0160009054906101000a900473ffffffffffffffffffffffffffffffffffffffff1690508c565b60008061104f612530565b90508060000160009054906101000a900473ffffffffffffffffffffffffffffffffffffffff1691505090565b6004602052816000526040600020818154811061109857600080fd5b906000526020600020016000915091505080546110b490614d32565b80601f01602080910402602001604051908101604052809291908181526020018280546110e090614d32565b801561112d5780601f106111025761010080835404028352916020019161112d565b820191906000526020600020905b81548152906001019060200180831161111057829003601f168201915b505050505081565b600160009054906101000a900473ffffffffffffffffffffffffffffffffffffffff1673ffffffffffffffffffffffffffffffffffffffff163373ffffffffffffffffffffffffffffffffffffffff16146111c5576040517f08c379a00000000000000000000000000000000000000000000000000000000081526004016111bc90614dd5565b60405180910390fd5b6111d184848484612558565b50505050565b6111e96111e261209a565b838361256a565b5050565b6040518060400160405280600581526020017f352e302e3000000000000000000000000000000000000000000000000000000081525081565b61122e6138c1565b60006003836040516112409190614e31565b90815260200160405180910390206040518061018001604052908160008201805461126a90614d32565b80601f016020809104026020016040519081016040528092919081815260200182805461129690614d32565b80156112e35780601f106112b8576101008083540402835291602001916112e3565b820191906000526020600020905b8154815290600101906020018083116112c657829003601f168201915b505050505081526020016001820154815260200160028201805461130690614d32565b80601f016020809104026020016040519081016040528092919081815260200182805461133290614d32565b801561137f5780601f106113545761010080835404028352916020019161137f565b820191906000526020600020905b81548152906001019060200180831161136257829003601f168201915b505050505081526020016003820154815260200160048201548152602001600582015481526020016006820154815260200160078201548152602001600882015481526020016009820160009054906101000a900460ff161515151581526020016009820160019054906101000a900473ffffffffffffffffffffffffffffffffffffffff1673ffffffffffffffffffffffffffffffffffffffff1673ffffffffffffffffffffffffffffffffffffffff168152602001600a820160009054906101000a900473ffffffffffffffffffffffffffffffffffffffff1673ffffffffffffffffffffffffffffffffffffffff1673ffffffffffffffffffffffffffffffffffffffff1681525050905080915050919050565b6000806114a1612072565b905080600001600084815260200190815260200160002054915050919050565b60056020528060005260406000206000915054906101000a900460ff1681565b600160009054906101000a900473ffffffffffffffffffffffffffffffffffffffff1681565b600080611512611e41565b90508060010160008573ffffffffffffffffffffffffffffffffffffffff1673ffffffffffffffffffffffffffffffffffffffff16815260200190815260200160002060008473ffffffffffffffffffffffffffffffffffffffff1673ffffffffffffffffffffffffffffffffffffffff16815260200190815260200160002060009054906101000a900460ff1691505092915050565b600160009054906101000a900473ffffffffffffffffffffffffffffffffffffffff1673ffffffffffffffffffffffffffffffffffffffff163373ffffffffffffffffffffffffffffffffffffffff1614611639576040517f08c379a000000000000000000000000000000000000000000000000000000000815260040161163090614dd5565b60405180910390fd5b600460008373ffffffffffffffffffffffffffffffffffffffff1673ffffffffffffffffffffffffffffffffffffffff168152602001908152602001600020819080600181540180825580915050600190039060005260206000200160009091909190915090816116aa9190614fea565b505050565b826005600082815260200190815260200160002060009054906101000a900460ff16611710576040517f08c379a00000000000000000000000000000000000000000000000000000000081526004016117079061512e565b60405180910390fd5b61171d86868686866126e9565b60006005600086815260200190815260200160002060006101000a81548160ff021916908315150217905550505050505050565b600160009054906101000a900473ffffffffffffffffffffffffffffffffffffffff1673ffffffffffffffffffffffffffffffffffffffff163373ffffffffffffffffffffffffffffffffffffffff16146117e1576040517f08c379a00000000000000000000000000000000000000000000000000000000081526004016117d890614dd5565b60405180910390fd5b6002819080600181540180825580915050600190039060005260206000200160009091909190915090816118159190614fea565b5050565b611821611ed3565b600073ffffffffffffffffffffffffffffffffffffffff168173ffffffffffffffffffffffffffffffffffffffff16036118935760006040517f1e4fbdf700000000000000000000000000000000000000000000000000000000815260040161188a919061454f565b60405180910390fd5b61189c81612459565b50565b60006118a9612791565b905060008160000160089054906101000a900460ff1615905060008260000160009054906101000a900467ffffffffffffffff1690506000808267ffffffffffffffff161480156118f75750825b9050600060018367ffffffffffffffff1614801561192c575060003073ffffffffffffffffffffffffffffffffffffffff163b145b90508115801561193a575080155b15611971576040517ff92ee8a900000000000000000000000000000000000000000000000000000000815260040160405180910390fd5b60018560000160006101000a81548167ffffffffffffffff021916908367ffffffffffffffff16021790555083156119c15760018560000160086101000a81548160ff0219169083151502179055505b6119ca866127b9565b6119d26127cd565b6119db876127df565b6119e36127f3565b6119eb6127fd565b85600090816119fa91906151a9565b508315611a575760008560000160086101000a81548160ff0219169083151502179055507fc7f505b2f371ae2175ee4913f4499e1f2633a7b5936321eed1cdaeb6115181d26001604051611a4e91906152ca565b60405180910390a15b50505050505050565b6060600460008373ffffffffffffffffffffffffffffffffffffffff1673ffffffffffffffffffffffffffffffffffffffff168152602001908152602001600020805480602002602001604051908101604052809291908181526020016000905b82821015611b6d578382906000526020600020018054611ae090614d32565b80601f0160208091040260200160405190810160405280929190818152602001828054611b0c90614d32565b8015611b595780601f10611b2e57610100808354040283529160200191611b59565b820191906000526020600020905b815481529060010190602001808311611b3c57829003601f168201915b505050505081526020019060010190611ac1565b505050509050919050565b600160009054906101000a900473ffffffffffffffffffffffffffffffffffffffff1673ffffffffffffffffffffffffffffffffffffffff163373ffffffffffffffffffffffffffffffffffffffff1614611c08576040517f08c379a0000000000000000000000000000000000000000000000000000000008152600401611bff90614dd5565b60405180910390fd5b611c1484848484612807565b50505050565b600160009054906101000a900473ffffffffffffffffffffffffffffffffffffffff1673ffffffffffffffffffffffffffffffffffffffff163373ffffffffffffffffffffffffffffffffffffffff1614611caa576040517f08c379a0000000000000000000000000000000000000000000000000000000008152600401611ca190614dd5565b60405180910390fd5b611cb88282600001516128a0565b611cf7576040517f08c379a0000000000000000000000000000000000000000000000000000000008152600401611cee90615357565b60405180910390fd5b80600383604051611d089190614e31565b90815260200160405180910390206000820151816000019081611d2b9190614fea565b50602082015181600101556040820151816002019081611d4b91906151a9565b50606082015181600301556080820151816004015560a0820151816005015560c0820151816006015560e0820151816007015561010082015181600801556101208201518160090160006101000a81548160ff0219169083151502179055506101408201518160090160016101000a81548173ffffffffffffffffffffffffffffffffffffffff021916908373ffffffffffffffffffffffffffffffffffffffff16021790555061016082015181600a0160006101000a81548173ffffffffffffffffffffffffffffffffffffffff021916908373ffffffffffffffffffffffffffffffffffffffff1602179055509050505050565b60007f88be536d5240c274a3b1d3a1be54482fd9caa294f08c62a7cde569f49a3c4500905090565b60007f01ffc9a7000000000000000000000000000000000000000000000000000000007bffffffffffffffffffffffffffffffffffffffffffffffffffffffff1916827bffffffffffffffffffffffffffffffffffffffffffffffffffffffff1916149050919050565b611edb61209a565b73ffffffffffffffffffffffffffffffffffffffff16611ef9611044565b73ffffffffffffffffffffffffffffffffffffffff1614611f5857611f1c61209a565b6040517f118cdaa7000000000000000000000000000000000000000000000000000000008152600401611f4f919061454f565b60405180910390fd5b565b6000611f64611e41565b905081816002019081611f7791906151a9565b505050565b60606000611f886128bb565b905060008160010160008581526020019081526020016000208054611fac90614d32565b80601f0160208091040260200160405190810160405280929190818152602001828054611fd890614d32565b80156120255780601f10611ffa57610100808354040283529160200191612025565b820191906000526020600020905b81548152906001019060200180831161200857829003601f168201915b5050505050905060008151116120435761203e846128e3565b612069565b8160000181604051602001612059929190615436565b6040516020818303038152906040525b92505050919050565b60007f4a593662ee04d27b6a00ebb31be7fe0c102c2ade82a7c5d764f2df05dc4e2800905090565b600033905090565b600073ffffffffffffffffffffffffffffffffffffffff168473ffffffffffffffffffffffffffffffffffffffff16036121145760006040517f57f447ce00000000000000000000000000000000000000000000000000000000815260040161210b919061454f565b60405180910390fd5b600073ffffffffffffffffffffffffffffffffffffffff168573ffffffffffffffffffffffffffffffffffffffff16036121865760006040517f01a8351400000000000000000000000000000000000000000000000000000000815260040161217d919061454f565b60405180910390fd5b6121938585858585612986565b5050505050565b600060208202602084010151905092915050565b600060208202602084010151905092915050565b7f000000000000000000000000000000000000000000000000000000000000000073ffffffffffffffffffffffffffffffffffffffff163073ffffffffffffffffffffffffffffffffffffffff16148061226f57507f000000000000000000000000000000000000000000000000000000000000000073ffffffffffffffffffffffffffffffffffffffff16612256612a38565b73ffffffffffffffffffffffffffffffffffffffff1614155b156122a6576040517fe07c8dba00000000000000000000000000000000000000000000000000000000815260040160405180910390fd5b565b6122b0611ed3565b50565b8173ffffffffffffffffffffffffffffffffffffffff166352d1902d6040518163ffffffff1660e01b8152600401602060405180830381865afa92505050801561231b57506040513d601f19601f820116820180604052508101906123189190615486565b60015b61235c57816040517f4c9c8ce3000000000000000000000000000000000000000000000000000000008152600401612353919061454f565b60405180910390fd5b7f360894a13ba1a3210667c828492db98dca3e2076cc3735a920a3ca505d382bbc60001b81146123c357806040517faa1d49a40000000000000000000000000000000000000000000000000000000081526004016123ba919061426f565b60405180910390fd5b6123cd8383612a8f565b505050565b7f000000000000000000000000000000000000000000000000000000000000000073ffffffffffffffffffffffffffffffffffffffff163073ffffffffffffffffffffffffffffffffffffffff1614612457576040517fe07c8dba00000000000000000000000000000000000000000000000000000000815260040160405180910390fd5b565b6000612463612530565b905060008160000160009054906101000a900473ffffffffffffffffffffffffffffffffffffffff169050828260000160006101000a81548173ffffffffffffffffffffffffffffffffffffffff021916908373ffffffffffffffffffffffffffffffffffffffff1602179055508273ffffffffffffffffffffffffffffffffffffffff168173ffffffffffffffffffffffffffffffffffffffff167f8be0079c531659141344cd1fd0a4f28419497f9722a3daafe3b4186f6b6457e060405160405180910390a3505050565b60007f9016d09d72d40fdae2fd8ceac6b6234c7706214fd39c1cd1e609a0528c199300905090565b61256484848484612b02565b50505050565b6000612574611e41565b9050600073ffffffffffffffffffffffffffffffffffffffff168373ffffffffffffffffffffffffffffffffffffffff16036125e85760006040517fced3e1000000000000000000000000000000000000000000000000000000000081526004016125df919061454f565b60405180910390fd5b818160010160008673ffffffffffffffffffffffffffffffffffffffff1673ffffffffffffffffffffffffffffffffffffffff16815260200190815260200160002060008573ffffffffffffffffffffffffffffffffffffffff1673ffffffffffffffffffffffffffffffffffffffff16815260200190815260200160002060006101000a81548160ff0219169083151502179055508273ffffffffffffffffffffffffffffffffffffffff168473ffffffffffffffffffffffffffffffffffffffff167f17307eab39ab6107e8899845ad3d59bd9653f200f220920489ca2b5937696c31846040516126db9190613b02565b60405180910390a350505050565b60006126f361209a565b90508073ffffffffffffffffffffffffffffffffffffffff168673ffffffffffffffffffffffffffffffffffffffff161415801561273857506127368682611507565b155b1561277c5780866040517fe237d922000000000000000000000000000000000000000000000000000000008152600401612773929190614c82565b60405180910390fd5b6127898686868686612cc2565b505050505050565b60007ff0c57e16840df040f15088dc2f81fe391c3923bec73e23a9662efc9c229c6a00905090565b6127c1612dcd565b6127ca81612e0d565b50565b6127d5612dcd565b6127dd612e21565b565b6127e7612dcd565b6127f081612e59565b50565b6127fb612dcd565b565b612805612dcd565b565b600073ffffffffffffffffffffffffffffffffffffffff168473ffffffffffffffffffffffffffffffffffffffff16036128795760006040517f57f447ce000000000000000000000000000000000000000000000000000000008152600401612870919061454f565b60405180910390fd5b6000806128868585612edf565b91509150612898600087848487612986565b505050505050565b60008180519060200120838051906020012014905092915050565b60007f89fc852226e759c7c636cf34d732f0198fc56a54876b2374a52beb7b0c558600905090565b606060006128ef611e41565b905080600201805461290090614d32565b80601f016020809104026020016040519081016040528092919081815260200182805461292c90614d32565b80156129795780601f1061294e57610100808354040283529160200191612979565b820191906000526020600020905b81548152906001019060200180831161295c57829003601f168201915b5050505050915050919050565b61299285858585612558565b600073ffffffffffffffffffffffffffffffffffffffff168473ffffffffffffffffffffffffffffffffffffffff1614612a315760006129d061209a565b90506001845103612a205760006129f16000866121ae90919063ffffffff16565b90506000612a096000866121ae90919063ffffffff16565b9050612a19838989858589612f0f565b5050612a2f565b612a2e8187878787876130c3565b5b505b5050505050565b6000612a667f360894a13ba1a3210667c828492db98dca3e2076cc3735a920a3ca505d382bbc60001b613277565b60000160009054906101000a900473ffffffffffffffffffffffffffffffffffffffff16905090565b612a9882613281565b8173ffffffffffffffffffffffffffffffffffffffff167fbc7cd75a20ee27fd9adebab32041f755214dbc6bffa90cc0225b39da2e5c2d3b60405160405180910390a2600081511115612af557612aef828261334e565b50612afe565b612afd6133d2565b5b5050565b6000612b0c612072565b9050612b1a8585858561340f565b600073ffffffffffffffffffffffffffffffffffffffff168573ffffffffffffffffffffffffffffffffffffffff1603612bf8576000805b8451811015612bda576000848281518110612b7057612b6f614cd4565b5b6020026020010151905080846000016000888581518110612b9457612b93614cd4565b5b602002602001015181526020019081526020016000206000828254612bb991906154e2565b925050819055508083612bcc91906154e2565b925050806001019050612b52565b5080826001016000828254612bef91906154e2565b92505081905550505b600073ffffffffffffffffffffffffffffffffffffffff168473ffffffffffffffffffffffffffffffffffffffff1603612cbb576000805b8451811015612ca6576000848281518110612c4e57612c4d614cd4565b5b6020026020010151905080846000016000888581518110612c7257612c71614cd4565b5b6020026020010151815260200190815260200160002060008282540392505081905550808301925050806001019050612c30565b50808260010160008282540392505081905550505b5050505050565b600073ffffffffffffffffffffffffffffffffffffffff168473ffffffffffffffffffffffffffffffffffffffff1603612d345760006040517f57f447ce000000000000000000000000000000000000000000000000000000008152600401612d2b919061454f565b60405180910390fd5b600073ffffffffffffffffffffffffffffffffffffffff168573ffffffffffffffffffffffffffffffffffffffff1603612da65760006040517f01a83514000000000000000000000000000000000000000000000000000000008152600401612d9d919061454f565b60405180910390fd5b600080612db38585612edf565b91509150612dc48787848487612986565b50505050505050565b612dd56137cd565b612e0b576040517fd7e6bcf800000000000000000000000000000000000000000000000000000000815260040160405180910390fd5b565b612e15612dcd565b612e1e81611f5a565b50565b612e29612dcd565b6000612e336128bb565b905060405180602001604052806000815250816000019081612e5591906151a9565b5050565b612e61612dcd565b600073ffffffffffffffffffffffffffffffffffffffff168173ffffffffffffffffffffffffffffffffffffffff1603612ed35760006040517f1e4fbdf7000000000000000000000000000000000000000000000000000000008152600401612eca919061454f565b60405180910390fd5b612edc81612459565b50565b60608060405191506001825283602083015260408201905060018152826020820152604081016040529250929050565b60008473ffffffffffffffffffffffffffffffffffffffff163b11156130bb578373ffffffffffffffffffffffffffffffffffffffff1663f23a6e6187878686866040518663ffffffff1660e01b8152600401612f70959493929190615516565b6020604051808303816000875af1925050508015612fac57506040513d601f19601f82011682018060405250810190612fa99190615585565b60015b613030573d8060008114612fdc576040519150601f19603f3d011682016040523d82523d6000602084013e612fe1565b606091505b50600081510361302857846040517f57f447ce00000000000000000000000000000000000000000000000000000000815260040161301f919061454f565b60405180910390fd5b805181602001fd5b63f23a6e6160e01b7bffffffffffffffffffffffffffffffffffffffffffffffffffffffff1916817bffffffffffffffffffffffffffffffffffffffffffffffffffffffff1916146130b957846040517f57f447ce0000000000000000000000000000000000000000000000000000000081526004016130b0919061454f565b60405180910390fd5b505b505050505050565b60008473ffffffffffffffffffffffffffffffffffffffff163b111561326f578373ffffffffffffffffffffffffffffffffffffffff1663bc197c8187878686866040518663ffffffff1660e01b81526004016131249594939291906155b2565b6020604051808303816000875af192505050801561316057506040513d601f19601f8201168201806040525081019061315d9190615585565b60015b6131e4573d8060008114613190576040519150601f19603f3d011682016040523d82523d6000602084013e613195565b606091505b5060008151036131dc57846040517f57f447ce0000000000000000000000000000000000000000000000000000000081526004016131d3919061454f565b60405180910390fd5b805181602001fd5b63bc197c8160e01b7bffffffffffffffffffffffffffffffffffffffffffffffffffffffff1916817bffffffffffffffffffffffffffffffffffffffffffffffffffffffff19161461326d57846040517f57f447ce000000000000000000000000000000000000000000000000000000008152600401613264919061454f565b60405180910390fd5b505b505050505050565b6000819050919050565b60008173ffffffffffffffffffffffffffffffffffffffff163b036132dd57806040517f4c9c8ce30000000000000000000000000000000000000000000000000000000081526004016132d4919061454f565b60405180910390fd5b8061330a7f360894a13ba1a3210667c828492db98dca3e2076cc3735a920a3ca505d382bbc60001b613277565b60000160006101000a81548173ffffffffffffffffffffffffffffffffffffffff021916908373ffffffffffffffffffffffffffffffffffffffff16021790555050565b60606000808473ffffffffffffffffffffffffffffffffffffffff16846040516133789190614e31565b600060405180830381855af49150503d80600081146133b3576040519150601f19603f3d011682016040523d82523d6000602084013e6133b8565b606091505b50915091506133c88583836137ed565b9250505092915050565b600034111561340d576040517fb398979f00000000000000000000000000000000000000000000000000000000815260040160405180910390fd5b565b6000613419611e41565b9050815183511461346557825182516040517f5b05999100000000000000000000000000000000000000000000000000000000815260040161345c929190614cab565b60405180910390fd5b600061346f61209a565b905060005b845181101561368757600061349282876121ae90919063ffffffff16565b905060006134a983876121ae90919063ffffffff16565b9050600073ffffffffffffffffffffffffffffffffffffffff168973ffffffffffffffffffffffffffffffffffffffff16146135dc57600085600001600084815260200190815260200160002060008b73ffffffffffffffffffffffffffffffffffffffff1673ffffffffffffffffffffffffffffffffffffffff1681526020019081526020016000205490508181101561358157898183856040517f03dee4c5000000000000000000000000000000000000000000000000000000008152600401613578949392919061561a565b60405180910390fd5b81810386600001600085815260200190815260200160002060008c73ffffffffffffffffffffffffffffffffffffffff1673ffffffffffffffffffffffffffffffffffffffff16815260200190815260200160002081905550505b600073ffffffffffffffffffffffffffffffffffffffff168873ffffffffffffffffffffffffffffffffffffffff161461367a578085600001600084815260200190815260200160002060008a73ffffffffffffffffffffffffffffffffffffffff1673ffffffffffffffffffffffffffffffffffffffff168152602001908152602001600020600082825461367291906154e2565b925050819055505b5050806001019050613474565b5060018451036137465760006136a76000866121ae90919063ffffffff16565b905060006136bf6000866121ae90919063ffffffff16565b90508673ffffffffffffffffffffffffffffffffffffffff168873ffffffffffffffffffffffffffffffffffffffff168473ffffffffffffffffffffffffffffffffffffffff167fc3d58168c5ae7397731d063d5bbf3d657854427343f4c083240f7aacaa2d0f628585604051613737929190614cab565b60405180910390a450506137c5565b8473ffffffffffffffffffffffffffffffffffffffff168673ffffffffffffffffffffffffffffffffffffffff168273ffffffffffffffffffffffffffffffffffffffff167f4a39dc06d4c0dbc64b70af90fd698a233a518aa5d07e595d983b8c0526c8f7fb87876040516137bc92919061565f565b60405180910390a45b505050505050565b60006137d7612791565b60000160089054906101000a900460ff16905090565b606082613802576137fd8261387c565b613874565b6000825114801561382a575060008473ffffffffffffffffffffffffffffffffffffffff163b145b1561386c57836040517f9996b315000000000000000000000000000000000000000000000000000000008152600401613863919061454f565b60405180910390fd5b819050613875565b5b9392505050565b60008151111561388f5780518082602001fd5b6040517f1425ea4200000000000000000000000000000000000000000000000000000000815260040160405180910390fd5b604051806101800160405280606081526020016000815260200160608152602001600081526020016000815260200160008152602001600081526020016000815260200160008152602001600015158152602001600073ffffffffffffffffffffffffffffffffffffffff168152602001600073ffffffffffffffffffffffffffffffffffffffff1681525090565b6000604051905090565b600080fd5b600080fd5b600073ffffffffffffffffffffffffffffffffffffffff82169050919050565b600061398f82613964565b9050919050565b61399f81613984565b81146139aa57600080fd5b50565b6000813590506139bc81613996565b92915050565b6000819050919050565b6139d5816139c2565b81146139e057600080fd5b50565b6000813590506139f2816139cc565b92915050565b60008060408385031215613a0f57613a0e61395a565b5b6000613a1d858286016139ad565b9250506020613a2e858286016139e3565b9150509250929050565b613a41816139c2565b82525050565b6000602082019050613a5c6000830184613a38565b92915050565b60007fffffffff0000000000000000000000000000000000000000000000000000000082169050919050565b613a9781613a62565b8114613aa257600080fd5b50565b600081359050613ab481613a8e565b92915050565b600060208284031215613ad057613acf61395a565b5b6000613ade84828501613aa5565b91505092915050565b60008115159050919050565b613afc81613ae7565b82525050565b6000602082019050613b176000830184613af3565b92915050565b600080fd5b600080fd5b6000601f19601f8301169050919050565b7f4e487b7100000000000000000000000000000000000000000000000000000000600052604160045260246000fd5b613b7082613b27565b810181811067ffffffffffffffff82111715613b8f57613b8e613b38565b5b80604052505050565b6000613ba2613950565b9050613bae8282613b67565b919050565b600067ffffffffffffffff821115613bce57613bcd613b38565b5b613bd782613b27565b9050602081019050919050565b82818337600083830152505050565b6000613c06613c0184613bb3565b613b98565b905082815260208101848484011115613c2257613c21613b22565b5b613c2d848285613be4565b509392505050565b600082601f830112613c4a57613c49613b1d565b5b8135613c5a848260208601613bf3565b91505092915050565b600060208284031215613c7957613c7861395a565b5b600082013567ffffffffffffffff811115613c9757613c9661395f565b5b613ca384828501613c35565b91505092915050565b600060208284031215613cc257613cc161395a565b5b6000613cd0848285016139e3565b91505092915050565b600081519050919050565b600082825260208201905092915050565b60005b83811015613d13578082015181840152602081019050613cf8565b60008484015250505050565b6000613d2a82613cd9565b613d348185613ce4565b9350613d44818560208601613cf5565b613d4d81613b27565b840191505092915050565b60006020820190508181036000830152613d728184613d1f565b905092915050565b600060208284031215613d9057613d8f61395a565b5b6000613d9e848285016139ad565b91505092915050565b600067ffffffffffffffff821115613dc257613dc1613b38565b5b602082029050602081019050919050565b600080fd5b6000613deb613de684613da7565b613b98565b90508083825260208201905060208402830185811115613e0e57613e0d613dd3565b5b835b81811015613e375780613e2388826139e3565b845260208401935050602081019050613e10565b5050509392505050565b600082601f830112613e5657613e55613b1d565b5b8135613e66848260208601613dd8565b91505092915050565b600067ffffffffffffffff821115613e8a57613e89613b38565b5b613e9382613b27565b9050602081019050919050565b6000613eb3613eae84613e6f565b613b98565b905082815260208101848484011115613ecf57613ece613b22565b5b613eda848285613be4565b509392505050565b600082601f830112613ef757613ef6613b1d565b5b8135613f07848260208601613ea0565b91505092915050565b600080600080600060a08688031215613f2c57613f2b61395a565b5b6000613f3a888289016139ad565b9550506020613f4b888289016139ad565b945050604086013567ffffffffffffffff811115613f6c57613f6b61395f565b5b613f7888828901613e41565b935050606086013567ffffffffffffffff811115613f9957613f9861395f565b5b613fa588828901613e41565b925050608086013567ffffffffffffffff811115613fc657613fc561395f565b5b613fd288828901613ee2565b9150509295509295909350565b600067ffffffffffffffff821115613ffa57613ff9613b38565b5b602082029050602081019050919050565b600061401e61401984613fdf565b613b98565b9050808382526020820190506020840283018581111561404157614040613dd3565b5b835b8181101561406a578061405688826139ad565b845260208401935050602081019050614043565b5050509392505050565b600082601f83011261408957614088613b1d565b5b813561409984826020860161400b565b91505092915050565b600080604083850312156140b9576140b861395a565b5b600083013567ffffffffffffffff8111156140d7576140d661395f565b5b6140e385828601614074565b925050602083013567ffffffffffffffff8111156141045761410361395f565b5b61411085828601613e41565b9150509250929050565b600081519050919050565b600082825260208201905092915050565b6000819050602082019050919050565b61414f816139c2565b82525050565b60006141618383614146565b60208301905092915050565b6000602082019050919050565b60006141858261411a565b61418f8185614125565b935061419a83614136565b8060005b838110156141cb5781516141b28882614155565b97506141bd8361416d565b92505060018101905061419e565b5085935050505092915050565b600060208201905081810360008301526141f2818461417a565b905092915050565b600080604083850312156142115761421061395a565b5b600061421f858286016139ad565b925050602083013567ffffffffffffffff8111156142405761423f61395f565b5b61424c85828601613ee2565b9150509250929050565b6000819050919050565b61426981614256565b82525050565b60006020820190506142846000830184614260565b92915050565b600081519050919050565b600082825260208201905092915050565b6000819050602082019050919050565b600081519050919050565b600082825260208201905092915050565b60006142dd826142b6565b6142e781856142c1565b93506142f7818560208601613cf5565b61430081613b27565b840191505092915050565b600061431783836142d2565b905092915050565b6000602082019050919050565b60006143378261428a565b6143418185614295565b935083602082028501614353856142a6565b8060005b8581101561438f5784840389528151614370858261430b565b945061437b8361431f565b925060208a01995050600181019050614357565b50829750879550505050505092915050565b600060208201905081810360008301526143bb818461432c565b905092915050565b600082825260208201905092915050565b60006143df826142b6565b6143e981856143c3565b93506143f9818560208601613cf5565b61440281613b27565b840191505092915050565b6000602082019050818103600083015261442781846143d4565b905092915050565b6000602082840312156144455761444461395a565b5b600082013567ffffffffffffffff8111156144635761446261395f565b5b61446f84828501613ee2565b91505092915050565b61448181613984565b82525050565b60006101808201905081810360008301526144a2818f6143d4565b90506144b1602083018e613a38565b81810360408301526144c3818d613d1f565b90506144d2606083018c613a38565b6144df608083018b613a38565b6144ec60a083018a613a38565b6144f960c0830189613a38565b61450660e0830188613a38565b614514610100830187613a38565b614522610120830186613af3565b614530610140830185614478565b61453e610160830184614478565b9d9c50505050505050505050505050565b60006020820190506145646000830184614478565b92915050565b600080600080608085870312156145845761458361395a565b5b6000614592878288016139ad565b94505060206145a3878288016139ad565b935050604085013567ffffffffffffffff8111156145c4576145c361395f565b5b6145d087828801613e41565b925050606085013567ffffffffffffffff8111156145f1576145f061395f565b5b6145fd87828801613e41565b91505092959194509250565b61461281613ae7565b811461461d57600080fd5b50565b60008135905061462f81614609565b92915050565b6000806040838503121561464c5761464b61395a565b5b600061465a858286016139ad565b925050602061466b85828601614620565b9150509250929050565b600082825260208201905092915050565b600061469182613cd9565b61469b8185614675565b93506146ab818560208601613cf5565b6146b481613b27565b840191505092915050565b6146c881613ae7565b82525050565b6146d781613984565b82525050565b60006101808301600083015184820360008601526146fb82826142d2565b91505060208301516147106020860182614146565b50604083015184820360408601526147288282614686565b915050606083015161473d6060860182614146565b5060808301516147506080860182614146565b5060a083015161476360a0860182614146565b5060c083015161477660c0860182614146565b5060e083015161478960e0860182614146565b5061010083015161479e610100860182614146565b506101208301516147b36101208601826146bf565b506101408301516147c86101408601826146ce565b506101608301516147dd6101608601826146ce565b508091505092915050565b6000602082019050818103600083015261480281846146dd565b905092915050565b6000819050919050565b600061482f61482a61482584613964565b61480a565b613964565b9050919050565b600061484182614814565b9050919050565b600061485382614836565b9050919050565b61486381614848565b82525050565b600060208201905061487e600083018461485a565b92915050565b6000806040838503121561489b5761489a61395a565b5b60006148a9858286016139ad565b92505060206148ba858286016139ad565b9150509250929050565b600080600080600060a086880312156148e0576148df61395a565b5b60006148ee888289016139ad565b95505060206148ff888289016139ad565b9450506040614910888289016139e3565b9350506060614921888289016139e3565b925050608086013567ffffffffffffffff8111156149425761494161395f565b5b61494e88828901613ee2565b9150509295509295909350565b600080604083850312156149725761497161395a565b5b6000614980858286016139ad565b925050602083013567ffffffffffffffff8111156149a1576149a061395f565b5b6149ad85828601613c35565b9150509250929050565b600080600080608085870312156149d1576149d061395a565b5b60006149df878288016139ad565b94505060206149f0878288016139e3565b9350506040614a01878288016139e3565b925050606085013567ffffffffffffffff811115614a2257614a2161395f565b5b614a2e87828801613ee2565b91505092959194509250565b600080fd5b600080fd5b60006101808284031215614a5b57614a5a614a3a565b5b614a66610180613b98565b9050600082013567ffffffffffffffff811115614a8657614a85614a3f565b5b614a9284828501613ee2565b6000830152506020614aa6848285016139e3565b602083015250604082013567ffffffffffffffff811115614aca57614ac9614a3f565b5b614ad684828501613c35565b6040830152506060614aea848285016139e3565b6060830152506080614afe848285016139e3565b60808301525060a0614b12848285016139e3565b60a08301525060c0614b26848285016139e3565b60c08301525060e0614b3a848285016139e3565b60e083015250610100614b4f848285016139e3565b61010083015250610120614b6584828501614620565b61012083015250610140614b7b848285016139ad565b61014083015250610160614b91848285016139ad565b6101608301525092915050565b60008060408385031215614bb557614bb461395a565b5b600083013567ffffffffffffffff811115614bd357614bd261395f565b5b614bdf85828601613ee2565b925050602083013567ffffffffffffffff811115614c0057614bff61395f565b5b614c0c85828601614a44565b9150509250929050565b7f596f7520646f6e2774206f776e2074686973204e465400000000000000000000600082015250565b6000614c4c601683613ce4565b9150614c5782614c16565b602082019050919050565b60006020820190508181036000830152614c7b81614c3f565b9050919050565b6000604082019050614c976000830185614478565b614ca46020830184614478565b9392505050565b6000604082019050614cc06000830185613a38565b614ccd6020830184613a38565b9392505050565b7f4e487b7100000000000000000000000000000000000000000000000000000000600052603260045260246000fd5b7f4e487b7100000000000000000000000000000000000000000000000000000000600052602260045260246000fd5b60006002820490506001821680614d4a57607f821691505b602082108103614d5d57614d5c614d03565b5b50919050565b7f596f7520617265206e6f7420617574686f72697a656420746f2075706461746560008201527f204e465400000000000000000000000000000000000000000000000000000000602082015250565b6000614dbf602483613ce4565b9150614dca82614d63565b604082019050919050565b60006020820190508181036000830152614dee81614db2565b9050919050565b600081905092915050565b6000614e0b826142b6565b614e158185614df5565b9350614e25818560208601613cf5565b80840191505092915050565b6000614e3d8284614e00565b915081905092915050565b60008190508160005260206000209050919050565b60006020601f8301049050919050565b600082821b905092915050565b600060088302614eaa7fffffffffffffffffffffffffffffffffffffffffffffffffffffffffffffffff82614e6d565b614eb48683614e6d565b95508019841693508086168417925050509392505050565b6000614ee7614ee2614edd846139c2565b61480a565b6139c2565b9050919050565b6000819050919050565b614f0183614ecc565b614f15614f0d82614eee565b848454614e7a565b825550505050565b600090565b614f2a614f1d565b614f35818484614ef8565b505050565b5b81811015614f5957614f4e600082614f22565b600181019050614f3b565b5050565b601f821115614f9e57614f6f81614e48565b614f7884614e5d565b81016020851015614f87578190505b614f9b614f9385614e5d565b830182614f3a565b50505b505050565b600082821c905092915050565b6000614fc160001984600802614fa3565b1980831691505092915050565b6000614fda8383614fb0565b9150826002028217905092915050565b614ff3826142b6565b67ffffffffffffffff81111561500c5761500b613b38565b5b6150168254614d32565b615021828285614f5d565b600060209050601f8311600181146150545760008415615042578287015190505b61504c8582614fce565b8655506150b4565b601f19841661506286614e48565b60005b8281101561508a57848901518255600182019150602085019450602081019050615065565b868310156150a757848901516150a3601f891682614fb0565b8355505b6001600288020188555050505b505050505050565b7f436f75727365206f776e657273686970207472616e73666572206973206e6f7460008201527f20616c6c6f776564000000000000000000000000000000000000000000000000602082015250565b6000615118602883613ce4565b9150615123826150bc565b604082019050919050565b600060208201905081810360008301526151478161510b565b9050919050565b60008190508160005260206000209050919050565b601f8211156151a4576151758161514e565b61517e84614e5d565b8101602085101561518d578190505b6151a161519985614e5d565b830182614f3a565b50505b505050565b6151b282613cd9565b67ffffffffffffffff8111156151cb576151ca613b38565b5b6151d58254614d32565b6151e0828285615163565b600060209050601f8311600181146152135760008415615201578287015190505b61520b8582614fce565b865550615273565b601f1984166152218661514e565b60005b8281101561524957848901518255600182019150602085019450602081019050615224565b868310156152665784890151615262601f891682614fb0565b8355505b6001600288020188555050505b505050505050565b6000819050919050565b600067ffffffffffffffff82169050919050565b60006152b46152af6152aa8461527b565b61480a565b615285565b9050919050565b6152c481615299565b82525050565b60006020820190506152df60008301846152bb565b92915050565b7f43616e6e6f74206368616e67652074686520636f6d706c65746520636f75727360008201527f6500000000000000000000000000000000000000000000000000000000000000602082015250565b6000615341602183613ce4565b915061534c826152e5565b604082019050919050565b6000602082019050818103600083015261537081615334565b9050919050565b600081905092915050565b6000815461538f81614d32565b6153998186615377565b945060018216600081146153b457600181146153c9576153fc565b60ff19831686528115158202860193506153fc565b6153d28561514e565b60005b838110156153f4578154818901526001820191506020810190506153d5565b838801955050505b50505092915050565b600061541082613cd9565b61541a8185615377565b935061542a818560208601613cf5565b80840191505092915050565b60006154428285615382565b915061544e8284615405565b91508190509392505050565b61546381614256565b811461546e57600080fd5b50565b6000815190506154808161545a565b92915050565b60006020828403121561549c5761549b61395a565b5b60006154aa84828501615471565b91505092915050565b7f4e487b7100000000000000000000000000000000000000000000000000000000600052601160045260246000fd5b60006154ed826139c2565b91506154f8836139c2565b92508282019050808211156155105761550f6154b3565b5b92915050565b600060a08201905061552b6000830188614478565b6155386020830187614478565b6155456040830186613a38565b6155526060830185613a38565b818103608083015261556481846143d4565b90509695505050505050565b60008151905061557f81613a8e565b92915050565b60006020828403121561559b5761559a61395a565b5b60006155a984828501615570565b91505092915050565b600060a0820190506155c76000830188614478565b6155d46020830187614478565b81810360408301526155e6818661417a565b905081810360608301526155fa818561417a565b9050818103608083015261560e81846143d4565b90509695505050505050565b600060808201905061562f6000830187614478565b61563c6020830186613a38565b6156496040830185613a38565b6156566060830184613a38565b95945050505050565b60006040820190508181036000830152615679818561417a565b9050818103602083015261568d818461417a565b9050939250505056fea26469706673582212206b37837d7c2b69fea4aa1d86afeb437451923987e76995a55fcb6cc936f78ff964736f6c63430008190033",
  "linkReferences": {},
  "deployedLinkReferences": {}
}