{
  "_format": "hh-sol-artifact-1",
  "contractName": "Market",
  "sourceName": "contracts/V1/Market.sol",
  "abi": [
    {
      "inputs": [],
      "stateMutability": "nonpayable",
      "type": "constructor"
    },
    {
      "inputs": [
        {
          "internalType": "address",
          "name": "target",
          "type": "address"
        }
      ],
      "name": "AddressEmptyCode",
      "type": "error"
    },
    {
      "inputs": [
        {
          "internalType": "string",
          "name": "message",
          "type": "string"
        }
      ],
      "name": "CourseExpired",
      "type": "error"
    },
    {
      "inputs": [
        {
          "internalType": "string",
          "name": "message",
          "type": "string"
        }
      ],
      "name": "CourseIsAlreadyOwner",
      "type": "error"
    },
    {
      "inputs": [
        {
          "internalType": "address",
          "name": "implementation",
          "type": "address"
        }
      ],
      "name": "ERC1967InvalidImplementation",
      "type": "error"
    },
    {
      "inputs": [],
      "name": "ERC1967NonPayable",
      "type": "error"
    },
    {
      "inputs": [],
      "name": "FailedInnerCall",
      "type": "error"
    },
    {
      "inputs": [
        {
          "internalType": "string",
          "name": "message",
          "type": "string"
        }
      ],
      "name": "InvalidCourseId",
      "type": "error"
    },
    {
      "inputs": [
        {
          "internalType": "string",
          "name": "message",
          "type": "string"
        }
      ],
      "name": "InvalidDuration",
      "type": "error"
    },
    {
      "inputs": [],
      "name": "InvalidInitialization",
      "type": "error"
    },
    {
      "inputs": [
        {
          "internalType": "string",
          "name": "message",
          "type": "string"
        }
      ],
      "name": "InvalidPrice",
      "type": "error"
    },
    {
      "inputs": [
        {
          "internalType": "string",
          "name": "message",
          "type": "string"
        }
      ],
      "name": "NotCourseOwner",
      "type": "error"
    },
    {
      "inputs": [],
      "name": "NotInitializing",
      "type": "error"
    },
    {
      "inputs": [
        {
          "internalType": "string",
          "name": "message",
          "type": "string"
        }
      ],
      "name": "NotNFTHolder",
      "type": "error"
    },
    {
      "inputs": [
        {
          "internalType": "address",
          "name": "owner",
          "type": "address"
        }
      ],
      "name": "OwnableInvalidOwner",
      "type": "error"
    },
    {
      "inputs": [
        {
          "internalType": "address",
          "name": "account",
          "type": "address"
        }
      ],
      "name": "OwnableUnauthorizedAccount",
      "type": "error"
    },
    {
      "inputs": [],
      "name": "UUPSUnauthorizedCallContext",
      "type": "error"
    },
    {
      "inputs": [
        {
          "internalType": "bytes32",
          "name": "slot",
          "type": "bytes32"
        }
      ],
      "name": "UUPSUnsupportedProxiableUUID",
      "type": "error"
    },
    {
      "anonymous": false,
      "inputs": [
        {
          "indexed": false,
          "internalType": "uint64",
          "name": "version",
          "type": "uint64"
        }
      ],
      "name": "Initialized",
      "type": "event"
    },
    {
      "anonymous": false,
      "inputs": [
        {
          "indexed": true,
          "internalType": "address",
          "name": "previousOwner",
          "type": "address"
        },
        {
          "indexed": true,
          "internalType": "address",
          "name": "newOwner",
          "type": "address"
        }
      ],
      "name": "OwnershipTransferred",
      "type": "event"
    },
    {
      "anonymous": false,
      "inputs": [
        {
          "indexed": true,
          "internalType": "address",
          "name": "implementation",
          "type": "address"
        }
      ],
      "name": "Upgraded",
      "type": "event"
    },
    {
      "inputs": [],
      "name": "CourseNft",
      "outputs": [
        {
          "internalType": "contract Course",
          "name": "",
          "type": "address"
        }
      ],
      "stateMutability": "view",
      "type": "function"
    },
    {
      "inputs": [],
      "name": "UPGRADE_INTERFACE_VERSION",
      "outputs": [
        {
          "internalType": "string",
          "name": "",
          "type": "string"
        }
      ],
      "stateMutability": "view",
      "type": "function"
    },
    {
      "inputs": [
        {
          "components": [
            {
              "internalType": "bytes",
              "name": "courseId",
              "type": "bytes"
            },
            {
              "components": [
                {
                  "internalType": "uint256",
                  "name": "id",
                  "type": "uint256"
                },
                {
                  "internalType": "uint256",
                  "name": "price",
                  "type": "uint256"
                },
                {
                  "internalType": "uint256",
                  "name": "recommendedDuration",
                  "type": "uint256"
                }
              ],
              "internalType": "struct IMarket.CourseDetails",
              "name": "details",
              "type": "tuple"
            }
          ],
          "internalType": "struct IMarket.BuyCourseRequest",
          "name": "course",
          "type": "tuple"
        },
        {
          "internalType": "uint256",
          "name": "duration",
          "type": "uint256"
        }
      ],
      "name": "buyCourse",
      "outputs": [],
      "stateMutability": "payable",
      "type": "function"
    },
    {
      "inputs": [
        {
          "internalType": "bytes",
          "name": "courseId",
          "type": "bytes"
        }
      ],
      "name": "buyFromMarket",
      "outputs": [],
      "stateMutability": "payable",
      "type": "function"
    },
    {
      "inputs": [],
      "name": "getRoyaltyPercentage",
      "outputs": [
        {
          "internalType": "uint256",
          "name": "",
          "type": "uint256"
        }
      ],
      "stateMutability": "view",
      "type": "function"
    },
    {
      "inputs": [
        {
          "internalType": "address",
          "name": "initialOwner",
          "type": "address"
        },
        {
          "internalType": "address",
          "name": "courseNftAddress",
          "type": "address"
        },
        {
          "internalType": "uint256",
          "name": "royaltyPerc",
          "type": "uint256"
        }
      ],
      "name": "initialize",
      "outputs": [],
      "stateMutability": "nonpayable",
      "type": "function"
    },
    {
      "inputs": [],
      "name": "owner",
      "outputs": [
        {
          "internalType": "address",
          "name": "",
          "type": "address"
        }
      ],
      "stateMutability": "view",
      "type": "function"
    },
    {
      "inputs": [],
      "name": "proxiableUUID",
      "outputs": [
        {
          "internalType": "bytes32",
          "name": "",
          "type": "bytes32"
        }
      ],
      "stateMutability": "view",
      "type": "function"
    },
    {
      "inputs": [
        {
          "internalType": "bytes",
          "name": "courseId",
          "type": "bytes"
        }
      ],
      "name": "removeFromMarket",
      "outputs": [],
      "stateMutability": "nonpayable",
      "type": "function"
    },
    {
      "inputs": [],
      "name": "renounceOwnership",
      "outputs": [],
      "stateMutability": "nonpayable",
      "type": "function"
    },
    {
      "inputs": [
        {
          "internalType": "bytes",
          "name": "courseId",
          "type": "bytes"
        },
        {
          "internalType": "uint256",
          "name": "price",
          "type": "uint256"
        }
      ],
      "name": "sellCourse",
      "outputs": [],
      "stateMutability": "nonpayable",
      "type": "function"
    },
    {
      "inputs": [
        {
          "internalType": "uint256",
          "name": "_royalty",
          "type": "uint256"
        }
      ],
      "name": "setRoyaltyPercentage",
      "outputs": [],
      "stateMutability": "nonpayable",
      "type": "function"
    },
    {
      "inputs": [
        {
          "internalType": "address",
          "name": "newOwner",
          "type": "address"
        }
      ],
      "name": "transferOwnership",
      "outputs": [],
      "stateMutability": "nonpayable",
      "type": "function"
    },
    {
      "inputs": [
        {
          "internalType": "address",
          "name": "newImplementation",
          "type": "address"
        },
        {
          "internalType": "bytes",
          "name": "data",
          "type": "bytes"
        }
      ],
      "name": "upgradeToAndCall",
      "outputs": [],
      "stateMutability": "payable",
      "type": "function"
    }
  ],
  "bytecode": "0x60a06040523073ffffffffffffffffffffffffffffffffffffffff1660809073ffffffffffffffffffffffffffffffffffffffff1681525034801561004357600080fd5b5061005261005760201b60201c565b6101c1565b600061006761015b60201b60201c565b90508060000160089054906101000a900460ff16156100b2576040517ff92ee8a900000000000000000000000000000000000000000000000000000000815260040160405180910390fd5b67ffffffffffffffff80168160000160009054906101000a900467ffffffffffffffff1667ffffffffffffffff16146101585767ffffffffffffffff8160000160006101000a81548167ffffffffffffffff021916908367ffffffffffffffff1602179055507fc7f505b2f371ae2175ee4913f4499e1f2633a7b5936321eed1cdaeb6115181d267ffffffffffffffff60405161014f91906101a6565b60405180910390a15b50565b60007ff0c57e16840df040f15088dc2f81fe391c3923bec73e23a9662efc9c229c6a00905090565b600067ffffffffffffffff82169050919050565b6101a081610183565b82525050565b60006020820190506101bb6000830184610197565b92915050565b608051613da66101ea60003960008181611ec101528181611f1601526120d10152613da66000f3fe6080604052600436106100dd5760003560e01c806361ba27da1161007f5780638da5cb5b116100595780638da5cb5b14610249578063ad3cb1cc14610274578063e17385401461029f578063f2fde38b146102c8576100dd565b806361ba27da146101e0578063715018a614610209578063815e3b0714610220576100dd565b80634f1ef286116100bb5780634f1ef2861461015257806352d1902d1461016e578063532021461461019957806359c8b7dd146101b5576100dd565b80630fda88c2146100e25780631794bb3c1461010d5780631d0427ee14610136575b600080fd5b3480156100ee57600080fd5b506100f76102f1565b604051610104919061277f565b60405180910390f35b34801561011957600080fd5b50610134600480360381019061012f9190612822565b610315565b005b610150600480360381019061014b91906129bb565b6104f5565b005b61016c60048036038101906101679190612a04565b610a3f565b005b34801561017a57600080fd5b50610183610a5e565b6040516101909190612a79565b60405180910390f35b6101b360048036038101906101ae9190612ab8565b610a91565b005b3480156101c157600080fd5b506101ca6116c3565b6040516101d79190612b23565b60405180910390f35b3480156101ec57600080fd5b5061020760048036038101906102029190612b3e565b6116cd565b005b34801561021557600080fd5b5061021e611723565b005b34801561022c57600080fd5b5061024760048036038101906102429190612b6b565b611737565b005b34801561025557600080fd5b5061025e611a44565b60405161026b9190612bd6565b60405180910390f35b34801561028057600080fd5b50610289611a7c565b6040516102969190612c70565b60405180910390f35b3480156102ab57600080fd5b506102c660048036038101906102c191906129bb565b611ab5565b005b3480156102d457600080fd5b506102ef60048036038101906102ea9190612c92565b611dd8565b005b60008054906101000a900473ffffffffffffffffffffffffffffffffffffffff1681565b600061031f611e5e565b905060008160000160089054906101000a900460ff1615905060008260000160009054906101000a900467ffffffffffffffff1690506000808267ffffffffffffffff1614801561036d5750825b9050600060018367ffffffffffffffff161480156103a2575060003073ffffffffffffffffffffffffffffffffffffffff163b145b9050811580156103b0575080155b156103e7576040517ff92ee8a900000000000000000000000000000000000000000000000000000000815260040160405180910390fd5b60018560000160006101000a81548167ffffffffffffffff021916908367ffffffffffffffff16021790555083156104375760018560000160086101000a81548160ff0219169083151502179055505b61044088611e86565b610448611e9a565b85600181905550866000806101000a81548173ffffffffffffffffffffffffffffffffffffffff021916908373ffffffffffffffffffffffffffffffffffffffff16021790555083156104eb5760008560000160086101000a81548160ff0219169083151502179055507fc7f505b2f371ae2175ee4913f4499e1f2633a7b5936321eed1cdaeb6115181d260016040516104e29190612d0e565b60405180910390a15b5050505050505050565b60008060009054906101000a900473ffffffffffffffffffffffffffffffffffffffff1673ffffffffffffffffffffffffffffffffffffffff1663b199fa71836040518263ffffffff1660e01b81526004016105519190612d7e565b600060405180830381865afa15801561056e573d6000803e3d6000fd5b505050506040513d6000823e3d601f19601f820116820180604052508101906105979190612fa4565b90506105a7828260000151611ea4565b6105e6576040517f08c379a00000000000000000000000000000000000000000000000000000000081526004016105dd90613039565b60405180910390fd5b60011515816101000151151514610632576040517f08c379a0000000000000000000000000000000000000000000000000000000008152600401610629906130a5565b60405180910390fd5b60008160e001511180156106495750428160e00151105b610688576040517f08c379a000000000000000000000000000000000000000000000000000000000815260040161067f90613111565b60405180910390fd5b600073ffffffffffffffffffffffffffffffffffffffff1681610140015173ffffffffffffffffffffffffffffffffffffffff16146106fc576040517f08c379a00000000000000000000000000000000000000000000000000000000081526004016106f39061317d565b60405180910390fd5b806060015162015180826080015161071491906131fb565b61071e919061322c565b341461075f576040517f08c379a0000000000000000000000000000000000000000000000000000000008152600401610756906132ba565b60405180910390fd5b428160c001818152505060008160e00181815250506000816101000190151590811515815250503381610140019073ffffffffffffffffffffffffffffffffffffffff16908173ffffffffffffffffffffffffffffffffffffffff168152505060008054906101000a900473ffffffffffffffffffffffffffffffffffffffff1673ffffffffffffffffffffffffffffffffffffffff1663c58962aa83836040518363ffffffff1660e01b815260040161081a929190613440565b600060405180830381600087803b15801561083457600080fd5b505af1158015610848573d6000803e3d6000fd5b5050505060008054906101000a900473ffffffffffffffffffffffffffffffffffffffff1673ffffffffffffffffffffffffffffffffffffffff1663f178778233846040518363ffffffff1660e01b81526004016108a7929190613477565b600060405180830381600087803b1580156108c157600080fd5b505af11580156108d5573d6000803e3d6000fd5b5050505080610120015173ffffffffffffffffffffffffffffffffffffffff166108fc61271060015434610909919061322c565b61091391906131fb565b9081150290604051600060405180830381858888f1935050505015801561093e573d6000803e3d6000fd5b5060008054906101000a900473ffffffffffffffffffffffffffffffffffffffff1673ffffffffffffffffffffffffffffffffffffffff16638da5cb5b6040518163ffffffff1660e01b8152600401602060405180830381865afa1580156109aa573d6000803e3d6000fd5b505050506040513d601f19601f820116820180604052508101906109ce91906134a7565b73ffffffffffffffffffffffffffffffffffffffff166108fc6127106001546127106109fa91906134d4565b34610a05919061322c565b610a0f91906131fb565b9081150290604051600060405180830381858888f19350505050158015610a3a573d6000803e3d6000fd5b505050565b610a47611ebf565b610a5082611fa5565b610a5a8282611fb0565b5050565b6000610a686120cf565b7f360894a13ba1a3210667c828492db98dca3e2076cc3735a920a3ca505d382bbc60001b905090565b60008060009054906101000a900473ffffffffffffffffffffffffffffffffffffffff1673ffffffffffffffffffffffffffffffffffffffff1663b199fa71848060000190610ae09190613517565b6040518363ffffffff1660e01b8152600401610afd9291906135a7565b600060405180830381865afa158015610b1a573d6000803e3d6000fd5b505050506040513d6000823e3d601f19601f82011682018060405250810190610b439190612fa4565b9050610b62816000015160405180602001604052806000815250611ea4565b15610bfa57828060000190610b779190613517565b8080601f016020809104026020016040519081016040528093929190818152602001838380828437600081840152601f19601f8201169050808301925050505050505081600001819052508260200160000135816020018181525050826020016020013581606001818152505082602001604001358160a0018181525050610fe4565b610c17816000015160405180602001604052806000815250611ea4565b158015610c54575080610120015173ffffffffffffffffffffffffffffffffffffffff163373ffffffffffffffffffffffffffffffffffffffff16145b15610fa95782602001600001358160200151148015610c7d575082602001602001358160600151145b8015610c93575082602001604001358160a00151145b610cd2576040517f08c379a0000000000000000000000000000000000000000000000000000000008152600401610cc990613617565b60405180910390fd5b6201518082610ce191906131fb565b8160600151610cf0919061322c565b3414610d31576040517f08c379a0000000000000000000000000000000000000000000000000000000008152600401610d28906132ba565b60405180910390fd5b60001515816101000151151514610d7d576040517f08c379a0000000000000000000000000000000000000000000000000000000008152600401610d74906136a9565b60405180910390fd5b428160c001518260800151610d9291906136c9565b10610dd2576040517f08c379a0000000000000000000000000000000000000000000000000000000008152600401610dc99061376f565b60405180910390fd5b81816080018181525050428160c00181815250506000816101000190151590811515815250503381610120019073ffffffffffffffffffffffffffffffffffffffff16908173ffffffffffffffffffffffffffffffffffffffff168152505060008054906101000a900473ffffffffffffffffffffffffffffffffffffffff1673ffffffffffffffffffffffffffffffffffffffff1663c58962aa848060000190610e7d9190613517565b846040518463ffffffff1660e01b8152600401610e9c9392919061378f565b600060405180830381600087803b158015610eb657600080fd5b505af1158015610eca573d6000803e3d6000fd5b5050505060008054906101000a900473ffffffffffffffffffffffffffffffffffffffff1673ffffffffffffffffffffffffffffffffffffffff16638da5cb5b6040518163ffffffff1660e01b8152600401602060405180830381865afa158015610f39573d6000803e3d6000fd5b505050506040513d601f19601f82011682018060405250810190610f5d91906134a7565b73ffffffffffffffffffffffffffffffffffffffff166108fc349081150290604051600060405180830381858888f19350505050158015610fa2573d6000803e3d6000fd5b50506116bf565b6040517ffa45cc87000000000000000000000000000000000000000000000000000000008152600401610fdb9061383a565b60405180910390fd5b6201518082610ff391906131fb565b8160600151611002919061322c565b3414611043576040517f08c379a000000000000000000000000000000000000000000000000000000000815260040161103a906132ba565b60405180910390fd5b60008060009054906101000a900473ffffffffffffffffffffffffffffffffffffffff1673ffffffffffffffffffffffffffffffffffffffff1662fdd58e611089611a44565b86602001600001356040518363ffffffff1660e01b81526004016110ae92919061385a565b602060405180830381865afa1580156110cb573d6000803e3d6000fd5b505050506040513d601f19601f820116820180604052508101906110ef9190613883565b111561127b576000600167ffffffffffffffff81111561111257611111612890565b5b6040519080825280602002602001820160405280156111405781602001602082028036833780820191505090505b50905083602001600001358160008151811061115f5761115e6138b0565b5b6020026020010181815250506000600167ffffffffffffffff81111561118857611187612890565b5b6040519080825280602002602001820160405280156111b65781602001602082028036833780820191505090505b5090506001816000815181106111cf576111ce6138b0565b5b60200260200101818152505060008054906101000a900473ffffffffffffffffffffffffffffffffffffffff1673ffffffffffffffffffffffffffffffffffffffff16639ecfc1b66000611221611a44565b85856040518563ffffffff1660e01b8152600401611242949392919061398e565b600060405180830381600087803b15801561125c57600080fd5b505af1158015611270573d6000803e3d6000fd5b50505050505061131a565b60008054906101000a900473ffffffffffffffffffffffffffffffffffffffff1673ffffffffffffffffffffffffffffffffffffffff1663fb9812fc6112bf611a44565b856020016000013560016040518463ffffffff1660e01b81526004016112e793929190613a38565b600060405180830381600087803b15801561130157600080fd5b505af1158015611315573d6000803e3d6000fd5b505050505b81816080018181525050428160c00181815250506000816101000190151590811515815250503381610120019073ffffffffffffffffffffffffffffffffffffffff16908173ffffffffffffffffffffffffffffffffffffffff168152505060008054906101000a900473ffffffffffffffffffffffffffffffffffffffff1673ffffffffffffffffffffffffffffffffffffffff1662fdd58e6113bc611a44565b85602001600001356040518363ffffffff1660e01b81526004016113e192919061385a565b602060405180830381865afa1580156113fe573d6000803e3d6000fd5b505050506040513d601f19601f820116820180604052508101906114229190613883565b81604001818152505060008054906101000a900473ffffffffffffffffffffffffffffffffffffffff1673ffffffffffffffffffffffffffffffffffffffff1663c58962aa8480600001906114779190613517565b846040518463ffffffff1660e01b81526004016114969392919061378f565b600060405180830381600087803b1580156114b057600080fd5b505af11580156114c4573d6000803e3d6000fd5b5050505060008054906101000a900473ffffffffffffffffffffffffffffffffffffffff1673ffffffffffffffffffffffffffffffffffffffff1663f17877823383600001516040518363ffffffff1660e01b8152600401611527929190613477565b600060405180830381600087803b15801561154157600080fd5b505af1158015611555573d6000803e3d6000fd5b5050505060008054906101000a900473ffffffffffffffffffffffffffffffffffffffff1673ffffffffffffffffffffffffffffffffffffffff1663f2af91af82600001516040518263ffffffff1660e01b81526004016115b69190612d7e565b600060405180830381600087803b1580156115d057600080fd5b505af11580156115e4573d6000803e3d6000fd5b5050505060008054906101000a900473ffffffffffffffffffffffffffffffffffffffff1673ffffffffffffffffffffffffffffffffffffffff16638da5cb5b6040518163ffffffff1660e01b8152600401602060405180830381865afa158015611653573d6000803e3d6000fd5b505050506040513d601f19601f8201168201806040525081019061167791906134a7565b73ffffffffffffffffffffffffffffffffffffffff166108fc349081150290604051600060405180830381858888f193505050501580156116bc573d6000803e3d6000fd5b50505b5050565b6000600154905090565b6116d5612156565b6113888110611719576040517f08c379a000000000000000000000000000000000000000000000000000000000815260040161171090613ace565b60405180910390fd5b8060018190555050565b61172b612156565b61173560006121dd565b565b60008060009054906101000a900473ffffffffffffffffffffffffffffffffffffffff1673ffffffffffffffffffffffffffffffffffffffff1663b199fa71846040518263ffffffff1660e01b81526004016117939190612d7e565b600060405180830381865afa1580156117b0573d6000803e3d6000fd5b505050506040513d6000823e3d601f19601f820116820180604052508101906117d99190612fa4565b90506117e9838260000151611ea4565b611828576040517f08c379a000000000000000000000000000000000000000000000000000000000815260040161181f90613039565b60405180910390fd5b3373ffffffffffffffffffffffffffffffffffffffff1681610120015173ffffffffffffffffffffffffffffffffffffffff161461189b576040517f08c379a000000000000000000000000000000000000000000000000000000000815260040161189290613b3a565b60405180910390fd5b428160c0015182608001516118b091906136c9565b116118f0576040517f08c379a00000000000000000000000000000000000000000000000000000000081526004016118e790613bcc565b60405180910390fd5b600073ffffffffffffffffffffffffffffffffffffffff1681610140015173ffffffffffffffffffffffffffffffffffffffff1614611964576040517f08c379a000000000000000000000000000000000000000000000000000000000815260040161195b90613c38565b60405180910390fd5b8060c001514261197491906134d4565b816080015161198391906134d4565b81608001818152505081816060018181525050600181610100019015159081151581525050428160e001818152505060008054906101000a900473ffffffffffffffffffffffffffffffffffffffff1673ffffffffffffffffffffffffffffffffffffffff1663c58962aa84836040518363ffffffff1660e01b8152600401611a0d929190613440565b600060405180830381600087803b158015611a2757600080fd5b505af1158015611a3b573d6000803e3d6000fd5b50505050505050565b600080611a4f6122b4565b90508060000160009054906101000a900473ffffffffffffffffffffffffffffffffffffffff1691505090565b6040518060400160405280600581526020017f352e302e3000000000000000000000000000000000000000000000000000000081525081565b60008060009054906101000a900473ffffffffffffffffffffffffffffffffffffffff1673ffffffffffffffffffffffffffffffffffffffff1663b199fa71836040518263ffffffff1660e01b8152600401611b119190612d7e565b600060405180830381865afa158015611b2e573d6000803e3d6000fd5b505050506040513d6000823e3d601f19601f82011682018060405250810190611b579190612fa4565b9050611b67828260000151611ea4565b611ba6576040517f08c379a0000000000000000000000000000000000000000000000000000000008152600401611b9d90613039565b60405180910390fd5b3373ffffffffffffffffffffffffffffffffffffffff1681610120015173ffffffffffffffffffffffffffffffffffffffff1614611c19576040517f08c379a0000000000000000000000000000000000000000000000000000000008152600401611c1090613b3a565b60405180910390fd5b60011515816101000151151514611c65576040517f08c379a0000000000000000000000000000000000000000000000000000000008152600401611c5c90613111565b60405180910390fd5b60008160e0015111611cac576040517f08c379a0000000000000000000000000000000000000000000000000000000008152600401611ca390613ca4565b60405180910390fd5b600073ffffffffffffffffffffffffffffffffffffffff1681610140015173ffffffffffffffffffffffffffffffffffffffff1614611d20576040517f08c379a0000000000000000000000000000000000000000000000000000000008152600401611d1790613c38565b60405180910390fd5b60008161010001901515908115158152505060008160e0018181525050428160c001818152505060008054906101000a900473ffffffffffffffffffffffffffffffffffffffff1673ffffffffffffffffffffffffffffffffffffffff1663c58962aa83836040518363ffffffff1660e01b8152600401611da2929190613440565b600060405180830381600087803b158015611dbc57600080fd5b505af1158015611dd0573d6000803e3d6000fd5b505050505050565b611de0612156565b600073ffffffffffffffffffffffffffffffffffffffff168173ffffffffffffffffffffffffffffffffffffffff1603611e525760006040517f1e4fbdf7000000000000000000000000000000000000000000000000000000008152600401611e499190612bd6565b60405180910390fd5b611e5b816121dd565b50565b60007ff0c57e16840df040f15088dc2f81fe391c3923bec73e23a9662efc9c229c6a00905090565b611e8e6122dc565b611e978161231c565b50565b611ea26122dc565b565b60008180519060200120838051906020012014905092915050565b7f000000000000000000000000000000000000000000000000000000000000000073ffffffffffffffffffffffffffffffffffffffff163073ffffffffffffffffffffffffffffffffffffffff161480611f6c57507f000000000000000000000000000000000000000000000000000000000000000073ffffffffffffffffffffffffffffffffffffffff16611f536123a2565b73ffffffffffffffffffffffffffffffffffffffff1614155b15611fa3576040517fe07c8dba00000000000000000000000000000000000000000000000000000000815260040160405180910390fd5b565b611fad612156565b50565b8173ffffffffffffffffffffffffffffffffffffffff166352d1902d6040518163ffffffff1660e01b8152600401602060405180830381865afa92505050801561201857506040513d601f19601f820116820180604052508101906120159190613cf0565b60015b61205957816040517f4c9c8ce30000000000000000000000000000000000000000000000000000000081526004016120509190612bd6565b60405180910390fd5b7f360894a13ba1a3210667c828492db98dca3e2076cc3735a920a3ca505d382bbc60001b81146120c057806040517faa1d49a40000000000000000000000000000000000000000000000000000000081526004016120b79190612a79565b60405180910390fd5b6120ca83836123f9565b505050565b7f000000000000000000000000000000000000000000000000000000000000000073ffffffffffffffffffffffffffffffffffffffff163073ffffffffffffffffffffffffffffffffffffffff1614612154576040517fe07c8dba00000000000000000000000000000000000000000000000000000000815260040160405180910390fd5b565b61215e61246c565b73ffffffffffffffffffffffffffffffffffffffff1661217c611a44565b73ffffffffffffffffffffffffffffffffffffffff16146121db5761219f61246c565b6040517f118cdaa70000000000000000000000000000000000000000000000000000000081526004016121d29190612bd6565b60405180910390fd5b565b60006121e76122b4565b905060008160000160009054906101000a900473ffffffffffffffffffffffffffffffffffffffff169050828260000160006101000a81548173ffffffffffffffffffffffffffffffffffffffff021916908373ffffffffffffffffffffffffffffffffffffffff1602179055508273ffffffffffffffffffffffffffffffffffffffff168173ffffffffffffffffffffffffffffffffffffffff167f8be0079c531659141344cd1fd0a4f28419497f9722a3daafe3b4186f6b6457e060405160405180910390a3505050565b60007f9016d09d72d40fdae2fd8ceac6b6234c7706214fd39c1cd1e609a0528c199300905090565b6122e4612474565b61231a576040517fd7e6bcf800000000000000000000000000000000000000000000000000000000815260040160405180910390fd5b565b6123246122dc565b600073ffffffffffffffffffffffffffffffffffffffff168173ffffffffffffffffffffffffffffffffffffffff16036123965760006040517f1e4fbdf700000000000000000000000000000000000000000000000000000000815260040161238d9190612bd6565b60405180910390fd5b61239f816121dd565b50565b60006123d07f360894a13ba1a3210667c828492db98dca3e2076cc3735a920a3ca505d382bbc60001b612494565b60000160009054906101000a900473ffffffffffffffffffffffffffffffffffffffff16905090565b6124028261249e565b8173ffffffffffffffffffffffffffffffffffffffff167fbc7cd75a20ee27fd9adebab32041f755214dbc6bffa90cc0225b39da2e5c2d3b60405160405180910390a260008151111561245f57612459828261256b565b50612468565b6124676125ef565b5b5050565b600033905090565b600061247e611e5e565b60000160089054906101000a900460ff16905090565b6000819050919050565b60008173ffffffffffffffffffffffffffffffffffffffff163b036124fa57806040517f4c9c8ce30000000000000000000000000000000000000000000000000000000081526004016124f19190612bd6565b60405180910390fd5b806125277f360894a13ba1a3210667c828492db98dca3e2076cc3735a920a3ca505d382bbc60001b612494565b60000160006101000a81548173ffffffffffffffffffffffffffffffffffffffff021916908373ffffffffffffffffffffffffffffffffffffffff16021790555050565b60606000808473ffffffffffffffffffffffffffffffffffffffff16846040516125959190613d59565b600060405180830381855af49150503d80600081146125d0576040519150601f19603f3d011682016040523d82523d6000602084013e6125d5565b606091505b50915091506125e585838361262c565b9250505092915050565b600034111561262a576040517fb398979f00000000000000000000000000000000000000000000000000000000815260040160405180910390fd5b565b6060826126415761263c826126bb565b6126b3565b60008251148015612669575060008473ffffffffffffffffffffffffffffffffffffffff163b145b156126ab57836040517f9996b3150000000000000000000000000000000000000000000000000000000081526004016126a29190612bd6565b60405180910390fd5b8190506126b4565b5b9392505050565b6000815111156126ce5780518082602001fd5b6040517f1425ea4200000000000000000000000000000000000000000000000000000000815260040160405180910390fd5b600073ffffffffffffffffffffffffffffffffffffffff82169050919050565b6000819050919050565b600061274561274061273b84612700565b612720565b612700565b9050919050565b60006127578261272a565b9050919050565b60006127698261274c565b9050919050565b6127798161275e565b82525050565b60006020820190506127946000830184612770565b92915050565b6000604051905090565b600080fd5b600080fd5b60006127b982612700565b9050919050565b6127c9816127ae565b81146127d457600080fd5b50565b6000813590506127e6816127c0565b92915050565b6000819050919050565b6127ff816127ec565b811461280a57600080fd5b50565b60008135905061281c816127f6565b92915050565b60008060006060848603121561283b5761283a6127a4565b5b6000612849868287016127d7565b935050602061285a868287016127d7565b925050604061286b8682870161280d565b9150509250925092565b600080fd5b600080fd5b6000601f19601f8301169050919050565b7f4e487b7100000000000000000000000000000000000000000000000000000000600052604160045260246000fd5b6128c88261287f565b810181811067ffffffffffffffff821117156128e7576128e6612890565b5b80604052505050565b60006128fa61279a565b905061290682826128bf565b919050565b600067ffffffffffffffff82111561292657612925612890565b5b61292f8261287f565b9050602081019050919050565b82818337600083830152505050565b600061295e6129598461290b565b6128f0565b90508281526020810184848401111561297a5761297961287a565b5b61298584828561293c565b509392505050565b600082601f8301126129a2576129a1612875565b5b81356129b284826020860161294b565b91505092915050565b6000602082840312156129d1576129d06127a4565b5b600082013567ffffffffffffffff8111156129ef576129ee6127a9565b5b6129fb8482850161298d565b91505092915050565b60008060408385031215612a1b57612a1a6127a4565b5b6000612a29858286016127d7565b925050602083013567ffffffffffffffff811115612a4a57612a496127a9565b5b612a568582860161298d565b9150509250929050565b6000819050919050565b612a7381612a60565b82525050565b6000602082019050612a8e6000830184612a6a565b92915050565b600080fd5b600060808284031215612aaf57612aae612a94565b5b81905092915050565b60008060408385031215612acf57612ace6127a4565b5b600083013567ffffffffffffffff811115612aed57612aec6127a9565b5b612af985828601612a99565b9250506020612b0a8582860161280d565b9150509250929050565b612b1d816127ec565b82525050565b6000602082019050612b386000830184612b14565b92915050565b600060208284031215612b5457612b536127a4565b5b6000612b628482850161280d565b91505092915050565b60008060408385031215612b8257612b816127a4565b5b600083013567ffffffffffffffff811115612ba057612b9f6127a9565b5b612bac8582860161298d565b9250506020612bbd8582860161280d565b9150509250929050565b612bd0816127ae565b82525050565b6000602082019050612beb6000830184612bc7565b92915050565b600081519050919050565b600082825260208201905092915050565b60005b83811015612c2b578082015181840152602081019050612c10565b60008484015250505050565b6000612c4282612bf1565b612c4c8185612bfc565b9350612c5c818560208601612c0d565b612c658161287f565b840191505092915050565b60006020820190508181036000830152612c8a8184612c37565b905092915050565b600060208284031215612ca857612ca76127a4565b5b6000612cb6848285016127d7565b91505092915050565b6000819050919050565b600067ffffffffffffffff82169050919050565b6000612cf8612cf3612cee84612cbf565b612720565b612cc9565b9050919050565b612d0881612cdd565b82525050565b6000602082019050612d236000830184612cff565b92915050565b600081519050919050565b600082825260208201905092915050565b6000612d5082612d29565b612d5a8185612d34565b9350612d6a818560208601612c0d565b612d738161287f565b840191505092915050565b60006020820190508181036000830152612d988184612d45565b905092915050565b600080fd5b600080fd5b6000612dbd612db88461290b565b6128f0565b905082815260208101848484011115612dd957612dd861287a565b5b612de4848285612c0d565b509392505050565b600082601f830112612e0157612e00612875565b5b8151612e11848260208601612daa565b91505092915050565b600081519050612e29816127f6565b92915050565b60008115159050919050565b612e4481612e2f565b8114612e4f57600080fd5b50565b600081519050612e6181612e3b565b92915050565b600081519050612e76816127c0565b92915050565b60006101608284031215612e9357612e92612da0565b5b612e9e6101606128f0565b9050600082015167ffffffffffffffff811115612ebe57612ebd612da5565b5b612eca84828501612dec565b6000830152506020612ede84828501612e1a565b6020830152506040612ef284828501612e1a565b6040830152506060612f0684828501612e1a565b6060830152506080612f1a84828501612e1a565b60808301525060a0612f2e84828501612e1a565b60a08301525060c0612f4284828501612e1a565b60c08301525060e0612f5684828501612e1a565b60e083015250610100612f6b84828501612e52565b61010083015250610120612f8184828501612e67565b61012083015250610140612f9784828501612e67565b6101408301525092915050565b600060208284031215612fba57612fb96127a4565b5b600082015167ffffffffffffffff811115612fd857612fd76127a9565b5b612fe484828501612e7c565b91505092915050565b7f496e76616c696420636f75727365496400000000000000000000000000000000600082015250565b6000613023601083612bfc565b915061302e82612fed565b602082019050919050565b6000602082019050818103600083015261305281613016565b9050919050565b7f436f75727365206e6f74206c6973746564206f6e206d61726b6574706c616365600082015250565b600061308f602083612bfc565b915061309a82613059565b602082019050919050565b600060208201905081810360008301526130be81613082565b9050919050565b7f436f75727365206973206e6f74206c6973746564000000000000000000000000600082015250565b60006130fb601483612bfc565b9150613106826130c5565b602082019050919050565b6000602082019050818103600083015261312a816130ee565b9050919050565b7f436f7572736520616c726561647920736f6c6400000000000000000000000000600082015250565b6000613167601383612bfc565b915061317282613131565b602082019050919050565b600060208201905081810360008301526131968161315a565b9050919050565b7f4e487b7100000000000000000000000000000000000000000000000000000000600052601260045260246000fd5b7f4e487b7100000000000000000000000000000000000000000000000000000000600052601160045260246000fd5b6000613206826127ec565b9150613211836127ec565b9250826132215761322061319d565b5b828204905092915050565b6000613237826127ec565b9150613242836127ec565b9250828202613250816127ec565b91508282048414831517613267576132666131cc565b5b5092915050565b7f496e73756666696369656e7420616d6f756e7400000000000000000000000000600082015250565b60006132a4601383612bfc565b91506132af8261326e565b602082019050919050565b600060208201905081810360008301526132d381613297565b9050919050565b600082825260208201905092915050565b60006132f682612d29565b61330081856132da565b9350613310818560208601612c0d565b6133198161287f565b840191505092915050565b61332d816127ec565b82525050565b61333c81612e2f565b82525050565b61334b816127ae565b82525050565b600061016083016000830151848203600086015261336f82826132eb565b91505060208301516133846020860182613324565b5060408301516133976040860182613324565b5060608301516133aa6060860182613324565b5060808301516133bd6080860182613324565b5060a08301516133d060a0860182613324565b5060c08301516133e360c0860182613324565b5060e08301516133f660e0860182613324565b5061010083015161340b610100860182613333565b50610120830151613420610120860182613342565b50610140830151613435610140860182613342565b508091505092915050565b6000604082019050818103600083015261345a8185612d45565b9050818103602083015261346e8184613351565b90509392505050565b600060408201905061348c6000830185612bc7565b818103602083015261349e8184612d45565b90509392505050565b6000602082840312156134bd576134bc6127a4565b5b60006134cb84828501612e67565b91505092915050565b60006134df826127ec565b91506134ea836127ec565b9250828203905081811115613502576135016131cc565b5b92915050565b600080fd5b600080fd5b600080fd5b6000808335600160200384360303811261353457613533613508565b5b80840192508235915067ffffffffffffffff8211156135565761355561350d565b5b60208301925060018202360383131561357257613571613512565b5b509250929050565b60006135868385612d34565b935061359383858461293c565b61359c8361287f565b840190509392505050565b600060208201905081810360008301526135c281848661357a565b90509392505050565b7f436f757273652064657461696c732063616e6e6f74206265206368616e676564600082015250565b6000613601602083612bfc565b915061360c826135cb565b602082019050919050565b60006020820190508181036000830152613630816135f4565b9050919050565b7f436f75727365206973206c697374656420666f722073616c652c20796f75206360008201527f616e277420627579206e6f772e00000000000000000000000000000000000000602082015250565b6000613693602d83612bfc565b915061369e82613637565b604082019050919050565b600060208201905081810360008301526136c281613686565b9050919050565b60006136d4826127ec565b91506136df836127ec565b92508282019050808211156136f7576136f66131cc565b5b92915050565b7f436f75727365206973207374696c6c206163746976652c20796f752063616e2760008201527f7420627579206e6f772e00000000000000000000000000000000000000000000602082015250565b6000613759602a83612bfc565b9150613764826136fd565b604082019050919050565b600060208201905081810360008301526137888161374c565b9050919050565b600060408201905081810360008301526137aa81858761357a565b905081810360208301526137be8184613351565b9050949350505050565b7f5468697320636f7572736520697320616c7265616479206f776e65642062792060008201527f616e6f7468657220757365720000000000000000000000000000000000000000602082015250565b6000613824602c83612bfc565b915061382f826137c8565b604082019050919050565b6000602082019050818103600083015261385381613817565b9050919050565b600060408201905061386f6000830185612bc7565b61387c6020830184612b14565b9392505050565b600060208284031215613899576138986127a4565b5b60006138a784828501612e1a565b91505092915050565b7f4e487b7100000000000000000000000000000000000000000000000000000000600052603260045260246000fd5b600081519050919050565b600082825260208201905092915050565b6000819050602082019050919050565b60006139178383613324565b60208301905092915050565b6000602082019050919050565b600061393b826138df565b61394581856138ea565b9350613950836138fb565b8060005b83811015613981578151613968888261390b565b975061397383613923565b925050600181019050613954565b5085935050505092915050565b60006080820190506139a36000830187612bc7565b6139b06020830186612bc7565b81810360408301526139c28185613930565b905081810360608301526139d68184613930565b905095945050505050565b60006139fc6139f76139f284612cbf565b612720565b6127ec565b9050919050565b613a0c816139e1565b82525050565b50565b6000613a22600083612d34565b9150613a2d82613a12565b600082019050919050565b6000608082019050613a4d6000830186612bc7565b613a5a6020830185612b14565b613a676040830184613a03565b8181036060830152613a7881613a15565b9050949350505050565b7f526f79616c74792063616e6e6f74206265206d6f7265207468616e2035302500600082015250565b6000613ab8601f83612bfc565b9150613ac382613a82565b602082019050919050565b60006020820190508181036000830152613ae781613aab565b9050919050565b7f596f7520646f6e277420686f6c64207468697320636f75727365000000000000600082015250565b6000613b24601a83612bfc565b9150613b2f82613aee565b602082019050919050565b60006020820190508181036000830152613b5381613b17565b9050919050565b7f596f75206861766520636f6d706c657465642074686520636f7572736520647560008201527f726174696f6e0000000000000000000000000000000000000000000000000000602082015250565b6000613bb6602683612bfc565b9150613bc182613b5a565b604082019050919050565b60006020820190508181036000830152613be581613ba9565b9050919050565b7f436f7572736520616c7265616479207265736f6c640000000000000000000000600082015250565b6000613c22601583612bfc565b9150613c2d82613bec565b602082019050919050565b60006020820190508181036000830152613c5181613c15565b9050919050565b7f436f75727365206973206e6f7420706175736564000000000000000000000000600082015250565b6000613c8e601483612bfc565b9150613c9982613c58565b602082019050919050565b60006020820190508181036000830152613cbd81613c81565b9050919050565b613ccd81612a60565b8114613cd857600080fd5b50565b600081519050613cea81613cc4565b92915050565b600060208284031215613d0657613d056127a4565b5b6000613d1484828501613cdb565b91505092915050565b600081905092915050565b6000613d3382612d29565b613d3d8185613d1d565b9350613d4d818560208601612c0d565b80840191505092915050565b6000613d658284613d28565b91508190509291505056fea264697066735822122038ee57c2c06674385332c8f60f5011057cb15a5564eebdd55407fd9c49eed28264736f6c63430008190033",
  "linkReferences": {},
  "deployedLinkReferences": {}
}