{
  "_format": "hh-sol-artifact-1",
  "contractName": "Market",
  "sourceName": "contracts/V1/Market.sol",
  "abi": [
    {
      "inputs": [],
      "stateMutability": "nonpayable",
      "type": "constructor"
    },
    {
      "inputs": [
        {
          "internalType": "address",
          "name": "target",
          "type": "address"
        }
      ],
      "name": "AddressEmptyCode",
      "type": "error"
    },
    {
      "inputs": [
        {
          "internalType": "string",
          "name": "message",
          "type": "string"
        }
      ],
      "name": "CourseExpired",
      "type": "error"
    },
    {
      "inputs": [
        {
          "internalType": "string",
          "name": "message",
          "type": "string"
        }
      ],
      "name": "CourseIsAlreadyOwner",
      "type": "error"
    },
    {
      "inputs": [
        {
          "internalType": "address",
          "name": "implementation",
          "type": "address"
        }
      ],
      "name": "ERC1967InvalidImplementation",
      "type": "error"
    },
    {
      "inputs": [],
      "name": "ERC1967NonPayable",
      "type": "error"
    },
    {
      "inputs": [],
      "name": "FailedInnerCall",
      "type": "error"
    },
    {
      "inputs": [
        {
          "internalType": "string",
          "name": "message",
          "type": "string"
        }
      ],
      "name": "InvalidCourseId",
      "type": "error"
    },
    {
      "inputs": [
        {
          "internalType": "string",
          "name": "message",
          "type": "string"
        }
      ],
      "name": "InvalidDuration",
      "type": "error"
    },
    {
      "inputs": [],
      "name": "InvalidInitialization",
      "type": "error"
    },
    {
      "inputs": [
        {
          "internalType": "string",
          "name": "message",
          "type": "string"
        }
      ],
      "name": "InvalidPrice",
      "type": "error"
    },
    {
      "inputs": [
        {
          "internalType": "string",
          "name": "message",
          "type": "string"
        }
      ],
      "name": "NotCourseOwner",
      "type": "error"
    },
    {
      "inputs": [],
      "name": "NotInitializing",
      "type": "error"
    },
    {
      "inputs": [
        {
          "internalType": "string",
          "name": "message",
          "type": "string"
        }
      ],
      "name": "NotNFTHolder",
      "type": "error"
    },
    {
      "inputs": [
        {
          "internalType": "address",
          "name": "owner",
          "type": "address"
        }
      ],
      "name": "OwnableInvalidOwner",
      "type": "error"
    },
    {
      "inputs": [
        {
          "internalType": "address",
          "name": "account",
          "type": "address"
        }
      ],
      "name": "OwnableUnauthorizedAccount",
      "type": "error"
    },
    {
      "inputs": [],
      "name": "UUPSUnauthorizedCallContext",
      "type": "error"
    },
    {
      "inputs": [
        {
          "internalType": "bytes32",
          "name": "slot",
          "type": "bytes32"
        }
      ],
      "name": "UUPSUnsupportedProxiableUUID",
      "type": "error"
    },
    {
      "anonymous": false,
      "inputs": [
        {
          "indexed": false,
          "internalType": "uint64",
          "name": "version",
          "type": "uint64"
        }
      ],
      "name": "Initialized",
      "type": "event"
    },
    {
      "anonymous": false,
      "inputs": [
        {
          "indexed": true,
          "internalType": "address",
          "name": "previousOwner",
          "type": "address"
        },
        {
          "indexed": true,
          "internalType": "address",
          "name": "newOwner",
          "type": "address"
        }
      ],
      "name": "OwnershipTransferred",
      "type": "event"
    },
    {
      "anonymous": false,
      "inputs": [
        {
          "indexed": true,
          "internalType": "address",
          "name": "implementation",
          "type": "address"
        }
      ],
      "name": "Upgraded",
      "type": "event"
    },
    {
      "inputs": [],
      "name": "CourseNft",
      "outputs": [
        {
          "internalType": "contract Course",
          "name": "",
          "type": "address"
        }
      ],
      "stateMutability": "view",
      "type": "function"
    },
    {
      "inputs": [],
      "name": "UPGRADE_INTERFACE_VERSION",
      "outputs": [
        {
          "internalType": "string",
          "name": "",
          "type": "string"
        }
      ],
      "stateMutability": "view",
      "type": "function"
    },
    {
      "inputs": [
        {
          "components": [
            {
              "internalType": "bytes",
              "name": "courseId",
              "type": "bytes"
            },
            {
              "components": [
                {
                  "internalType": "uint256",
                  "name": "id",
                  "type": "uint256"
                },
                {
                  "internalType": "string",
                  "name": "dbId",
                  "type": "string"
                },
                {
                  "internalType": "uint256",
                  "name": "price",
                  "type": "uint256"
                },
                {
                  "internalType": "uint256",
                  "name": "recommendedDuration",
                  "type": "uint256"
                }
              ],
              "internalType": "struct IMarket.CourseDetails",
              "name": "details",
              "type": "tuple"
            }
          ],
          "internalType": "struct IMarket.BuyCourseRequest",
          "name": "course",
          "type": "tuple"
        },
        {
          "internalType": "uint256",
          "name": "duration",
          "type": "uint256"
        }
      ],
      "name": "buyCourse",
      "outputs": [],
      "stateMutability": "payable",
      "type": "function"
    },
    {
      "inputs": [
        {
          "internalType": "bytes",
          "name": "courseId",
          "type": "bytes"
        }
      ],
      "name": "buyFromMarket",
      "outputs": [],
      "stateMutability": "payable",
      "type": "function"
    },
    {
      "inputs": [],
      "name": "getRoyaltyPercentage",
      "outputs": [
        {
          "internalType": "uint256",
          "name": "",
          "type": "uint256"
        }
      ],
      "stateMutability": "view",
      "type": "function"
    },
    {
      "inputs": [
        {
          "internalType": "address",
          "name": "initialOwner",
          "type": "address"
        },
        {
          "internalType": "address",
          "name": "courseNftAddress",
          "type": "address"
        },
        {
          "internalType": "uint256",
          "name": "royaltyPerc",
          "type": "uint256"
        }
      ],
      "name": "initialize",
      "outputs": [],
      "stateMutability": "nonpayable",
      "type": "function"
    },
    {
      "inputs": [],
      "name": "owner",
      "outputs": [
        {
          "internalType": "address",
          "name": "",
          "type": "address"
        }
      ],
      "stateMutability": "view",
      "type": "function"
    },
    {
      "inputs": [],
      "name": "proxiableUUID",
      "outputs": [
        {
          "internalType": "bytes32",
          "name": "",
          "type": "bytes32"
        }
      ],
      "stateMutability": "view",
      "type": "function"
    },
    {
      "inputs": [
        {
          "internalType": "bytes",
          "name": "courseId",
          "type": "bytes"
        }
      ],
      "name": "removeFromMarket",
      "outputs": [],
      "stateMutability": "nonpayable",
      "type": "function"
    },
    {
      "inputs": [],
      "name": "renounceOwnership",
      "outputs": [],
      "stateMutability": "nonpayable",
      "type": "function"
    },
    {
      "inputs": [
        {
          "internalType": "bytes",
          "name": "courseId",
          "type": "bytes"
        },
        {
          "internalType": "uint256",
          "name": "price",
          "type": "uint256"
        }
      ],
      "name": "sellCourse",
      "outputs": [],
      "stateMutability": "nonpayable",
      "type": "function"
    },
    {
      "inputs": [
        {
          "internalType": "uint256",
          "name": "_royalty",
          "type": "uint256"
        }
      ],
      "name": "setRoyaltyPercentage",
      "outputs": [],
      "stateMutability": "nonpayable",
      "type": "function"
    },
    {
      "inputs": [
        {
          "internalType": "address",
          "name": "newOwner",
          "type": "address"
        }
      ],
      "name": "transferOwnership",
      "outputs": [],
      "stateMutability": "nonpayable",
      "type": "function"
    },
    {
      "inputs": [
        {
          "internalType": "address",
          "name": "newImplementation",
          "type": "address"
        },
        {
          "internalType": "bytes",
          "name": "data",
          "type": "bytes"
        }
      ],
      "name": "upgradeToAndCall",
      "outputs": [],
      "stateMutability": "payable",
      "type": "function"
    }
  ],
  "bytecode": "0x60a06040523073ffffffffffffffffffffffffffffffffffffffff1660809073ffffffffffffffffffffffffffffffffffffffff1681525034801561004357600080fd5b5061005261005760201b60201c565b6101c1565b600061006761015b60201b60201c565b90508060000160089054906101000a900460ff16156100b2576040517ff92ee8a900000000000000000000000000000000000000000000000000000000815260040160405180910390fd5b67ffffffffffffffff80168160000160009054906101000a900467ffffffffffffffff1667ffffffffffffffff16146101585767ffffffffffffffff8160000160006101000a81548167ffffffffffffffff021916908367ffffffffffffffff1602179055507fc7f505b2f371ae2175ee4913f4499e1f2633a7b5936321eed1cdaeb6115181d267ffffffffffffffff60405161014f91906101a6565b60405180910390a15b50565b60007ff0c57e16840df040f15088dc2f81fe391c3923bec73e23a9662efc9c229c6a00905090565b600067ffffffffffffffff82169050919050565b6101a081610183565b82525050565b60006020820190506101bb6000830184610197565b92915050565b6080516140cc6101ea6000396000818161202301528181612078015261223301526140cc6000f3fe6080604052600436106100dd5760003560e01c8063715018a61161007f578063ad3cb1cc11610059578063ad3cb1cc14610258578063e173854014610283578063f0ebc53a146102ac578063f2fde38b146102c8576100dd565b8063715018a6146101ed578063815e3b07146102045780638da5cb5b1461022d576100dd565b80634f1ef286116100bb5780634f1ef2861461015257806352d1902d1461016e57806359c8b7dd1461019957806361ba27da146101c4576100dd565b80630fda88c2146100e25780631794bb3c1461010d5780631d0427ee14610136575b600080fd5b3480156100ee57600080fd5b506100f76102f1565b60405161010491906128e1565b60405180910390f35b34801561011957600080fd5b50610134600480360381019061012f9190612984565b610315565b005b610150600480360381019061014b9190612b1d565b6104f5565b005b61016c60048036038101906101679190612b66565b610a43565b005b34801561017a57600080fd5b50610183610a62565b6040516101909190612bdb565b60405180910390f35b3480156101a557600080fd5b506101ae610a95565b6040516101bb9190612c05565b60405180910390f35b3480156101d057600080fd5b506101eb60048036038101906101e69190612c20565b610a9f565b005b3480156101f957600080fd5b50610202610af5565b005b34801561021057600080fd5b5061022b60048036038101906102269190612c4d565b610b09565b005b34801561023957600080fd5b50610242610e17565b60405161024f9190612cb8565b60405180910390f35b34801561026457600080fd5b5061026d610e4f565b60405161027a9190612d52565b60405180910390f35b34801561028f57600080fd5b506102aa60048036038101906102a59190612b1d565b610e88565b005b6102c660048036038101906102c19190612d98565b6111ad565b005b3480156102d457600080fd5b506102ef60048036038101906102ea9190612df4565b611f3a565b005b60008054906101000a900473ffffffffffffffffffffffffffffffffffffffff1681565b600061031f611fc0565b905060008160000160089054906101000a900460ff1615905060008260000160009054906101000a900467ffffffffffffffff1690506000808267ffffffffffffffff1614801561036d5750825b9050600060018367ffffffffffffffff161480156103a2575060003073ffffffffffffffffffffffffffffffffffffffff163b145b9050811580156103b0575080155b156103e7576040517ff92ee8a900000000000000000000000000000000000000000000000000000000815260040160405180910390fd5b60018560000160006101000a81548167ffffffffffffffff021916908367ffffffffffffffff16021790555083156104375760018560000160086101000a81548160ff0219169083151502179055505b61044088611fe8565b610448611ffc565b85600181905550866000806101000a81548173ffffffffffffffffffffffffffffffffffffffff021916908373ffffffffffffffffffffffffffffffffffffffff16021790555083156104eb5760008560000160086101000a81548160ff0219169083151502179055507fc7f505b2f371ae2175ee4913f4499e1f2633a7b5936321eed1cdaeb6115181d260016040516104e29190612e70565b60405180910390a15b5050505050505050565b60008060009054906101000a900473ffffffffffffffffffffffffffffffffffffffff1673ffffffffffffffffffffffffffffffffffffffff1663b199fa71836040518263ffffffff1660e01b81526004016105519190612ee0565b600060405180830381865afa15801561056e573d6000803e3d6000fd5b505050506040513d6000823e3d601f19601f8201168201806040525081019061059791906131d9565b90506105a7828260000151612006565b6105e6576040517f08c379a00000000000000000000000000000000000000000000000000000000081526004016105dd9061326e565b60405180910390fd5b60011515816101200151151514610632576040517f08c379a0000000000000000000000000000000000000000000000000000000008152600401610629906132da565b60405180910390fd5b600081610100015111801561064b575042816101000151105b61068a576040517f08c379a000000000000000000000000000000000000000000000000000000000815260040161068190613346565b60405180910390fd5b600073ffffffffffffffffffffffffffffffffffffffff1681610160015173ffffffffffffffffffffffffffffffffffffffff16146106fe576040517f08c379a00000000000000000000000000000000000000000000000000000000081526004016106f5906133b2565b60405180910390fd5b8060800151620151808260a001516107169190613430565b6107209190613461565b341015610762576040517f08c379a0000000000000000000000000000000000000000000000000000000008152600401610759906134ef565b60405180910390fd5b428160e00181815250506000816101000181815250506000816101200190151590811515815250503381610160019073ffffffffffffffffffffffffffffffffffffffff16908173ffffffffffffffffffffffffffffffffffffffff168152505060008054906101000a900473ffffffffffffffffffffffffffffffffffffffff1673ffffffffffffffffffffffffffffffffffffffff1663fe87cd8183836040518363ffffffff1660e01b815260040161081e9291906136db565b600060405180830381600087803b15801561083857600080fd5b505af115801561084c573d6000803e3d6000fd5b5050505060008054906101000a900473ffffffffffffffffffffffffffffffffffffffff1673ffffffffffffffffffffffffffffffffffffffff1663f178778233846040518363ffffffff1660e01b81526004016108ab929190613712565b600060405180830381600087803b1580156108c557600080fd5b505af11580156108d9573d6000803e3d6000fd5b5050505080610140015173ffffffffffffffffffffffffffffffffffffffff166108fc61271060015461271061090f9190613742565b3461091a9190613461565b6109249190613430565b9081150290604051600060405180830381858888f1935050505015801561094f573d6000803e3d6000fd5b5060008054906101000a900473ffffffffffffffffffffffffffffffffffffffff1673ffffffffffffffffffffffffffffffffffffffff16638da5cb5b6040518163ffffffff1660e01b8152600401602060405180830381865afa1580156109bb573d6000803e3d6000fd5b505050506040513d601f19601f820116820180604052508101906109df9190613776565b73ffffffffffffffffffffffffffffffffffffffff166108fc61271060015434610a099190613461565b610a139190613430565b9081150290604051600060405180830381858888f19350505050158015610a3e573d6000803e3d6000fd5b505050565b610a4b612021565b610a5482612107565b610a5e8282612112565b5050565b6000610a6c612231565b7f360894a13ba1a3210667c828492db98dca3e2076cc3735a920a3ca505d382bbc60001b905090565b6000600154905090565b610aa76122b8565b6113888110610aeb576040517f08c379a0000000000000000000000000000000000000000000000000000000008152600401610ae2906137ef565b60405180910390fd5b8060018190555050565b610afd6122b8565b610b07600061233f565b565b60008060009054906101000a900473ffffffffffffffffffffffffffffffffffffffff1673ffffffffffffffffffffffffffffffffffffffff1663b199fa71846040518263ffffffff1660e01b8152600401610b659190612ee0565b600060405180830381865afa158015610b82573d6000803e3d6000fd5b505050506040513d6000823e3d601f19601f82011682018060405250810190610bab91906131d9565b9050610bbb838260000151612006565b610bfa576040517f08c379a0000000000000000000000000000000000000000000000000000000008152600401610bf19061326e565b60405180910390fd5b3373ffffffffffffffffffffffffffffffffffffffff1681610140015173ffffffffffffffffffffffffffffffffffffffff1614610c6d576040517f08c379a0000000000000000000000000000000000000000000000000000000008152600401610c649061385b565b60405180910390fd5b428160e001518260a00151610c82919061387b565b11610cc2576040517f08c379a0000000000000000000000000000000000000000000000000000000008152600401610cb990613921565b60405180910390fd5b600073ffffffffffffffffffffffffffffffffffffffff1681610160015173ffffffffffffffffffffffffffffffffffffffff1614610d36576040517f08c379a0000000000000000000000000000000000000000000000000000000008152600401610d2d9061398d565b60405180910390fd5b8060e0015142610d469190613742565b8160a00151610d559190613742565b8160a001818152505081816080018181525050600181610120019015159081151581525050428161010001818152505060008054906101000a900473ffffffffffffffffffffffffffffffffffffffff1673ffffffffffffffffffffffffffffffffffffffff1663fe87cd8184836040518363ffffffff1660e01b8152600401610de09291906136db565b600060405180830381600087803b158015610dfa57600080fd5b505af1158015610e0e573d6000803e3d6000fd5b50505050505050565b600080610e22612416565b90508060000160009054906101000a900473ffffffffffffffffffffffffffffffffffffffff1691505090565b6040518060400160405280600581526020017f352e302e3000000000000000000000000000000000000000000000000000000081525081565b60008060009054906101000a900473ffffffffffffffffffffffffffffffffffffffff1673ffffffffffffffffffffffffffffffffffffffff1663b199fa71836040518263ffffffff1660e01b8152600401610ee49190612ee0565b600060405180830381865afa158015610f01573d6000803e3d6000fd5b505050506040513d6000823e3d601f19601f82011682018060405250810190610f2a91906131d9565b9050610f3a828260000151612006565b610f79576040517f08c379a0000000000000000000000000000000000000000000000000000000008152600401610f709061326e565b60405180910390fd5b3373ffffffffffffffffffffffffffffffffffffffff1681610140015173ffffffffffffffffffffffffffffffffffffffff1614610fec576040517f08c379a0000000000000000000000000000000000000000000000000000000008152600401610fe39061385b565b60405180910390fd5b60011515816101200151151514611038576040517f08c379a000000000000000000000000000000000000000000000000000000000815260040161102f90613346565b60405180910390fd5b600081610100015111611080576040517f08c379a0000000000000000000000000000000000000000000000000000000008152600401611077906139f9565b60405180910390fd5b600073ffffffffffffffffffffffffffffffffffffffff1681610160015173ffffffffffffffffffffffffffffffffffffffff16146110f4576040517f08c379a00000000000000000000000000000000000000000000000000000000081526004016110eb9061398d565b60405180910390fd5b600081610120019015159081151581525050600081610100018181525050428160e001818152505060008054906101000a900473ffffffffffffffffffffffffffffffffffffffff1673ffffffffffffffffffffffffffffffffffffffff1663fe87cd8183836040518363ffffffff1660e01b81526004016111779291906136db565b600060405180830381600087803b15801561119157600080fd5b505af11580156111a5573d6000803e3d6000fd5b505050505050565b60008060009054906101000a900473ffffffffffffffffffffffffffffffffffffffff1673ffffffffffffffffffffffffffffffffffffffff1663b199fa718480600001906111fc9190613a28565b6040518363ffffffff1660e01b8152600401611219929190613ab8565b600060405180830381865afa158015611236573d6000803e3d6000fd5b505050506040513d6000823e3d601f19601f8201168201806040525081019061125f91906131d9565b905061127e816000015160405180602001604052806000815250612006565b156113a4578280600001906112939190613a28565b8080601f016020809104026020016040519081016040528093929190818152602001838380828437600081840152601f19601f8201169050808301925050505050505081600001819052508280602001906112ee9190613adc565b6000013581602001818152505082806020019061130b9190613adc565b806020019061131a9190613b04565b8080601f016020809104026020016040519081016040528093929190818152602001838380828437600081840152601f19601f8201169050808301925050505050505081604001819052508280602001906113759190613adc565b604001358160800181815250508280602001906113929190613adc565b606001358160c001818152505061182a565b6113c1816000015160405180602001604052806000815250612006565b1580156113fe575080610140015173ffffffffffffffffffffffffffffffffffffffff163373ffffffffffffffffffffffffffffffffffffffff16145b156117ef578280602001906114139190613adc565b60000135816020015114801561143f57508280602001906114349190613adc565b604001358160800151145b801561146157508280602001906114569190613adc565b606001358160c00151145b80156114d857506114d781604001518480602001906114809190613adc565b806020019061148f9190613b04565b8080601f016020809104026020016040519081016040528093929190818152602001838380828437600081840152601f19601f82011690508083019250505050505050612006565b5b611517576040517f08c379a000000000000000000000000000000000000000000000000000000000815260040161150e90613bb3565b60405180910390fd5b62015180826115269190613430565b81608001516115359190613461565b341015611577576040517f08c379a000000000000000000000000000000000000000000000000000000000815260040161156e906134ef565b60405180910390fd5b600015158161012001511515146115c3576040517f08c379a00000000000000000000000000000000000000000000000000000000081526004016115ba90613c45565b60405180910390fd5b428160e001518260a001516115d8919061387b565b10611618576040517f08c379a000000000000000000000000000000000000000000000000000000000815260040161160f90613cd7565b60405180910390fd5b818160a0018181525050428160e00181815250506000816101200190151590811515815250503381610140019073ffffffffffffffffffffffffffffffffffffffff16908173ffffffffffffffffffffffffffffffffffffffff168152505060008054906101000a900473ffffffffffffffffffffffffffffffffffffffff1673ffffffffffffffffffffffffffffffffffffffff1663fe87cd818480600001906116c39190613a28565b846040518463ffffffff1660e01b81526004016116e293929190613cf7565b600060405180830381600087803b1580156116fc57600080fd5b505af1158015611710573d6000803e3d6000fd5b5050505060008054906101000a900473ffffffffffffffffffffffffffffffffffffffff1673ffffffffffffffffffffffffffffffffffffffff16638da5cb5b6040518163ffffffff1660e01b8152600401602060405180830381865afa15801561177f573d6000803e3d6000fd5b505050506040513d601f19601f820116820180604052508101906117a39190613776565b73ffffffffffffffffffffffffffffffffffffffff166108fc349081150290604051600060405180830381858888f193505050501580156117e8573d6000803e3d6000fd5b5050611f36565b6040517ffa45cc8700000000000000000000000000000000000000000000000000000000815260040161182190613da2565b60405180910390fd5b62015180826118399190613430565b81608001516118489190613461565b34101561188a576040517f08c379a0000000000000000000000000000000000000000000000000000000008152600401611881906134ef565b60405180910390fd5b60008060009054906101000a900473ffffffffffffffffffffffffffffffffffffffff1673ffffffffffffffffffffffffffffffffffffffff1662fdd58e6118d0610e17565b8680602001906118e09190613adc565b600001356040518363ffffffff1660e01b8152600401611901929190613dc2565b602060405180830381865afa15801561191e573d6000803e3d6000fd5b505050506040513d601f19601f820116820180604052508101906119429190613deb565b1115611ada576000600167ffffffffffffffff811115611965576119646129f2565b5b6040519080825280602002602001820160405280156119935781602001602082028036833780820191505090505b5090508380602001906119a69190613adc565b60000135816000815181106119be576119bd613e18565b5b6020026020010181815250506000600167ffffffffffffffff8111156119e7576119e66129f2565b5b604051908082528060200260200182016040528015611a155781602001602082028036833780820191505090505b509050600181600081518110611a2e57611a2d613e18565b5b60200260200101818152505060008054906101000a900473ffffffffffffffffffffffffffffffffffffffff1673ffffffffffffffffffffffffffffffffffffffff16639ecfc1b66000611a80610e17565b85856040518563ffffffff1660e01b8152600401611aa19493929190613ef6565b600060405180830381600087803b158015611abb57600080fd5b505af1158015611acf573d6000803e3d6000fd5b505050505050611b85565b60008054906101000a900473ffffffffffffffffffffffffffffffffffffffff1673ffffffffffffffffffffffffffffffffffffffff1663fb9812fc611b1e610e17565b858060200190611b2e9190613adc565b6000013560016040518463ffffffff1660e01b8152600401611b5293929190613fa0565b600060405180830381600087803b158015611b6c57600080fd5b505af1158015611b80573d6000803e3d6000fd5b505050505b818160a0018181525050428160e00181815250506000816101200190151590811515815250503381610140019073ffffffffffffffffffffffffffffffffffffffff16908173ffffffffffffffffffffffffffffffffffffffff168152505060008054906101000a900473ffffffffffffffffffffffffffffffffffffffff1673ffffffffffffffffffffffffffffffffffffffff1662fdd58e611c27610e17565b858060200190611c379190613adc565b600001356040518363ffffffff1660e01b8152600401611c58929190613dc2565b602060405180830381865afa158015611c75573d6000803e3d6000fd5b505050506040513d601f19601f82011682018060405250810190611c999190613deb565b81606001818152505060008054906101000a900473ffffffffffffffffffffffffffffffffffffffff1673ffffffffffffffffffffffffffffffffffffffff1663fe87cd81848060000190611cee9190613a28565b846040518463ffffffff1660e01b8152600401611d0d93929190613cf7565b600060405180830381600087803b158015611d2757600080fd5b505af1158015611d3b573d6000803e3d6000fd5b5050505060008054906101000a900473ffffffffffffffffffffffffffffffffffffffff1673ffffffffffffffffffffffffffffffffffffffff1663f17877823383600001516040518363ffffffff1660e01b8152600401611d9e929190613712565b600060405180830381600087803b158015611db857600080fd5b505af1158015611dcc573d6000803e3d6000fd5b5050505060008054906101000a900473ffffffffffffffffffffffffffffffffffffffff1673ffffffffffffffffffffffffffffffffffffffff1663f2af91af82600001516040518263ffffffff1660e01b8152600401611e2d9190612ee0565b600060405180830381600087803b158015611e4757600080fd5b505af1158015611e5b573d6000803e3d6000fd5b5050505060008054906101000a900473ffffffffffffffffffffffffffffffffffffffff1673ffffffffffffffffffffffffffffffffffffffff16638da5cb5b6040518163ffffffff1660e01b8152600401602060405180830381865afa158015611eca573d6000803e3d6000fd5b505050506040513d601f19601f82011682018060405250810190611eee9190613776565b73ffffffffffffffffffffffffffffffffffffffff166108fc349081150290604051600060405180830381858888f19350505050158015611f33573d6000803e3d6000fd5b50505b5050565b611f426122b8565b600073ffffffffffffffffffffffffffffffffffffffff168173ffffffffffffffffffffffffffffffffffffffff1603611fb45760006040517f1e4fbdf7000000000000000000000000000000000000000000000000000000008152600401611fab9190612cb8565b60405180910390fd5b611fbd8161233f565b50565b60007ff0c57e16840df040f15088dc2f81fe391c3923bec73e23a9662efc9c229c6a00905090565b611ff061243e565b611ff98161247e565b50565b61200461243e565b565b60008180519060200120838051906020012014905092915050565b7f000000000000000000000000000000000000000000000000000000000000000073ffffffffffffffffffffffffffffffffffffffff163073ffffffffffffffffffffffffffffffffffffffff1614806120ce57507f000000000000000000000000000000000000000000000000000000000000000073ffffffffffffffffffffffffffffffffffffffff166120b5612504565b73ffffffffffffffffffffffffffffffffffffffff1614155b15612105576040517fe07c8dba00000000000000000000000000000000000000000000000000000000815260040160405180910390fd5b565b61210f6122b8565b50565b8173ffffffffffffffffffffffffffffffffffffffff166352d1902d6040518163ffffffff1660e01b8152600401602060405180830381865afa92505050801561217a57506040513d601f19601f820116820180604052508101906121779190614016565b60015b6121bb57816040517f4c9c8ce30000000000000000000000000000000000000000000000000000000081526004016121b29190612cb8565b60405180910390fd5b7f360894a13ba1a3210667c828492db98dca3e2076cc3735a920a3ca505d382bbc60001b811461222257806040517faa1d49a40000000000000000000000000000000000000000000000000000000081526004016122199190612bdb565b60405180910390fd5b61222c838361255b565b505050565b7f000000000000000000000000000000000000000000000000000000000000000073ffffffffffffffffffffffffffffffffffffffff163073ffffffffffffffffffffffffffffffffffffffff16146122b6576040517fe07c8dba00000000000000000000000000000000000000000000000000000000815260040160405180910390fd5b565b6122c06125ce565b73ffffffffffffffffffffffffffffffffffffffff166122de610e17565b73ffffffffffffffffffffffffffffffffffffffff161461233d576123016125ce565b6040517f118cdaa70000000000000000000000000000000000000000000000000000000081526004016123349190612cb8565b60405180910390fd5b565b6000612349612416565b905060008160000160009054906101000a900473ffffffffffffffffffffffffffffffffffffffff169050828260000160006101000a81548173ffffffffffffffffffffffffffffffffffffffff021916908373ffffffffffffffffffffffffffffffffffffffff1602179055508273ffffffffffffffffffffffffffffffffffffffff168173ffffffffffffffffffffffffffffffffffffffff167f8be0079c531659141344cd1fd0a4f28419497f9722a3daafe3b4186f6b6457e060405160405180910390a3505050565b60007f9016d09d72d40fdae2fd8ceac6b6234c7706214fd39c1cd1e609a0528c199300905090565b6124466125d6565b61247c576040517fd7e6bcf800000000000000000000000000000000000000000000000000000000815260040160405180910390fd5b565b61248661243e565b600073ffffffffffffffffffffffffffffffffffffffff168173ffffffffffffffffffffffffffffffffffffffff16036124f85760006040517f1e4fbdf70000000000000000000000000000000000000000000000000000000081526004016124ef9190612cb8565b60405180910390fd5b6125018161233f565b50565b60006125327f360894a13ba1a3210667c828492db98dca3e2076cc3735a920a3ca505d382bbc60001b6125f6565b60000160009054906101000a900473ffffffffffffffffffffffffffffffffffffffff16905090565b61256482612600565b8173ffffffffffffffffffffffffffffffffffffffff167fbc7cd75a20ee27fd9adebab32041f755214dbc6bffa90cc0225b39da2e5c2d3b60405160405180910390a26000815111156125c1576125bb82826126cd565b506125ca565b6125c9612751565b5b5050565b600033905090565b60006125e0611fc0565b60000160089054906101000a900460ff16905090565b6000819050919050565b60008173ffffffffffffffffffffffffffffffffffffffff163b0361265c57806040517f4c9c8ce30000000000000000000000000000000000000000000000000000000081526004016126539190612cb8565b60405180910390fd5b806126897f360894a13ba1a3210667c828492db98dca3e2076cc3735a920a3ca505d382bbc60001b6125f6565b60000160006101000a81548173ffffffffffffffffffffffffffffffffffffffff021916908373ffffffffffffffffffffffffffffffffffffffff16021790555050565b60606000808473ffffffffffffffffffffffffffffffffffffffff16846040516126f7919061407f565b600060405180830381855af49150503d8060008114612732576040519150601f19603f3d011682016040523d82523d6000602084013e612737565b606091505b509150915061274785838361278e565b9250505092915050565b600034111561278c576040517fb398979f00000000000000000000000000000000000000000000000000000000815260040160405180910390fd5b565b6060826127a35761279e8261281d565b612815565b600082511480156127cb575060008473ffffffffffffffffffffffffffffffffffffffff163b145b1561280d57836040517f9996b3150000000000000000000000000000000000000000000000000000000081526004016128049190612cb8565b60405180910390fd5b819050612816565b5b9392505050565b6000815111156128305780518082602001fd5b6040517f1425ea4200000000000000000000000000000000000000000000000000000000815260040160405180910390fd5b600073ffffffffffffffffffffffffffffffffffffffff82169050919050565b6000819050919050565b60006128a76128a261289d84612862565b612882565b612862565b9050919050565b60006128b98261288c565b9050919050565b60006128cb826128ae565b9050919050565b6128db816128c0565b82525050565b60006020820190506128f660008301846128d2565b92915050565b6000604051905090565b600080fd5b600080fd5b600061291b82612862565b9050919050565b61292b81612910565b811461293657600080fd5b50565b60008135905061294881612922565b92915050565b6000819050919050565b6129618161294e565b811461296c57600080fd5b50565b60008135905061297e81612958565b92915050565b60008060006060848603121561299d5761299c612906565b5b60006129ab86828701612939565b93505060206129bc86828701612939565b92505060406129cd8682870161296f565b9150509250925092565b600080fd5b600080fd5b6000601f19601f8301169050919050565b7f4e487b7100000000000000000000000000000000000000000000000000000000600052604160045260246000fd5b612a2a826129e1565b810181811067ffffffffffffffff82111715612a4957612a486129f2565b5b80604052505050565b6000612a5c6128fc565b9050612a688282612a21565b919050565b600067ffffffffffffffff821115612a8857612a876129f2565b5b612a91826129e1565b9050602081019050919050565b82818337600083830152505050565b6000612ac0612abb84612a6d565b612a52565b905082815260208101848484011115612adc57612adb6129dc565b5b612ae7848285612a9e565b509392505050565b600082601f830112612b0457612b036129d7565b5b8135612b14848260208601612aad565b91505092915050565b600060208284031215612b3357612b32612906565b5b600082013567ffffffffffffffff811115612b5157612b5061290b565b5b612b5d84828501612aef565b91505092915050565b60008060408385031215612b7d57612b7c612906565b5b6000612b8b85828601612939565b925050602083013567ffffffffffffffff811115612bac57612bab61290b565b5b612bb885828601612aef565b9150509250929050565b6000819050919050565b612bd581612bc2565b82525050565b6000602082019050612bf06000830184612bcc565b92915050565b612bff8161294e565b82525050565b6000602082019050612c1a6000830184612bf6565b92915050565b600060208284031215612c3657612c35612906565b5b6000612c448482850161296f565b91505092915050565b60008060408385031215612c6457612c63612906565b5b600083013567ffffffffffffffff811115612c8257612c8161290b565b5b612c8e85828601612aef565b9250506020612c9f8582860161296f565b9150509250929050565b612cb281612910565b82525050565b6000602082019050612ccd6000830184612ca9565b92915050565b600081519050919050565b600082825260208201905092915050565b60005b83811015612d0d578082015181840152602081019050612cf2565b60008484015250505050565b6000612d2482612cd3565b612d2e8185612cde565b9350612d3e818560208601612cef565b612d47816129e1565b840191505092915050565b60006020820190508181036000830152612d6c8184612d19565b905092915050565b600080fd5b600060408284031215612d8f57612d8e612d74565b5b81905092915050565b60008060408385031215612daf57612dae612906565b5b600083013567ffffffffffffffff811115612dcd57612dcc61290b565b5b612dd985828601612d79565b9250506020612dea8582860161296f565b9150509250929050565b600060208284031215612e0a57612e09612906565b5b6000612e1884828501612939565b91505092915050565b6000819050919050565b600067ffffffffffffffff82169050919050565b6000612e5a612e55612e5084612e21565b612882565b612e2b565b9050919050565b612e6a81612e3f565b82525050565b6000602082019050612e856000830184612e61565b92915050565b600081519050919050565b600082825260208201905092915050565b6000612eb282612e8b565b612ebc8185612e96565b9350612ecc818560208601612cef565b612ed5816129e1565b840191505092915050565b60006020820190508181036000830152612efa8184612ea7565b905092915050565b600080fd5b600080fd5b6000612f1f612f1a84612a6d565b612a52565b905082815260208101848484011115612f3b57612f3a6129dc565b5b612f46848285612cef565b509392505050565b600082601f830112612f6357612f626129d7565b5b8151612f73848260208601612f0c565b91505092915050565b600081519050612f8b81612958565b92915050565b600067ffffffffffffffff821115612fac57612fab6129f2565b5b612fb5826129e1565b9050602081019050919050565b6000612fd5612fd084612f91565b612a52565b905082815260208101848484011115612ff157612ff06129dc565b5b612ffc848285612cef565b509392505050565b600082601f830112613019576130186129d7565b5b8151613029848260208601612fc2565b91505092915050565b60008115159050919050565b61304781613032565b811461305257600080fd5b50565b6000815190506130648161303e565b92915050565b60008151905061307981612922565b92915050565b6000610180828403121561309657613095612f02565b5b6130a1610180612a52565b9050600082015167ffffffffffffffff8111156130c1576130c0612f07565b5b6130cd84828501612f4e565b60008301525060206130e184828501612f7c565b602083015250604082015167ffffffffffffffff81111561310557613104612f07565b5b61311184828501613004565b604083015250606061312584828501612f7c565b606083015250608061313984828501612f7c565b60808301525060a061314d84828501612f7c565b60a08301525060c061316184828501612f7c565b60c08301525060e061317584828501612f7c565b60e08301525061010061318a84828501612f7c565b610100830152506101206131a084828501613055565b610120830152506101406131b68482850161306a565b610140830152506101606131cc8482850161306a565b6101608301525092915050565b6000602082840312156131ef576131ee612906565b5b600082015167ffffffffffffffff81111561320d5761320c61290b565b5b6132198482850161307f565b91505092915050565b7f496e76616c696420636f75727365496400000000000000000000000000000000600082015250565b6000613258601083612cde565b915061326382613222565b602082019050919050565b600060208201905081810360008301526132878161324b565b9050919050565b7f436f75727365206e6f74206c6973746564206f6e206d61726b6574706c616365600082015250565b60006132c4602083612cde565b91506132cf8261328e565b602082019050919050565b600060208201905081810360008301526132f3816132b7565b9050919050565b7f436f75727365206973206e6f74206c6973746564000000000000000000000000600082015250565b6000613330601483612cde565b915061333b826132fa565b602082019050919050565b6000602082019050818103600083015261335f81613323565b9050919050565b7f436f7572736520616c726561647920736f6c6400000000000000000000000000600082015250565b600061339c601383612cde565b91506133a782613366565b602082019050919050565b600060208201905081810360008301526133cb8161338f565b9050919050565b7f4e487b7100000000000000000000000000000000000000000000000000000000600052601260045260246000fd5b7f4e487b7100000000000000000000000000000000000000000000000000000000600052601160045260246000fd5b600061343b8261294e565b91506134468361294e565b925082613456576134556133d2565b5b828204905092915050565b600061346c8261294e565b91506134778361294e565b92508282026134858161294e565b9150828204841483151761349c5761349b613401565b5b5092915050565b7f496e73756666696369656e7420616d6f756e7400000000000000000000000000600082015250565b60006134d9601383612cde565b91506134e4826134a3565b602082019050919050565b60006020820190508181036000830152613508816134cc565b9050919050565b600082825260208201905092915050565b600061352b82612e8b565b613535818561350f565b9350613545818560208601612cef565b61354e816129e1565b840191505092915050565b6135628161294e565b82525050565b600082825260208201905092915050565b600061358482612cd3565b61358e8185613568565b935061359e818560208601612cef565b6135a7816129e1565b840191505092915050565b6135bb81613032565b82525050565b6135ca81612910565b82525050565b60006101808301600083015184820360008601526135ee8282613520565b91505060208301516136036020860182613559565b506040830151848203604086015261361b8282613579565b91505060608301516136306060860182613559565b5060808301516136436080860182613559565b5060a083015161365660a0860182613559565b5060c083015161366960c0860182613559565b5060e083015161367c60e0860182613559565b50610100830151613691610100860182613559565b506101208301516136a66101208601826135b2565b506101408301516136bb6101408601826135c1565b506101608301516136d06101608601826135c1565b508091505092915050565b600060408201905081810360008301526136f58185612ea7565b9050818103602083015261370981846135d0565b90509392505050565b60006040820190506137276000830185612ca9565b81810360208301526137398184612ea7565b90509392505050565b600061374d8261294e565b91506137588361294e565b92508282039050818111156137705761376f613401565b5b92915050565b60006020828403121561378c5761378b612906565b5b600061379a8482850161306a565b91505092915050565b7f526f79616c74792063616e6e6f74206265206d6f7265207468616e2035302500600082015250565b60006137d9601f83612cde565b91506137e4826137a3565b602082019050919050565b60006020820190508181036000830152613808816137cc565b9050919050565b7f596f7520646f6e277420686f6c64207468697320636f75727365000000000000600082015250565b6000613845601a83612cde565b91506138508261380f565b602082019050919050565b6000602082019050818103600083015261387481613838565b9050919050565b60006138868261294e565b91506138918361294e565b92508282019050808211156138a9576138a8613401565b5b92915050565b7f596f75206861766520636f6d706c657465642074686520636f7572736520647560008201527f726174696f6e0000000000000000000000000000000000000000000000000000602082015250565b600061390b602683612cde565b9150613916826138af565b604082019050919050565b6000602082019050818103600083015261393a816138fe565b9050919050565b7f436f7572736520616c7265616479207265736f6c640000000000000000000000600082015250565b6000613977601583612cde565b915061398282613941565b602082019050919050565b600060208201905081810360008301526139a68161396a565b9050919050565b7f436f75727365206973206e6f7420706175736564000000000000000000000000600082015250565b60006139e3601483612cde565b91506139ee826139ad565b602082019050919050565b60006020820190508181036000830152613a12816139d6565b9050919050565b600080fd5b600080fd5b600080fd5b60008083356001602003843603038112613a4557613a44613a19565b5b80840192508235915067ffffffffffffffff821115613a6757613a66613a1e565b5b602083019250600182023603831315613a8357613a82613a23565b5b509250929050565b6000613a978385612e96565b9350613aa4838584612a9e565b613aad836129e1565b840190509392505050565b60006020820190508181036000830152613ad3818486613a8b565b90509392505050565b600082356001608003833603038112613af857613af7613a19565b5b80830191505092915050565b60008083356001602003843603038112613b2157613b20613a19565b5b80840192508235915067ffffffffffffffff821115613b4357613b42613a1e565b5b602083019250600182023603831315613b5f57613b5e613a23565b5b509250929050565b7f436f757273652064657461696c732063616e6e6f74206265206368616e676564600082015250565b6000613b9d602083612cde565b9150613ba882613b67565b602082019050919050565b60006020820190508181036000830152613bcc81613b90565b9050919050565b7f436f75727365206973206c697374656420666f722073616c652c20796f75206360008201527f616e277420627579206e6f772e00000000000000000000000000000000000000602082015250565b6000613c2f602d83612cde565b9150613c3a82613bd3565b604082019050919050565b60006020820190508181036000830152613c5e81613c22565b9050919050565b7f436f75727365206973207374696c6c206163746976652c20796f752063616e2760008201527f7420627579206e6f772e00000000000000000000000000000000000000000000602082015250565b6000613cc1602a83612cde565b9150613ccc82613c65565b604082019050919050565b60006020820190508181036000830152613cf081613cb4565b9050919050565b60006040820190508181036000830152613d12818587613a8b565b90508181036020830152613d2681846135d0565b9050949350505050565b7f5468697320636f7572736520697320616c7265616479206f776e65642062792060008201527f616e6f7468657220757365720000000000000000000000000000000000000000602082015250565b6000613d8c602c83612cde565b9150613d9782613d30565b604082019050919050565b60006020820190508181036000830152613dbb81613d7f565b9050919050565b6000604082019050613dd76000830185612ca9565b613de46020830184612bf6565b9392505050565b600060208284031215613e0157613e00612906565b5b6000613e0f84828501612f7c565b91505092915050565b7f4e487b7100000000000000000000000000000000000000000000000000000000600052603260045260246000fd5b600081519050919050565b600082825260208201905092915050565b6000819050602082019050919050565b6000613e7f8383613559565b60208301905092915050565b6000602082019050919050565b6000613ea382613e47565b613ead8185613e52565b9350613eb883613e63565b8060005b83811015613ee9578151613ed08882613e73565b9750613edb83613e8b565b925050600181019050613ebc565b5085935050505092915050565b6000608082019050613f0b6000830187612ca9565b613f186020830186612ca9565b8181036040830152613f2a8185613e98565b90508181036060830152613f3e8184613e98565b905095945050505050565b6000613f64613f5f613f5a84612e21565b612882565b61294e565b9050919050565b613f7481613f49565b82525050565b50565b6000613f8a600083612e96565b9150613f9582613f7a565b600082019050919050565b6000608082019050613fb56000830186612ca9565b613fc26020830185612bf6565b613fcf6040830184613f6b565b8181036060830152613fe081613f7d565b9050949350505050565b613ff381612bc2565b8114613ffe57600080fd5b50565b60008151905061401081613fea565b92915050565b60006020828403121561402c5761402b612906565b5b600061403a84828501614001565b91505092915050565b600081905092915050565b600061405982612e8b565b6140638185614043565b9350614073818560208601612cef565b80840191505092915050565b600061408b828461404e565b91508190509291505056fea2646970667358221220fee65b842b3ec569f0652126e64f50d0ba5b39528a91886b123dbc6dfe9be8a064736f6c63430008190033",
  "linkReferences": {},
  "deployedLinkReferences": {}
}